{
  "contractName": "Implementation",
  "abi": [
    {
      "anonymous": false,
      "inputs": [
        {
          "indexed": true,
          "internalType": "uint256",
          "name": "epoch",
          "type": "uint256"
        },
        {
          "indexed": false,
          "internalType": "uint256",
          "name": "block",
          "type": "uint256"
        },
        {
          "indexed": false,
          "internalType": "uint256",
          "name": "timestamp",
          "type": "uint256"
        }
      ],
      "name": "Advance",
      "type": "event"
    },
    {
      "anonymous": false,
      "inputs": [
        {
          "indexed": true,
          "internalType": "address",
          "name": "account",
          "type": "address"
        },
        {
          "indexed": false,
          "internalType": "uint256",
          "name": "start",
          "type": "uint256"
        },
        {
          "indexed": false,
          "internalType": "uint256",
          "name": "value",
          "type": "uint256"
        },
        {
          "indexed": false,
          "internalType": "uint256",
          "name": "valueUnderlying",
          "type": "uint256"
        }
      ],
      "name": "Bond",
      "type": "event"
    },
    {
      "anonymous": false,
      "inputs": [
        {
          "indexed": true,
          "internalType": "address",
          "name": "account",
          "type": "address"
        },
        {
          "indexed": true,
          "internalType": "address",
          "name": "candidate",
          "type": "address"
        }
      ],
      "name": "Commit",
      "type": "event"
    },
    {
      "anonymous": false,
      "inputs": [
        {
          "indexed": true,
          "internalType": "address",
          "name": "owner",
          "type": "address"
        },
        {
          "indexed": true,
          "internalType": "address",
          "name": "spender",
          "type": "address"
        },
        {
          "indexed": false,
          "internalType": "uint256",
          "name": "value",
          "type": "uint256"
        }
      ],
      "name": "CouponApproval",
      "type": "event"
    },
    {
      "anonymous": false,
      "inputs": [
        {
          "indexed": true,
          "internalType": "address",
          "name": "account",
          "type": "address"
        },
        {
          "indexed": true,
          "internalType": "uint256",
          "name": "epoch",
          "type": "uint256"
        },
        {
          "indexed": false,
          "internalType": "uint256",
          "name": "couponAmount",
          "type": "uint256"
        }
      ],
      "name": "CouponBurn",
      "type": "event"
    },
    {
      "anonymous": false,
      "inputs": [
        {
          "indexed": true,
          "internalType": "uint256",
          "name": "epoch",
          "type": "uint256"
        },
        {
          "indexed": false,
          "internalType": "uint256",
          "name": "couponsExpired",
          "type": "uint256"
        },
        {
          "indexed": false,
          "internalType": "uint256",
          "name": "lessRedeemable",
          "type": "uint256"
        },
        {
          "indexed": false,
          "internalType": "uint256",
          "name": "lessDebt",
          "type": "uint256"
        },
        {
          "indexed": false,
          "internalType": "uint256",
          "name": "newBonded",
          "type": "uint256"
        }
      ],
      "name": "CouponExpiration",
      "type": "event"
    },
    {
      "anonymous": false,
      "inputs": [
        {
          "indexed": true,
          "internalType": "address",
          "name": "account",
          "type": "address"
        },
        {
          "indexed": true,
          "internalType": "uint256",
          "name": "epoch",
          "type": "uint256"
        },
        {
          "indexed": false,
          "internalType": "uint256",
          "name": "dollarAmount",
          "type": "uint256"
        },
        {
          "indexed": false,
          "internalType": "uint256",
          "name": "couponAmount",
          "type": "uint256"
        }
      ],
      "name": "CouponPurchase",
      "type": "event"
    },
    {
      "anonymous": false,
      "inputs": [
        {
          "indexed": true,
          "internalType": "address",
          "name": "account",
          "type": "address"
        },
        {
          "indexed": true,
          "internalType": "uint256",
          "name": "epoch",
          "type": "uint256"
        },
        {
          "indexed": false,
          "internalType": "uint256",
          "name": "couponAmount",
          "type": "uint256"
        }
      ],
      "name": "CouponRedemption",
      "type": "event"
    },
    {
      "anonymous": false,
      "inputs": [
        {
          "indexed": true,
          "internalType": "address",
          "name": "from",
          "type": "address"
        },
        {
          "indexed": true,
          "internalType": "address",
          "name": "to",
          "type": "address"
        },
        {
          "indexed": true,
          "internalType": "uint256",
          "name": "epoch",
          "type": "uint256"
        },
        {
          "indexed": false,
          "internalType": "uint256",
          "name": "value",
          "type": "uint256"
        }
      ],
      "name": "CouponTransfer",
      "type": "event"
    },
    {
      "anonymous": false,
      "inputs": [
        {
          "indexed": true,
          "internalType": "address",
          "name": "account",
          "type": "address"
        },
        {
          "indexed": false,
          "internalType": "uint256",
          "name": "value",
          "type": "uint256"
        }
      ],
      "name": "Deposit",
      "type": "event"
    },
    {
      "anonymous": false,
      "inputs": [
        {
          "indexed": true,
          "internalType": "address",
          "name": "account",
          "type": "address"
        },
        {
          "indexed": false,
          "internalType": "uint256",
          "name": "amount",
          "type": "uint256"
        }
      ],
      "name": "Incentivization",
      "type": "event"
    },
    {
      "anonymous": false,
      "inputs": [
        {
          "indexed": true,
          "internalType": "address",
          "name": "candidate",
          "type": "address"
        },
        {
          "indexed": true,
          "internalType": "address",
          "name": "account",
          "type": "address"
        },
        {
          "indexed": true,
          "internalType": "uint256",
          "name": "start",
          "type": "uint256"
        },
        {
          "indexed": false,
          "internalType": "uint256",
          "name": "period",
          "type": "uint256"
        }
      ],
      "name": "Proposal",
      "type": "event"
    },
    {
      "anonymous": false,
      "inputs": [
        {
          "indexed": true,
          "internalType": "uint256",
          "name": "epoch",
          "type": "uint256"
        },
        {
          "indexed": false,
          "internalType": "uint256",
          "name": "price",
          "type": "uint256"
        },
        {
          "indexed": false,
          "internalType": "uint256",
          "name": "newDebt",
          "type": "uint256"
        }
      ],
      "name": "SupplyDecrease",
      "type": "event"
    },
    {
      "anonymous": false,
      "inputs": [
        {
          "indexed": true,
          "internalType": "uint256",
          "name": "epoch",
          "type": "uint256"
        },
        {
          "indexed": false,
          "internalType": "uint256",
          "name": "price",
          "type": "uint256"
        },
        {
          "indexed": false,
          "internalType": "uint256",
          "name": "newRedeemable",
          "type": "uint256"
        },
        {
          "indexed": false,
          "internalType": "uint256",
          "name": "lessDebt",
          "type": "uint256"
        },
        {
          "indexed": false,
          "internalType": "uint256",
          "name": "newBonded",
          "type": "uint256"
        }
      ],
      "name": "SupplyIncrease",
      "type": "event"
    },
    {
      "anonymous": false,
      "inputs": [
        {
          "indexed": true,
          "internalType": "uint256",
          "name": "epoch",
          "type": "uint256"
        }
      ],
      "name": "SupplyNeutral",
      "type": "event"
    },
    {
      "anonymous": false,
      "inputs": [
        {
          "indexed": true,
          "internalType": "address",
          "name": "from",
          "type": "address"
        },
        {
          "indexed": true,
          "internalType": "address",
          "name": "to",
          "type": "address"
        },
        {
          "indexed": false,
          "internalType": "uint256",
          "name": "value",
          "type": "uint256"
        }
      ],
      "name": "Transfer",
      "type": "event"
    },
    {
      "anonymous": false,
      "inputs": [
        {
          "indexed": true,
          "internalType": "address",
          "name": "account",
          "type": "address"
        },
        {
          "indexed": false,
          "internalType": "uint256",
          "name": "start",
          "type": "uint256"
        },
        {
          "indexed": false,
          "internalType": "uint256",
          "name": "value",
          "type": "uint256"
        },
        {
          "indexed": false,
          "internalType": "uint256",
          "name": "valueUnderlying",
          "type": "uint256"
        }
      ],
      "name": "Unbond",
      "type": "event"
    },
    {
      "anonymous": false,
      "inputs": [
        {
          "indexed": true,
          "internalType": "address",
          "name": "implementation",
          "type": "address"
        }
      ],
      "name": "Upgraded",
      "type": "event"
    },
    {
      "anonymous": false,
      "inputs": [
        {
          "indexed": true,
          "internalType": "address",
          "name": "account",
          "type": "address"
        },
        {
          "indexed": true,
          "internalType": "address",
          "name": "candidate",
          "type": "address"
        },
        {
          "indexed": false,
          "internalType": "enum Candidate.Vote",
          "name": "vote",
          "type": "uint8"
        },
        {
          "indexed": false,
          "internalType": "uint256",
          "name": "bonded",
          "type": "uint256"
        }
      ],
      "name": "Vote",
      "type": "event"
    },
    {
      "anonymous": false,
      "inputs": [
        {
          "indexed": true,
          "internalType": "address",
          "name": "account",
          "type": "address"
        },
        {
          "indexed": false,
          "internalType": "uint256",
          "name": "value",
          "type": "uint256"
        }
      ],
      "name": "Withdraw",
      "type": "event"
    },
    {
      "constant": true,
      "inputs": [
        {
          "internalType": "address",
          "name": "owner",
          "type": "address"
        },
        {
          "internalType": "address",
          "name": "spender",
          "type": "address"
        }
      ],
      "name": "allowance",
      "outputs": [
        {
          "internalType": "uint256",
          "name": "",
          "type": "uint256"
        }
      ],
      "payable": false,
      "stateMutability": "view",
      "type": "function"
    },
    {
      "constant": true,
      "inputs": [
        {
          "internalType": "address",
          "name": "owner",
          "type": "address"
        },
        {
          "internalType": "address",
          "name": "spender",
          "type": "address"
        }
      ],
      "name": "allowanceCoupons",
      "outputs": [
        {
          "internalType": "uint256",
          "name": "",
          "type": "uint256"
        }
      ],
      "payable": false,
      "stateMutability": "view",
      "type": "function"
    },
    {
      "constant": false,
      "inputs": [
        {
          "internalType": "address",
          "name": "spender",
          "type": "address"
        },
        {
          "internalType": "uint256",
          "name": "amount",
          "type": "uint256"
        }
      ],
      "name": "approve",
      "outputs": [
        {
          "internalType": "bool",
          "name": "",
          "type": "bool"
        }
      ],
      "payable": false,
      "stateMutability": "nonpayable",
      "type": "function"
    },
    {
      "constant": false,
      "inputs": [
        {
          "internalType": "address",
          "name": "spender",
          "type": "address"
        },
        {
          "internalType": "uint256",
          "name": "amount",
          "type": "uint256"
        }
      ],
      "name": "approveCoupons",
      "outputs": [],
      "payable": false,
      "stateMutability": "nonpayable",
      "type": "function"
    },
    {
      "constant": true,
      "inputs": [
        {
          "internalType": "address",
          "name": "candidate",
          "type": "address"
        }
      ],
      "name": "approveFor",
      "outputs": [
        {
          "internalType": "uint256",
          "name": "",
          "type": "uint256"
        }
      ],
      "payable": false,
      "stateMutability": "view",
      "type": "function"
    },
    {
      "constant": true,
      "inputs": [
        {
          "internalType": "address",
          "name": "account",
          "type": "address"
        }
      ],
      "name": "balanceOf",
      "outputs": [
        {
          "internalType": "uint256",
          "name": "",
          "type": "uint256"
        }
      ],
      "payable": false,
      "stateMutability": "view",
      "type": "function"
    },
    {
      "constant": true,
      "inputs": [
        {
          "internalType": "address",
          "name": "account",
          "type": "address"
        }
      ],
      "name": "balanceOfBonded",
      "outputs": [
        {
          "internalType": "uint256",
          "name": "",
          "type": "uint256"
        }
      ],
      "payable": false,
      "stateMutability": "view",
      "type": "function"
    },
    {
      "constant": true,
      "inputs": [
        {
          "internalType": "address",
          "name": "account",
          "type": "address"
        },
        {
          "internalType": "uint256",
          "name": "epoch",
          "type": "uint256"
        }
      ],
      "name": "balanceOfCoupons",
      "outputs": [
        {
          "internalType": "uint256",
          "name": "",
          "type": "uint256"
        }
      ],
      "payable": false,
      "stateMutability": "view",
      "type": "function"
    },
    {
      "constant": true,
      "inputs": [
        {
          "internalType": "address",
          "name": "account",
          "type": "address"
        }
      ],
      "name": "balanceOfStaged",
      "outputs": [
        {
          "internalType": "uint256",
          "name": "",
          "type": "uint256"
        }
      ],
      "payable": false,
      "stateMutability": "view",
      "type": "function"
    },
    {
      "constant": false,
      "inputs": [
        {
          "internalType": "uint256",
          "name": "value",
          "type": "uint256"
        }
      ],
      "name": "bond",
      "outputs": [],
      "payable": false,
      "stateMutability": "nonpayable",
      "type": "function"
    },
    {
      "constant": true,
      "inputs": [
        {
          "internalType": "uint256",
          "name": "epoch",
          "type": "uint256"
        }
      ],
      "name": "bootstrappingAt",
      "outputs": [
        {
          "internalType": "bool",
          "name": "",
          "type": "bool"
        }
      ],
      "payable": false,
      "stateMutability": "view",
      "type": "function"
    },
    {
      "constant": false,
      "inputs": [
        {
          "internalType": "address",
          "name": "candidate",
          "type": "address"
        }
      ],
      "name": "commit",
      "outputs": [],
      "payable": false,
      "stateMutability": "nonpayable",
      "type": "function"
    },
    {
      "constant": true,
      "inputs": [
        {
          "internalType": "uint256",
          "name": "amount",
          "type": "uint256"
        }
      ],
      "name": "couponPremium",
      "outputs": [
        {
          "internalType": "uint256",
          "name": "",
          "type": "uint256"
        }
      ],
      "payable": false,
      "stateMutability": "view",
      "type": "function"
    },
    {
      "constant": true,
      "inputs": [
        {
          "internalType": "uint256",
          "name": "couponEpoch",
          "type": "uint256"
        },
        {
          "internalType": "uint256",
          "name": "couponAmount",
          "type": "uint256"
        }
      ],
      "name": "couponRedemptionPenalty",
      "outputs": [
        {
          "internalType": "uint256",
          "name": "",
          "type": "uint256"
        }
      ],
      "payable": false,
      "stateMutability": "view",
      "type": "function"
    },
    {
      "constant": true,
      "inputs": [
        {
          "internalType": "uint256",
          "name": "epoch",
          "type": "uint256"
        }
      ],
      "name": "couponsExpiration",
      "outputs": [
        {
          "internalType": "uint256",
          "name": "",
          "type": "uint256"
        }
      ],
      "payable": false,
      "stateMutability": "view",
      "type": "function"
    },
    {
      "constant": true,
      "inputs": [],
      "name": "decimals",
      "outputs": [
        {
          "internalType": "uint8",
          "name": "",
          "type": "uint8"
        }
      ],
      "payable": false,
      "stateMutability": "view",
      "type": "function"
    },
    {
      "constant": false,
      "inputs": [
        {
          "internalType": "uint256",
          "name": "value",
          "type": "uint256"
        }
      ],
      "name": "deposit",
      "outputs": [],
      "payable": false,
      "stateMutability": "nonpayable",
      "type": "function"
    },
    {
      "constant": true,
      "inputs": [],
      "name": "dollar",
      "outputs": [
        {
          "internalType": "contract IDollar",
          "name": "",
          "type": "address"
        }
      ],
      "payable": false,
      "stateMutability": "view",
      "type": "function"
    },
    {
      "constant": false,
      "inputs": [
        {
          "internalType": "address",
          "name": "candidate",
          "type": "address"
        }
      ],
      "name": "emergencyCommit",
      "outputs": [],
      "payable": false,
      "stateMutability": "nonpayable",
      "type": "function"
    },
    {
      "constant": true,
      "inputs": [],
      "name": "epoch",
      "outputs": [
        {
          "internalType": "uint256",
          "name": "",
          "type": "uint256"
        }
      ],
      "payable": false,
      "stateMutability": "view",
      "type": "function"
    },
    {
      "constant": true,
      "inputs": [],
      "name": "epochTime",
      "outputs": [
        {
          "internalType": "uint256",
          "name": "",
          "type": "uint256"
        }
      ],
      "payable": false,
      "stateMutability": "view",
      "type": "function"
    },
    {
      "constant": true,
      "inputs": [
        {
          "internalType": "uint256",
          "name": "epoch",
          "type": "uint256"
        }
      ],
      "name": "expiringCoupons",
      "outputs": [
        {
          "internalType": "uint256",
          "name": "",
          "type": "uint256"
        }
      ],
      "payable": false,
      "stateMutability": "view",
      "type": "function"
    },
    {
      "constant": true,
      "inputs": [
        {
          "internalType": "uint256",
          "name": "epoch",
          "type": "uint256"
        },
        {
          "internalType": "uint256",
          "name": "i",
          "type": "uint256"
        }
      ],
      "name": "expiringCouponsAtIndex",
      "outputs": [
        {
          "internalType": "uint256",
          "name": "",
          "type": "uint256"
        }
      ],
      "payable": false,
      "stateMutability": "view",
      "type": "function"
    },
    {
      "constant": true,
      "inputs": [],
      "name": "implementation",
      "outputs": [
        {
          "internalType": "address",
          "name": "impl",
          "type": "address"
        }
      ],
      "payable": false,
      "stateMutability": "view",
      "type": "function"
    },
    {
      "constant": true,
      "inputs": [
        {
          "internalType": "address",
          "name": "candidate",
          "type": "address"
        }
      ],
      "name": "isInitialized",
      "outputs": [
        {
          "internalType": "bool",
          "name": "",
          "type": "bool"
        }
      ],
      "payable": false,
      "stateMutability": "view",
      "type": "function"
    },
    {
      "constant": true,
      "inputs": [
        {
          "internalType": "address",
          "name": "candidate",
          "type": "address"
        }
      ],
      "name": "isNominated",
      "outputs": [
        {
          "internalType": "bool",
          "name": "",
          "type": "bool"
        }
      ],
      "payable": false,
      "stateMutability": "view",
      "type": "function"
    },
    {
      "constant": true,
      "inputs": [],
      "name": "name",
      "outputs": [
        {
          "internalType": "string",
          "name": "",
          "type": "string"
        }
      ],
      "payable": false,
      "stateMutability": "view",
      "type": "function"
    },
    {
      "constant": true,
      "inputs": [],
      "name": "oracle",
      "outputs": [
        {
          "internalType": "contract IOracle",
          "name": "",
          "type": "address"
        }
      ],
      "payable": false,
      "stateMutability": "view",
      "type": "function"
    },
    {
      "constant": true,
      "inputs": [
        {
          "internalType": "uint256",
          "name": "epoch",
          "type": "uint256"
        }
      ],
      "name": "outstandingCoupons",
      "outputs": [
        {
          "internalType": "uint256",
          "name": "",
          "type": "uint256"
        }
      ],
      "payable": false,
      "stateMutability": "view",
      "type": "function"
    },
    {
      "constant": true,
      "inputs": [
        {
          "internalType": "address",
          "name": "candidate",
          "type": "address"
        }
      ],
      "name": "periodFor",
      "outputs": [
        {
          "internalType": "uint256",
          "name": "",
          "type": "uint256"
        }
      ],
      "payable": false,
      "stateMutability": "view",
      "type": "function"
    },
    {
      "constant": true,
      "inputs": [],
      "name": "pool",
      "outputs": [
        {
          "internalType": "address",
          "name": "",
          "type": "address"
        }
      ],
      "payable": false,
      "stateMutability": "view",
      "type": "function"
    },
    {
      "constant": false,
      "inputs": [
        {
          "internalType": "uint256",
          "name": "dollarAmount",
          "type": "uint256"
        }
      ],
      "name": "purchaseCoupons",
      "outputs": [
        {
          "internalType": "uint256",
          "name": "",
          "type": "uint256"
        }
      ],
      "payable": false,
      "stateMutability": "nonpayable",
      "type": "function"
    },
    {
      "constant": true,
      "inputs": [
        {
          "internalType": "address",
          "name": "account",
          "type": "address"
        },
        {
          "internalType": "address",
          "name": "candidate",
          "type": "address"
        }
      ],
      "name": "recordedVote",
      "outputs": [
        {
          "internalType": "enum Candidate.Vote",
          "name": "",
          "type": "uint8"
        }
      ],
      "payable": false,
      "stateMutability": "view",
      "type": "function"
    },
    {
      "constant": false,
      "inputs": [
        {
          "internalType": "uint256",
          "name": "couponEpoch",
          "type": "uint256"
        },
        {
          "internalType": "uint256",
          "name": "couponAmount",
          "type": "uint256"
        },
        {
          "internalType": "uint256",
          "name": "minOutput",
          "type": "uint256"
        }
      ],
      "name": "redeemCoupons",
      "outputs": [],
      "payable": false,
      "stateMutability": "nonpayable",
      "type": "function"
    },
    {
      "constant": false,
      "inputs": [
        {
          "internalType": "uint256",
          "name": "couponEpoch",
          "type": "uint256"
        },
        {
          "internalType": "uint256",
          "name": "couponAmount",
          "type": "uint256"
        }
      ],
      "name": "redeemCoupons",
      "outputs": [],
      "payable": false,
      "stateMutability": "nonpayable",
      "type": "function"
    },
    {
      "constant": true,
      "inputs": [
        {
          "internalType": "address",
          "name": "candidate",
          "type": "address"
        }
      ],
      "name": "rejectFor",
      "outputs": [
        {
          "internalType": "uint256",
          "name": "",
          "type": "uint256"
        }
      ],
      "payable": false,
      "stateMutability": "view",
      "type": "function"
    },
    {
      "constant": true,
      "inputs": [
        {
          "internalType": "address",
          "name": "candidate",
          "type": "address"
        }
      ],
      "name": "startFor",
      "outputs": [
        {
          "internalType": "uint256",
          "name": "",
          "type": "uint256"
        }
      ],
      "payable": false,
      "stateMutability": "view",
      "type": "function"
    },
    {
      "constant": true,
      "inputs": [
        {
          "internalType": "address",
          "name": "account",
          "type": "address"
        }
      ],
      "name": "statusOf",
      "outputs": [
        {
          "internalType": "enum Account.Status",
          "name": "",
          "type": "uint8"
        }
      ],
      "payable": false,
      "stateMutability": "view",
      "type": "function"
    },
    {
      "constant": true,
      "inputs": [],
      "name": "symbol",
      "outputs": [
        {
          "internalType": "string",
          "name": "",
          "type": "string"
        }
      ],
      "payable": false,
      "stateMutability": "view",
      "type": "function"
    },
    {
      "constant": true,
      "inputs": [],
      "name": "totalBonded",
      "outputs": [
        {
          "internalType": "uint256",
          "name": "",
          "type": "uint256"
        }
      ],
      "payable": false,
      "stateMutability": "view",
      "type": "function"
    },
    {
      "constant": true,
      "inputs": [
        {
          "internalType": "uint256",
          "name": "epoch",
          "type": "uint256"
        }
      ],
      "name": "totalBondedAt",
      "outputs": [
        {
          "internalType": "uint256",
          "name": "",
          "type": "uint256"
        }
      ],
      "payable": false,
      "stateMutability": "view",
      "type": "function"
    },
    {
      "constant": true,
      "inputs": [],
      "name": "totalCoupons",
      "outputs": [
        {
          "internalType": "uint256",
          "name": "",
          "type": "uint256"
        }
      ],
      "payable": false,
      "stateMutability": "view",
      "type": "function"
    },
    {
      "constant": true,
      "inputs": [],
      "name": "totalDebt",
      "outputs": [
        {
          "internalType": "uint256",
          "name": "",
          "type": "uint256"
        }
      ],
      "payable": false,
      "stateMutability": "view",
      "type": "function"
    },
    {
      "constant": true,
      "inputs": [],
      "name": "totalNet",
      "outputs": [
        {
          "internalType": "uint256",
          "name": "",
          "type": "uint256"
        }
      ],
      "payable": false,
      "stateMutability": "view",
      "type": "function"
    },
    {
      "constant": true,
      "inputs": [],
      "name": "totalRedeemable",
      "outputs": [
        {
          "internalType": "uint256",
          "name": "",
          "type": "uint256"
        }
      ],
      "payable": false,
      "stateMutability": "view",
      "type": "function"
    },
    {
      "constant": true,
      "inputs": [],
      "name": "totalStaged",
      "outputs": [
        {
          "internalType": "uint256",
          "name": "",
          "type": "uint256"
        }
      ],
      "payable": false,
      "stateMutability": "view",
      "type": "function"
    },
    {
      "constant": true,
      "inputs": [],
      "name": "totalSupply",
      "outputs": [
        {
          "internalType": "uint256",
          "name": "",
          "type": "uint256"
        }
      ],
      "payable": false,
      "stateMutability": "view",
      "type": "function"
    },
    {
      "constant": false,
      "inputs": [
        {
          "internalType": "address",
          "name": "recipient",
          "type": "address"
        },
        {
          "internalType": "uint256",
          "name": "amount",
          "type": "uint256"
        }
      ],
      "name": "transfer",
      "outputs": [
        {
          "internalType": "bool",
          "name": "",
          "type": "bool"
        }
      ],
      "payable": false,
      "stateMutability": "nonpayable",
      "type": "function"
    },
    {
      "constant": false,
      "inputs": [
        {
          "internalType": "address",
          "name": "sender",
          "type": "address"
        },
        {
          "internalType": "address",
          "name": "recipient",
          "type": "address"
        },
        {
          "internalType": "uint256",
          "name": "epoch",
          "type": "uint256"
        },
        {
          "internalType": "uint256",
          "name": "amount",
          "type": "uint256"
        }
      ],
      "name": "transferCoupons",
      "outputs": [],
      "payable": false,
      "stateMutability": "nonpayable",
      "type": "function"
    },
    {
      "constant": false,
      "inputs": [
        {
          "internalType": "address",
          "name": "sender",
          "type": "address"
        },
        {
          "internalType": "address",
          "name": "recipient",
          "type": "address"
        },
        {
          "internalType": "uint256",
          "name": "amount",
          "type": "uint256"
        }
      ],
      "name": "transferFrom",
      "outputs": [
        {
          "internalType": "bool",
          "name": "",
          "type": "bool"
        }
      ],
      "payable": false,
      "stateMutability": "nonpayable",
      "type": "function"
    },
    {
      "constant": false,
      "inputs": [
        {
          "internalType": "uint256",
          "name": "value",
          "type": "uint256"
        }
      ],
      "name": "unbond",
      "outputs": [],
      "payable": false,
      "stateMutability": "nonpayable",
      "type": "function"
    },
    {
      "constant": false,
      "inputs": [
        {
          "internalType": "uint256",
          "name": "value",
          "type": "uint256"
        }
      ],
      "name": "unbondUnderlying",
      "outputs": [],
      "payable": false,
      "stateMutability": "nonpayable",
      "type": "function"
    },
    {
      "constant": false,
      "inputs": [
        {
          "internalType": "address",
          "name": "candidate",
          "type": "address"
        },
        {
          "internalType": "enum Candidate.Vote",
          "name": "vote",
          "type": "uint8"
        }
      ],
      "name": "vote",
      "outputs": [],
      "payable": false,
      "stateMutability": "nonpayable",
      "type": "function"
    },
    {
      "constant": true,
      "inputs": [
        {
          "internalType": "address",
          "name": "candidate",
          "type": "address"
        }
      ],
      "name": "votesFor",
      "outputs": [
        {
          "internalType": "uint256",
          "name": "",
          "type": "uint256"
        }
      ],
      "payable": false,
      "stateMutability": "view",
      "type": "function"
    },
    {
      "constant": false,
      "inputs": [
        {
          "internalType": "uint256",
          "name": "value",
          "type": "uint256"
        }
      ],
      "name": "withdraw",
      "outputs": [],
      "payable": false,
      "stateMutability": "nonpayable",
      "type": "function"
    },
    {
      "constant": false,
      "inputs": [],
      "name": "initialize",
      "outputs": [],
      "payable": false,
      "stateMutability": "nonpayable",
      "type": "function"
    },
    {
      "constant": false,
      "inputs": [],
      "name": "advance",
      "outputs": [],
      "payable": false,
      "stateMutability": "nonpayable",
      "type": "function"
    }
  ],
  "bytecode": "0x608060405234801561001057600080fd5b506144c4806100206000396000f3fe608060405234801561001057600080fd5b50600436106103825760003560e01c80638129fc1c116101de578063bc0b1df61161010f578063d8f54138116100ad578063ea105ac71161007c578063ea105ac714610714578063f1b7cf491461071c578063fc7b9c181461072f578063ffbe3b731461073757610382565b8063d8f54138146106cd578063dd62ed3e146106e0578063df9a2b1c146106ee578063e5f55c7e1461070157610382565b8063c9aff70c116100e9578063c9aff70c1461068c578063cf0237791461069f578063d60b347f146106a7578063d6a9cf08146106ba57610382565b8063bc0b1df614610653578063bc7513e214610666578063bceb514d1461067957610382565b80639a649edc1161017c578063a50cd8e711610156578063a50cd8e714610625578063a6c409f114610638578063a9059cbb146103ba578063b6b55f251461064057610382565b80639a649edc146105f75780639f6e1b26146105ff578063a1eb31e81461061257610382565b8063900cf0cf116101b8578063900cf0cf146105c157806395d89b41146105c957806397a5d5b5146105d15780639940686e146105e457610382565b80638129fc1c14610593578063825ad6071461059b57806386cf9f14146105ae57610382565b8063369e8c1d116102b857806351adeb57116102565780636a39e328116102305780636a39e3281461055257806370a082311461056557806375d5024b146105785780637dc0d1d01461058b57610382565b806351adeb57146105225780635c60da1b14610537578063646680221461053f57610382565b806344d96e951161029257806344d96e95146104ec57806347c05069146104f45780634c736099146105075780635053e4611461051a57610382565b8063369e8c1d146104a65780633a3e6c81146104b95780633fbba9a6146104cc57610382565b80631edbcf6c116103255780632e1a7d4d116102ff5780632e1a7d4d146104585780632f7f889e1461046b578063313ce5671461047e578063353a420c1461049357610382565b80631edbcf6c1461042a57806323b872dd1461043257806327de9e321461044557610382565b806310e95b6c1161036157806310e95b6c146103da57806315e14bf6146103fa57806316f0115b1461040d57806318160ddd1461042257610382565b80625edd371461038757806306fdde031461039c578063095ea7b3146103ba575b600080fd5b61039a610395366004613c52565b61074a565b005b6103a461086d565b6040516103b191906141aa565b60405180910390f35b6103cd6103c8366004613ce3565b6108a5565b6040516103b19190614172565b6103ed6103e8366004613d61565b6108ae565b6040516103b1919061422b565b6103ed610408366004613bad565b6108c6565b6104156108e4565b6040516103b19190614105565b6103ed6108f3565b6103ed6108f9565b6103cd610440366004613c05565b6108ff565b61039a610453366004613d61565b610909565b61039a610466366004613d61565b610a53565b61039a610479366004613ce3565b610b8b565b610486610c0b565b6040516103b19190614297565b6103ed6104a1366004613bad565b610c10565b61039a6104b4366004613bad565b610c2e565b6103cd6104c7366004613bad565b610d7c565b6104df6104da366004613bcb565b610d99565b6040516103b1919061418e565b6103ed610dcc565b61039a610502366004613bad565b610dd2565b6103ed610515366004613d9d565b610ec5565b6103ed610ef5565b61052a610f18565b6040516103b19190614180565b610415610f27565b6103ed61054d366004613bad565b610f4c565b6103ed610560366004613d61565b610f6a565b6103ed610573366004613bad565b610f7f565b6103cd610586366004613d61565b610f9d565b61052a610fb0565b61039a610fbf565b6103ed6105a9366004613bad565b61101d565b6103ed6105bc366004613bad565b61105d565b6103ed611078565b6103a461107e565b6104df6105df366004613bad565b61109c565b61039a6105f2366004613d61565b611101565b6103ed6111cf565b6103ed61060d366004613bcb565b6111d5565b6103ed610620366004613d9d565b611204565b6103ed610633366004613bad565b61132a565b6103ed611341565b61039a61064e366004613d61565b6113cb565b61039a610661366004613dbc565b6114a3565b6103ed610674366004613ce3565b6115d7565b61039a610687366004613cb3565b61161b565b6103ed61069a366004613d61565b6118b6565b6103ed6118cb565b6103cd6106b5366004613bad565b6118d1565b61039a6106c8366004613d9d565b6118f2565b6103ed6106db366004613d61565b6119ee565b6103ed6103c8366004613bcb565b61039a6106fc366004613d61565b611a79565b6103ed61070f366004613d61565b611b37565b61039a611c29565b6103ed61072a366004613bad565b611cdc565b6103ed611cf7565b6103ed610745366004613d61565b611cfd565b6001600160a01b0384166107795760405162461bcd60e51b81526004016107709061420b565b60405180910390fd5b6001600160a01b03831661079f5760405162461bcd60e51b8152600401610770906141cb565b6107c38483836040518060600160405280602381526020016143a360239139611d0f565b6107ce838383611dba565b336001600160a01b038516148015906107f257506000196107ef85336111d5565b14155b1561081b5761081b8433836040518060600160405280602481526020016143ea60249139611e61565b81836001600160a01b0316856001600160a01b03167f0f1dbb1ccbe57a1590c7baad7b01d581b730c9ebc535dcde4345e6db424063d88460405161085f919061422b565b60405180910390a450505050565b60408051808201909152601881527f44796e616d69632053657420446f6c6c6172205374616b65000000000000000060208201525b90565b60005b92915050565b6000818152600d60205260409020600201545b919050565b6001600160a01b03166000908152600e602052604090206001015490565b600b546001600160a01b031690565b60035490565b60065490565b60005b9392505050565b3361095060025b6109198361109c565b600281111561092457fe5b1415692832b936b4b9b9b4b7b760b11b72139bdd08199c9bde995b881bdc88199b1d5a59606a1b611ed2565b61095933611f27565b600061098c61096733610f7f565b6109806109733361101d565b869063ffffffff611f5116565b9063ffffffff611f8b16565b90506109983382611fcd565b6109ba8160405180606001604052806022815260200161440e60229139612029565b6109fa33846040518060400160405280601d81526020017f426f6e64696e673a20696e73756666696369656e742062616c616e6365000000815250612044565b337f93530ac0ee8c50e696e13c5ac62355d0c0ba4bd943620d5bda1eb08b64ae7512610a356001610a29611078565b9063ffffffff6120ef16565b8584604051610a4693929190614247565b60405180910390a2505050565b33610a9b60015b610a638361109c565b6002811115610a6e57fe5b1415692832b936b4b9b9b4b7b760b11b73139bdd08199c9bde995b881bdc881b1bd8dad95960621b611ed2565b610aa3610f18565b6001600160a01b031663a9059cbb33846040518363ffffffff1660e01b8152600401610ad092919061413b565b602060405180830381600087803b158015610aea57600080fd5b505af1158015610afe573d6000803e3d6000fd5b505050506040513d601f19601f82011682018060405250610b229190810190613d13565b50610b4633836040518060600160405280602481526020016143c660249139612114565b336001600160a01b03167f884edad9ce6fa2440d8a54cc123490eb96d2768479d49ff9c7366125a942436483604051610b7f919061422b565b60405180910390a25050565b6001600160a01b038216610bb15760405162461bcd60e51b8152600401610770906141fb565b610bbc338383612173565b816001600160a01b0316336001600160a01b03167f8ff27e6b95060c1ca851e7c2c28af8b413eb1a8bcb637b0290da9543a709cce383604051610bff919061422b565b60405180910390a35050565b601290565b6001600160a01b03166000908152600e602052604090206003015490565b610c5a610c3a82610d7c565b6523b7bb32b93760d11b6c139bdd081b9bdb5a5b985d1959609a1b611ed2565b6000610c826001610c76610c6d856108c6565b610a2986611cdc565b9063ffffffff6121a316565b9050610cad81610c90611078565b116523b7bb32b93760d11b68139bdd08195b99195960ba1b611ed2565b610d04610ce1610cbb6121e5565b610cd5610cc78661132a565b610cd086611cfd565b612207565b9063ffffffff61223616565b6523b7bb32b93760d11b6f4d75737420686176652071756f726f6d60801b611ed2565b610d39610d1083610c10565b610d1984610f4c565b116523b7bb32b93760d11b6b139bdd08185c1c1c9bdd995960a21b611ed2565b610d428261224c565b6040516001600160a01b0383169033907f815ca4497ab9fc80c76f210e6e842a5e198e195aa136034557eee144f790e7bb90600090a35050565b6001600160a01b03166000908152600e6020526040902054151590565b6001600160a01b038082166000908152600e60209081526040808320938616835260049093019052205460ff1692915050565b60045490565b610dde610c3a82610d7c565b610e1c610df4610dec612338565b610a29611078565b610dfc610ef5565b116523b7bb32b93760d11b6b115c1bd8da081cde5b98d95960a21b611ed2565b610e6e610e3e610e2a61233d565b610cd5610e3685610f4c565b610cd06108f3565b6523b7bb32b93760d11b7f4d7573742068617665207375706572206d616a6f726974790000000000000000611ed2565b610e83610e7a82610c10565b610d1983610f4c565b610e8c8161224c565b6040516001600160a01b0382169033907f815ca4497ab9fc80c76f210e6e842a5e198e195aa136034557eee144f790e7bb90600090a350565b6000828152600d60205260408120600301805483908110610ee257fe5b9060005260206000200154905092915050565b6000610eff613b0f565b610f0761235f565b9050610f128161238e565b91505090565b6009546001600160a01b031690565b7f360894a13ba1a3210667c828492db98dca3e2076cc3735a920a3ca505d382bbc5490565b6001600160a01b03166000908152600e602052604090206002015490565b6000908152600d602052604090206003015490565b6001600160a01b03166000908152600c602052604090206001015490565b6000610fa76123b0565b90911115919050565b600a546001600160a01b031690565b610ff8610fcd6106b5610f27565b15692832b936b4b9b9b4b7b760b11b72105b1c9958591e481a5b9a5d1a585b1a5e9959606a1b611ed2565b611008611003610f27565b6123b5565b61101b3368056bc75e2d631000006123dc565b565b6000806110286108f3565b9050806110395760009150506108c1565b6109028161098061104986610f7f565b611051610dcc565b9063ffffffff611f5116565b6001600160a01b03166000908152600c602052604090205490565b60025490565b6040805180820190915260048152635353445360e01b602082015290565b60006110a6611078565b6001600160a01b0383166000908152600c602052604090206005015411156110d0575060026108c1565b6001600160a01b0382166000908152600c60205260409020600401546110f4611078565b10156108a55760016108a8565b3361110c6002610910565b61111533611f27565b600061111f610dcc565b1561113f5761113a61112f610dcc565b6109806109736108f3565b611157565b61115761114a612488565b849063ffffffff611f5116565b9050611163338261248f565b61116c8361252b565b61118f33846040518060600160405280602481526020016143c660249139612114565b337f44002fdef5a0c2d2e4e05572e9780b95aef97e0e93ffd7cc076b09fa78ff2b466111be6001610a29611078565b8386604051610a4693929190614247565b60085490565b6001600160a01b039182166000908152600c602090815260408083209390941682526003909201909152205490565b60008061120f61235f565b60400151428161121b57fe5b069050600084611229611078565b0390506000611236612544565b8261123f612544565b0361124861254a565b028161125057fe5b0490508083111561126757600093505050506108a8565b61126f613b30565b6112c2604051806020016040528085611286612544565b038152506112b660405180602001604052806112a0612544565b90526112aa612550565b9063ffffffff61257216565b9063ffffffff6125a016565b90506112cc613b30565b6040805160208082018352878603825282519081019092528482526112fc916112b690859063ffffffff61257216565b604080516020810190915288815290915061131d908263ffffffff6125a016565b5198975050505050505050565b60006108a861133883610c10565b610a2984610f4c565b60006113c661134e611cf7565b611356610f18565b6001600160a01b03166318160ddd6040518163ffffffff1660e01b815260040160206040518083038186803b15801561138e57600080fd5b505afa1580156113a2573d6000803e3d6000fd5b505050506040513d601f19601f82011682018060405250610c769190810190613d7f565b905090565b336113d66001610a5a565b6113de610f18565b6001600160a01b03166323b872dd3330856040518463ffffffff1660e01b815260040161140d93929190614113565b602060405180830381600087803b15801561142757600080fd5b505af115801561143b573d6000803e3d6000fd5b505050506040513d601f19601f8201168201806040525061145f9190810190613d13565b5061146a3383611fcd565b336001600160a01b03167fe1fffcc4923d04b559f4d29a8bfc6cda04eb5b0d3c460751c2402c5c5cc9109c83604051610b7f919061422b565b60026114b184610c76611078565b10156114cf5760405162461bcd60e51b81526004016107709061421b565b6114f33384846040518060600160405280602381526020016143a360239139611d0f565b60006114ff8484611204565b905080830361153b838210156513585c9ad95d60d21b7f496e73756666696369656e74206f757470757420616d6f756e74000000000000611ed2565b61154533826125ce565b811561158e5784336001600160a01b03167f1cd1213d4276c260e84170b4a39025dc8398fbf744edee0709261769b456b94b84604051611585919061422b565b60405180910390a35b84336001600160a01b03167f46e9903ae8ac9e9f0c9bc321b05965c1c036e7d4783758703f5cdfc4133c51b6836040516115c8919061422b565b60405180910390a35050505050565b60006115e2826118b6565b6115ee575060006108a8565b506001600160a01b03919091166000908152600c6020908152604080832093835260029093019052205490565b336116266001610a5a565b611657600061163433610f7f565b116523b7bb32b93760d11b6e4d7573742068617665207374616b6560881b611ed2565b61166083610d7c565b611703576116a061167033612678565b6523b7bb32b93760d11b7f4e6f7420656e6f756768207374616b6520746f2070726f706f73650000000000611ed2565b6116b1836116ac6126c0565b6126c5565b6116b9611078565b336001600160a01b0385167fd15e38a680a427478883cd2d32eb664cb6bb2090b0126a23ebaf3e3784b8c56b6116ed6126c0565b6040516116fa919061422b565b60405180910390a45b611733611712610c6d856108c6565b61171a611078565b106523b7bb32b93760d11b64115b99195960da1b611ed2565b600061173e33610f7f565b9050600061174c3386610d99565b905080600281111561175a57fe5b84600281111561176657fe5b14156117735750506118b1565b600281600281111561178157fe5b14156117c7576117c785836040518060400160405280601b81526020017f476f7665726e3a20496e73756666696369656e742072656a65637400000000008152506126f1565b60018160028111156117d557fe5b141561181b5761181b85836040518060400160405280601c81526020017f476f7665726e3a20496e73756666696369656e7420617070726f766500000000815250612742565b600284600281111561182957fe5b1415611839576118398583612793565b600184600281111561184757fe5b14156118575761185785836127e2565b611862338686612831565b61186c338661287b565b846001600160a01b0316336001600160a01b03167fbe50c78cbc15b0864819aadea36c6499da421b33c38e2ef19bebda583c708c7886856040516115c892919061419c565b505050565b6000908152600d602052604090206001015490565b60055490565b6001600160a01b03166000908152600e602052604090206005015460ff1690565b600261190083610c76611078565b101561191e5760405162461bcd60e51b81526004016107709061421b565b6119423383836040518060600160405280602381526020016143a360239139611d0f565b600061194e8383611204565b905080820361195d33826125ce565b81156119a65783336001600160a01b03167f1cd1213d4276c260e84170b4a39025dc8398fbf744edee0709261769b456b94b8460405161199d919061422b565b60405180910390a35b83336001600160a01b03167f46e9903ae8ac9e9f0c9bc321b05965c1c036e7d4783758703f5cdfc4133c51b6836040516119e0919061422b565b60405180910390a350505050565b60006108a86119fb610f18565b6001600160a01b03166318160ddd6040518163ffffffff1660e01b815260040160206040518083038186803b158015611a3357600080fd5b505afa158015611a47573d6000803e3d6000fd5b505050506040513d601f19601f82011682018060405250611a6b9190810190613d7f565b611a73611cf7565b846128dc565b33611a846002610910565b611a8d33611f27565b6000611a9a61112f610dcc565b9050611aa63384611fcd565b611ac88360405180606001604052806022815260200161440e60229139612029565b611b0833826040518060400160405280601d81526020017f426f6e64696e673a20696e73756666696369656e742062616c616e6365000000815250612044565b337f93530ac0ee8c50e696e13c5ac62355d0c0ba4bd943620d5bda1eb08b64ae75126111be6001610a29611078565b6000611b70600083116513585c9ad95d60d21b7f4d757374207075726368617365206e6f6e2d7a65726f20616d6f756e74000000611ed2565b611ba082611b7c611cf7565b10156513585c9ad95d60d21b6e139bdd08195b9bdd59da081919589d608a1b611ed2565b6000611baa611078565b90506000611bc7611bba856119ee565b859063ffffffff6120ef16565b9050611bd33385612909565b611bde338383611dba565b81336001600160a01b03167fbce252db29f761f815dc2e9ea60005af065efba6eb619d2a0b2a113fdeb614148684604051611c1a929190614239565b60405180910390a39392505050565b6000611c33612a1a565b9050611c3f33826123dc565b336001600160a01b03167fbb4f656853bc420ad6e4321622c07eefb4ed40e3f91b35553ce14a6dff4c098182604051611c78919061422b565b60405180910390a2611c88612a27565b611c90612a72565b611c98612b05565b611ca0611078565b7fc30b728d1c19e5db3678b8ea9e9a063a5655071e1a325c2f7fdbca48baa906004342604051611cd1929190614239565b60405180910390a250565b6001600160a01b03166000908152600e602052604090205490565b60075490565b6000908152600d602052604090205490565b6001600160a01b0384166000908152600c60209081526040808320868452600201909152902054611d4790838363ffffffff612b5f16565b6001600160a01b0385166000908152600c60209081526040808320878452600201825280832093909355600d90522060010154611d8b90838363ffffffff612b5f16565b6000848152600d6020526040902060010155600854611db190838363ffffffff612b5f16565b60085550505050565b6001600160a01b0383166000908152600c60209081526040808320858452600201909152902054611df1908263ffffffff6120ef16565b6001600160a01b0384166000908152600c60209081526040808320868452600201825280832093909355600d90522060010154611e34908263ffffffff6120ef16565b6000838152600d6020526040902060010155600854611e59908263ffffffff6120ef16565b600855505050565b6001600160a01b038085166000908152600c602090815260408083209387168352600390930190522054611e9c90838363ffffffff612b5f16565b6001600160a01b039485166000908152600c60209081526040808320969097168252600390950190945293909220929092555050565b826118b157611ee082612b8b565b6101d160f51b611eef83612b8b565b604051602001611f01939291906140d4565b60408051601f198184030181529082905262461bcd60e51b8252610770916004016141aa565b611f32610dec612c0b565b6001600160a01b039091166000908152600c6020526040902060040155565b600082611f60575060006108a8565b82820282848281611f6d57fe5b04146109025760405162461bcd60e51b8152600401610770906141db565b600061090283836040518060400160405280601a81526020017f536166654d6174683a206469766973696f6e206279207a65726f000000000000815250612c10565b6001600160a01b0382166000908152600c6020526040902054611ff6908263ffffffff6120ef16565b6001600160a01b0383166000908152600c6020526040902055600554612022908263ffffffff6120ef16565b6005555050565b60045461203d90838363ffffffff612b5f16565b6004555050565b6001600160a01b0383166000908152600c602052604090206001015461207190838363ffffffff612b5f16565b6001600160a01b0384166000908152600c60205260409020600101556003546120a190838363ffffffff612b5f16565b6003556040516000906001600160a01b038516907fddf252ad1be2c89b69c2b068fc378daa952ba7f163c4a11628f55a4df523b3ef906120e290869061422b565b60405180910390a3505050565b6000828201838110156109025760405162461bcd60e51b8152600401610770906141bb565b6001600160a01b0383166000908152600c602052604090205461213e90838363ffffffff612b5f16565b6001600160a01b0384166000908152600c602052604090205560055461216b90838363ffffffff612b5f16565b600555505050565b6001600160a01b039283166000908152600c60209081526040808320949095168252600390930190925291902055565b600061090283836040518060400160405280601e81526020017f536166654d6174683a207375627472616374696f6e206f766572666c6f770000815250612b5f565b6121ed613b30565b506040805160208101909152670494654067e10000815290565b61220f613b30565b604051806020016040528061222d85670de0b6b3a764000086612c47565b90529392505050565b60006122428383612c5d565b6002149392505050565b61225581612c8f565b60408051600481526024810182526020810180516001600160e01b031663204a7f0760e21b17905290516000916060916001600160a01b03851691612299916140c8565b600060405180830381855af49150503d80600081146122d4576040519150601f19603f3d011682016040523d82523d6000602084013e6122d9565b606091505b50915091508181906122fe5760405162461bcd60e51b815260040161077091906141aa565b506040516001600160a01b038416907fbc7cd75a20ee27fd9adebab32041f755214dbc6bffa90cc0225b39da2e5c2d3b90600090a2505050565b600690565b612345613b30565b506040805160208101909152670928ca80cfc20000815290565b612367613b0f565b604051806060016040528060008152602001635ff5cfa88152602001611c20815250905090565b60006108a88260000151610a2984604001516109808660200151610c76612cd8565b60b490565b6001600160a01b03166000908152600e60205260409020600501805460ff19166001179055565b6123e4610f18565b6001600160a01b03166340c10f1983836040518363ffffffff1660e01b8152600401612411929190614164565b602060405180830381600087803b15801561242b57600080fd5b505af115801561243f573d6000803e3d6000fd5b505050506040513d601f19601f820116820180604052506124639190810190613d13565b5061246f610586611078565b61247c5761247c81612cdc565b612484612cf9565b5050565b620f424090565b6001600160a01b0382166000908152600c60205260409020600101546124bb908263ffffffff6120ef16565b6001600160a01b0383166000908152600c60205260409020600101556003546124ea908263ffffffff6120ef16565b6003556040516001600160a01b038316906000907fddf252ad1be2c89b69c2b068fc378daa952ba7f163c4a11628f55a4df523b3ef90610bff90859061422b565b60045461253e908263ffffffff6120ef16565b60045550565b61021c90565b610e1090565b612558613b30565b5060408051602081019091526706f05b59d3b20000815290565b61257a613b30565b604051806020016040528061222d8560000151670de0b6b3a76400008660000151612c47565b6125a8613b30565b604051806020016040528061222d85600001518560000151670de0b6b3a7640000612c47565b6125d6610f18565b6001600160a01b031663a9059cbb83836040518363ffffffff1660e01b8152600401612603929190614164565b602060405180830381600087803b15801561261d57600080fd5b505af1158015612631573d6000803e3d6000fd5b505050506040513d601f19601f820116820180604052506126559190810190613d13565b5061247c816040518060600160405280602a8152602001614458602a9139612dcc565b6000612682610dcc565b61268e575060006108c1565b612696613b30565b6126a2610e3684610f7f565b90506109026126b360016064612207565b829063ffffffff61223616565b602490565b6126cd611078565b6001600160a01b039092166000908152600e60205260409020918255600190910155565b6001600160a01b0383166000908152600e602052604090206003015461271e90838363ffffffff612b5f16565b6001600160a01b039093166000908152600e60205260409020600301929092555050565b6001600160a01b0383166000908152600e602052604090206002015461276f90838363ffffffff612b5f16565b6001600160a01b039093166000908152600e60205260409020600201929092555050565b6001600160a01b0382166000908152600e60205260409020600301546127bf908263ffffffff6120ef16565b6001600160a01b039092166000908152600e602052604090206003019190915550565b6001600160a01b0382166000908152600e602052604090206002015461280e908263ffffffff6120ef16565b6001600160a01b039092166000908152600e602052604090206002019190915550565b6001600160a01b038083166000908152600e6020908152604080832093871683526004909301905220805482919060ff1916600183600281111561287157fe5b0217905550505050565b6001600160a01b0382166000908152600c6020526040812060050154906128ad6128a4846108c6565b610a2985611cdc565b9050818111156128d6576001600160a01b0384166000908152600c602052604090206005018190555b50505050565b60006129016128fc836128f0878787612de7565b9063ffffffff612f5416565b612f7b565b949350505050565b612911610f18565b6001600160a01b03166323b872dd8330846040518463ffffffff1660e01b815260040161294093929190614156565b602060405180830381600087803b15801561295a57600080fd5b505af115801561296e573d6000803e3d6000fd5b505050506040513d601f19601f820116820180604052506129929190810190613d13565b5061299b610f18565b6001600160a01b03166342966c68826040518263ffffffff1660e01b81526004016129c6919061422b565b600060405180830381600087803b1580156129e057600080fd5b505af11580156129f4573d6000803e3d6000fd5b5050505061247c8160405180606001604052806028815260200161443060289139612f98565b6802b5e3af16b188000090565b612a62612a32611078565b612a3a610ef5565b1166426f6e64696e6760c81b720a6e8d2d8d840c6eae4e4cadce840cae0dec6d606b1b611ed2565b612a6a612fb3565b61101b612fda565b612a7a613b30565b612a82612ff3565b9050612a8f6126b36130bb565b15612aab57612a9c6130dd565b612aa5816130e4565b5061101b565b612ac3612ab66130bb565b829063ffffffff61319a16565b15612ad157612aa5816131ae565b612ad9611078565b6040517fff7db5a0dc69b02c191ba632db46961b7d0daa1bd30709ddba9b80ad0a15d2c090600090a250565b60005b612b13610560611078565b811015612b3b57612b33612b2e612b28611078565b83610ec5565b613228565b600101612b08565b506000612b49610dec612544565b9050612b5c612b56611078565b826132d4565b50565b60008184841115612b835760405162461bcd60e51b815260040161077091906141aa565b505050900390565b60608082604051602001612b9f91906140b3565b60408051601f19818403018152919052905060205b8015612bf457815160001990910190829082908110612bcf57fe5b01602001516001600160f81b03191615612bef57600101815290506108c1565b612bb4565b505060408051600081526020810190915292915050565b601890565b60008183612c315760405162461bcd60e51b815260040161077091906141aa565b506000838581612c3d57fe5b0495945050505050565b600061290182610980868663ffffffff611f5116565b805182516000911415612c72575060016108a8565b8151835111612c82576000612c85565b60025b60ff169392505050565b612c9881613306565b612cb45760405162461bcd60e51b8152600401610770906141eb565b7f360894a13ba1a3210667c828492db98dca3e2076cc3735a920a3ca505d382bbc55565b4290565b612ce58161330c565b612cf5612cf0613325565b613347565b612b5c5b61101b612d1a612d076108f9565b610a29612d126118cb565b610a29610dcc565b612d22610f18565b6001600160a01b03166370a08231306040518263ffffffff1660e01b8152600401612d4d9190614105565b60206040518083038186803b158015612d6557600080fd5b505afa158015612d79573d6000803e3d6000fd5b505050506040513d601f19601f82011682018060405250612d9d9190810190613d7f565b10156a21b7b6b83a3937b63632b960a91b74496e636f6e73697374656e742062616c616e63657360581b611ed2565b600654612de090838363ffffffff612b5f16565b6006555050565b612def613b30565b612df7613b30565b612e018486612207565b9050612e0b613b30565b612e13613325565b90506000612e27878663ffffffff6121a316565b90506000612e3b878763ffffffff6121a316565b9050612e45613b30565b612e4f8284612207565b9050612e61858563ffffffff61223616565b15612f3d57612e76818563ffffffff61223616565b15612e9057612e84846133fa565b95505050505050610902565b612e98613b30565b612ea28286613446565b9050612eac613b30565b612ebc868463ffffffff6134a316565b9050612ec6613b30565b612ecf876133fa565b9050612ed9613b30565b612ee9898963ffffffff6134a316565b9050612f2d612efe848363ffffffff6134cc16565b6112aa612f11858563ffffffff6125a016565b612f21888863ffffffff6125a016565b9063ffffffff6134cc16565b9950505050505050505050610902565b612f478186613446565b9998505050505050505050565b612f5c613b30565b60408051602081019091528351819061222d908563ffffffff611f5116565b80516000906108a890670de0b6b3a764000063ffffffff611f8b16565b600754612fac90838363ffffffff612b5f16565b6007555050565b612fbb6108f3565b600d6000612fc7611078565b8152602081019190915260400160002055565b600254612fee90600163ffffffff6120ef16565b600255565b612ffb613b30565b613003613b30565b600061300d610fb0565b6001600160a01b031663d4a3e9d76040518163ffffffff1660e01b81526004016040805180830381600087803b15801561304657600080fd5b505af115801561305a573d6000803e3d6000fd5b505050506040513d601f19601f8201168201806040525061307e9190810190613d31565b915091506130926105866001610c76611078565b156130a85761309f6134f5565b925050506108a2565b806130b55761309f6130bb565b50905090565b6130c3613b30565b506040805160208101909152670de0b6b3a7640000815290565b6000600755565b6130ec613b30565b6131176131126130fa613517565b6112aa6131056130bb565b869063ffffffff6134a316565b613539565b905060006131366128fc613129611341565b849063ffffffff612f5416565b905060008060006131468461356d565b925092509250613154611078565b86516040517f32fcaa1e76ed9517f4749d8ec9a77dd5e7329456d740b9bf9665d900eef5e2839161318a91879087908790614262565b60405180910390a2505050505050565b60006131a68383612c5d565b159392505050565b6131b6613b30565b6131d1613112836131c56130bb565b9063ffffffff6134a316565b905060006131e36128fc613129611341565b90506131ee81612cdc565b6131f6611078565b83516040517f5e139d4b8080a4a00dcc151e8217694aeebae893936326aa22096924a990667791610a46918590614239565b6000613233826118b6565b905060008080613242856136d9565b600061324c6108f9565b905060006132586111cf565b90508082111561328d57613272828263ffffffff6121a316565b945061327d8561371c565b6132868561356d565b9095509350505b867f753df65b37159bf237ae1fca97ba1bd57cf83bc9498f271a514a4d7bafe87bda878787876040516132c39493929190614262565b60405180910390a250505050505050565b6000828152600d6020908152604080832060020184905592825291812060030180546001810182559082529190200155565b3b151590565b60075461331f908263ffffffff6120ef16565b60075550565b61332d613b30565b5060408051602081019091526704db732547630000815290565b60006133c76128fc613357610f18565b6001600160a01b03166318160ddd6040518163ffffffff1660e01b815260040160206040518083038186803b15801561338f57600080fd5b505afa1580156133a3573d6000803e3d6000fd5b505050506040513d601f19601f820116820180604052506131299190810190613d7f565b905060006133d3611cf7565b9050818111156118b15760006133ef828463ffffffff6121a316565b90506128d6816137a3565b613402613b30565b6108a861341160016003612207565b6131c561343e6134346002613428886131c56130bb565b9063ffffffff6137e216565b6112b66003613838565b6112aa6130bb565b61344e613b30565b61345e838363ffffffff61386c16565b156134735761346c836133fa565b90506108a8565b61090261348260016003612207565b6131c561343e613494876131c56130bb565b6112b6613434886131c56130bb565b6134ab613b30565b604080516020810190915282518451829161222d919063ffffffff6121a316565b6134d4613b30565b604080516020810190915282518451829161222d919063ffffffff6120ef16565b6134fd613b30565b50604080516020810190915267155f2dd73a1a0000815290565b61351f613b30565b50604080516020810190915267a688906bd8b00000815290565b613541613b30565b613549613b30565b613551613873565b9050613563838263ffffffff61223616565b6108a85782610902565b600080808080808061357d6108f9565b905060006135896111cf565b905080821015613646576135a3818363ffffffff6121a316565b94506135cb6135ba60646135b5613895565b6121a3565b61098087606463ffffffff611f5116565b94508885116135da57846135dc565b885b94506135fb60646109806135ee613895565b889063ffffffff611f5116565b925061360d858463ffffffff6121a316565b94506136188361389a565b6136218561392e565b613631898463ffffffff6121a316565b9850613643898663ffffffff6121a316565b98505b6000613650611cf7565b905060008a1180156136625750600081115b15613694578981116136745780613676565b895b9450613681856137a3565b6136918a8663ffffffff6121a316565b99505b61369c610dcc565b6136a557600099505b89156136b4576136b48a6139bf565b85856136c68c8763ffffffff6120ef16565b9850985098505050505050509193909250565b60006136e4826118b6565b9050806136f15750612b5c565b600854613704908263ffffffff6121a316565b600855506000908152600d6020526040812060010155565b613724610f18565b6001600160a01b03166342966c68826040518263ffffffff1660e01b815260040161374f919061422b565b600060405180830381600087803b15801561376957600080fd5b505af115801561377d573d6000803e3d6000fd5b50505050612cf5816040518060600160405280602a8152602001614458602a9139612dcc565b612cf5816040518060400160405280601c81526020017f436f6d7074726f6c6c65723a206e6f7420656e6f756768206465627400000000815250612f98565b6137ea613b30565b816137f95761346c6001613838565b613801613b30565b5060408051602081019091528351815260015b838110156138305761382682866125a0565b9150600101613814565b509392505050565b613840613b30565b60408051602081019091528061386484670de0b6b3a764000063ffffffff611f5116565b905292915050565b5190511490565b61387b613b30565b50604080516020810190915267016345785d8a0000815290565b602890565b8015612b5c576138a8610f18565b6001600160a01b03166340c10f196138be6108e4565b836040518363ffffffff1660e01b81526004016138dc929190614164565b602060405180830381600087803b1580156138f657600080fd5b505af115801561390a573d6000803e3d6000fd5b505050506040513d601f19601f820116820180604052506124849190810190613d13565b613936610f18565b6001600160a01b03166340c10f1930836040518363ffffffff1660e01b8152600401613963929190614164565b602060405180830381600087803b15801561397d57600080fd5b505af1158015613991573d6000803e3d6000fd5b505050506040513d601f19601f820116820180604052506139b59190810190613d13565b50612cf581613a5f565b613a0260006139cc610dcc565b116a21b7b6b83a3937b63632b960a91b7f43616e74206d696e7420746f20656d70747920706f6f6c000000000000000000611ed2565b6000613a216064610980613a14613895565b859063ffffffff611f5116565b90506000818311613a33576000613a43565b613a43838363ffffffff6121a316565b9050613a4e8261389a565b613a5781613a78565b6118b1612cf9565b600654613a72908263ffffffff6120ef16565b60065550565b8015612b5c57613a86610f18565b6001600160a01b03166340c10f1930836040518363ffffffff1660e01b8152600401613ab3929190614164565b602060405180830381600087803b158015613acd57600080fd5b505af1158015613ae1573d6000803e3d6000fd5b505050506040513d601f19601f82011682018060405250613b059190810190613d13565b50612b5c8161252b565b60405180606001604052806000815260200160008152602001600081525090565b6040518060200160405280600081525090565b80356108a88161436f565b80516108a881614383565b80356108a88161438c565b600060208284031215613b7657600080fd5b613b8060206142a5565b90506000613b8e8484613ba2565b82525092915050565b80356108a881614399565b80516108a881614399565b600060208284031215613bbf57600080fd5b60006129018484613b43565b60008060408385031215613bde57600080fd5b6000613bea8585613b43565b9250506020613bfb85828601613b43565b9150509250929050565b600080600060608486031215613c1a57600080fd5b6000613c268686613b43565b9350506020613c3786828701613b43565b9250506040613c4886828701613b97565b9150509250925092565b60008060008060808587031215613c6857600080fd5b6000613c748787613b43565b9450506020613c8587828801613b43565b9350506040613c9687828801613b97565b9250506060613ca787828801613b97565b91505092959194509250565b60008060408385031215613cc657600080fd5b6000613cd28585613b43565b9250506020613bfb85828601613b59565b60008060408385031215613cf657600080fd5b6000613d028585613b43565b9250506020613bfb85828601613b97565b600060208284031215613d2557600080fd5b60006129018484613b4e565b60008060408385031215613d4457600080fd5b6000613d508585613b64565b9250506020613bfb85828601613b4e565b600060208284031215613d7357600080fd5b60006129018484613b97565b600060208284031215613d9157600080fd5b60006129018484613ba2565b60008060408385031215613db057600080fd5b6000613d028585613b97565b600080600060608486031215613dd157600080fd5b6000613ddd8686613b97565b9350506020613c3786828701613b97565b613df781614312565b82525050565b613df7816142d9565b613df7816142e4565b613df7613e1b826142e9565b6108a2565b613df7613e1b826108a2565b6000613e37826142cc565b613e4181856108c1565b9350613e5181856020860161432f565b9290920192915050565b613df781614319565b613df781614324565b6000613e78826142cc565b613e8281856142d0565b9350613e9281856020860161432f565b613e9b8161435b565b9093019392505050565b6000613eb2601b836142d0565b7f536166654d6174683a206164646974696f6e206f766572666c6f770000000000815260200192915050565b6000613eeb602b836142d0565b7f4d61726b65743a20436f75706f6e207472616e7366657220746f20746865207a81526a65726f206164647265737360a81b602082015260400192915050565b6000613f386021836142d0565b7f536166654d6174683a206d756c7469706c69636174696f6e206f766572666c6f8152607760f81b602082015260400192915050565b6000613f7b603b836142d0565b7f43616e6e6f742073657420612070726f787920696d706c656d656e746174696f81527f6e20746f2061206e6f6e2d636f6e747261637420616464726573730000000000602082015260400192915050565b6000613fda602a836142d0565b7f4d61726b65743a20436f75706f6e20617070726f766520746f20746865207a65815269726f206164647265737360b01b602082015260400192915050565b6000614026602d836142d0565b7f4d61726b65743a20436f75706f6e207472616e736665722066726f6d2074686581526c207a65726f206164647265737360981b602082015260400192915050565b6000614075601b836142d0565b7f4d61726b65743a20546f6f206561726c7920746f2072656465656d0000000000815260200192915050565b613df7816108a2565b613df78161430c565b60006140bf8284613e20565b50602001919050565b60006109028284613e2c565b60006140e08286613e2c565b91506140ec8285613e0f565b6002820191506140fc8284613e2c565b95945050505050565b602081016108a88284613dfd565b606081016141218286613dee565b61412e6020830185613dfd565b61290160408301846140a1565b604081016141498285613dee565b61090260208301846140a1565b606081016141218286613dfd565b604081016141498285613dfd565b602081016108a88284613e06565b602081016108a88284613e5b565b602081016108a88284613e64565b604081016141498285613e64565b602080825281016109028184613e6d565b602080825281016108a881613ea5565b602080825281016108a881613ede565b602080825281016108a881613f2b565b602080825281016108a881613f6e565b602080825281016108a881613fcd565b602080825281016108a881614019565b602080825281016108a881614068565b602081016108a882846140a1565b6040810161414982856140a1565b6060810161425582866140a1565b61412e60208301856140a1565b6080810161427082876140a1565b61427d60208301866140a1565b61428a60408301856140a1565b6140fc60608301846140a1565b602081016108a882846140aa565b60405181810167ffffffffffffffff811182821017156142c457600080fd5b604052919050565b5190565b90815260200190565b60006108a882614300565b151590565b6001600160f01b03191690565b806108c181614365565b6001600160a01b031690565b60ff1690565b60006108a8825b60006108a8826142d9565b60006108a8826142f6565b60005b8381101561434a578181015183820152602001614332565b838111156128d65750506000910152565b601f01601f191690565b60038110612b5c57fe5b614378816142d9565b8114612b5c57600080fd5b614378816142e4565b60038110612b5c57600080fd5b614378816108a256fe4d61726b65743a20496e73756666696369656e7420636f75706f6e2062616c616e6365426f6e64696e673a20696e73756666696369656e74207374616765642062616c616e63654d61726b65743a20496e73756666696369656e7420636f75706f6e20617070726f76616c426f6e64696e673a20696e73756666696369656e7420746f74616c20626f6e646564436f6d7074726f6c6c65723a206e6f7420656e6f756768206f75747374616e64696e672064656274436f6d7074726f6c6c65723a206e6f7420656e6f7567682072656465656d61626c652062616c616e6365a365627a7a7231582033769c396164023b7702f544a31bc41f54f8f8cf792a42e552108f385720da9c6c6578706572696d656e74616cf564736f6c63430005110040",
  "source": "/*\n    Copyright 2021 Stabilized Set Dollar Devs, based on the works of the Empty Set Squad\n\n    Licensed under the Apache License, Version 2.0 (the \"License\");\n    you may not use this file except in compliance with the License.\n    You may obtain a copy of the License at\n\n    http://www.apache.org/licenses/LICENSE-2.0\n\n    Unless required by applicable law or agreed to in writing, software\n    distributed under the License is distributed on an \"AS IS\" BASIS,\n    WITHOUT WARRANTIES OR CONDITIONS OF ANY KIND, either express or implied.\n    See the License for the specific language governing permissions and\n    limitations under the License.\n*/\n\npragma solidity ^0.5.17;\npragma experimental ABIEncoderV2;\n\nimport \"@openzeppelin/contracts/math/SafeMath.sol\";\nimport \"./Market.sol\";\nimport \"./Regulator.sol\";\nimport \"./Bonding.sol\";\nimport \"./Govern.sol\";\nimport \"../Constants.sol\";\n\ncontract Implementation is State, Bonding, Market, Regulator, Govern {\n    using SafeMath for uint256;\n\n    event Advance(uint256 indexed epoch, uint256 block, uint256 timestamp);\n    event Incentivization(address indexed account, uint256 amount);\n\n    function initialize() initializer public {\n        // committer reward:\n        mintToAccount(msg.sender, 100e18); // 100 SSD to committer\n    }\n\n    function advance() external incentivized {\n        Bonding.step();\n        Regulator.step();\n        Market.step();\n\n        emit Advance(epoch(), block.number, block.timestamp);\n    }\n\n    modifier incentivized {\n        // Mint advance reward to sender\n        uint256 incentive = Constants.getAdvanceIncentive();\n        mintToAccount(msg.sender, incentive);\n        emit Incentivization(msg.sender, incentive);\n        _;\n    }\n}\n",
  "sourcePath": "/Users/apple/Desktop/dev/ssd-protocol/protocol/contracts/dao/Implementation.sol",
  "compiler": {
    "name": "solc",
    "version": "0.5.17+commit.d19bba13.Emscripten.clang"
  },
  "schemaVersion": "3.3.3",
  "updatedAt": "2021-01-06T16:53:33.089Z",
  "devdoc": {
    "methods": {}
  },
  "userdoc": {
    "methods": {
      "balanceOfStaged(address)": {
        "notice": "Account"
      },
      "dollar()": {
        "notice": "Global"
      },
      "epoch()": {
        "notice": "Epoch"
      },
      "name()": {
        "notice": "ERC20 Interface"
      },
      "recordedVote(address,address)": {
        "notice": "Governance"
      },
      "transfer(address,uint256)": {
        "notice": "ERC20 Interface"
      }
    }
  }
}