{
  "contractName": "Market",
  "abi": [
    {
      "anonymous": false,
      "inputs": [
        {
          "indexed": true,
          "internalType": "address",
          "name": "owner",
          "type": "address"
        },
        {
          "indexed": true,
          "internalType": "address",
          "name": "spender",
          "type": "address"
        },
        {
          "indexed": false,
          "internalType": "uint256",
          "name": "value",
          "type": "uint256"
        }
      ],
      "name": "CouponApproval",
      "type": "event"
    },
    {
      "anonymous": false,
      "inputs": [
        {
          "indexed": true,
          "internalType": "address",
          "name": "account",
          "type": "address"
        },
        {
          "indexed": true,
          "internalType": "uint256",
          "name": "epoch",
          "type": "uint256"
        },
        {
          "indexed": false,
          "internalType": "uint256",
          "name": "couponAmount",
          "type": "uint256"
        }
      ],
      "name": "CouponBurn",
      "type": "event"
    },
    {
      "anonymous": false,
      "inputs": [
        {
          "indexed": true,
          "internalType": "uint256",
          "name": "epoch",
          "type": "uint256"
        },
        {
          "indexed": false,
          "internalType": "uint256",
          "name": "couponsExpired",
          "type": "uint256"
        },
        {
          "indexed": false,
          "internalType": "uint256",
          "name": "lessRedeemable",
          "type": "uint256"
        },
        {
          "indexed": false,
          "internalType": "uint256",
          "name": "lessDebt",
          "type": "uint256"
        },
        {
          "indexed": false,
          "internalType": "uint256",
          "name": "newBonded",
          "type": "uint256"
        }
      ],
      "name": "CouponExpiration",
      "type": "event"
    },
    {
      "anonymous": false,
      "inputs": [
        {
          "indexed": true,
          "internalType": "address",
          "name": "account",
          "type": "address"
        },
        {
          "indexed": true,
          "internalType": "uint256",
          "name": "epoch",
          "type": "uint256"
        },
        {
          "indexed": false,
          "internalType": "uint256",
          "name": "dollarAmount",
          "type": "uint256"
        },
        {
          "indexed": false,
          "internalType": "uint256",
          "name": "couponAmount",
          "type": "uint256"
        }
      ],
      "name": "CouponPurchase",
      "type": "event"
    },
    {
      "anonymous": false,
      "inputs": [
        {
          "indexed": true,
          "internalType": "address",
          "name": "account",
          "type": "address"
        },
        {
          "indexed": true,
          "internalType": "uint256",
          "name": "epoch",
          "type": "uint256"
        },
        {
          "indexed": false,
          "internalType": "uint256",
          "name": "couponAmount",
          "type": "uint256"
        }
      ],
      "name": "CouponRedemption",
      "type": "event"
    },
    {
      "anonymous": false,
      "inputs": [
        {
          "indexed": true,
          "internalType": "address",
          "name": "from",
          "type": "address"
        },
        {
          "indexed": true,
          "internalType": "address",
          "name": "to",
          "type": "address"
        },
        {
          "indexed": true,
          "internalType": "uint256",
          "name": "epoch",
          "type": "uint256"
        },
        {
          "indexed": false,
          "internalType": "uint256",
          "name": "value",
          "type": "uint256"
        }
      ],
      "name": "CouponTransfer",
      "type": "event"
    },
    {
      "anonymous": false,
      "inputs": [
        {
          "indexed": true,
          "internalType": "address",
          "name": "from",
          "type": "address"
        },
        {
          "indexed": true,
          "internalType": "address",
          "name": "to",
          "type": "address"
        },
        {
          "indexed": false,
          "internalType": "uint256",
          "name": "value",
          "type": "uint256"
        }
      ],
      "name": "Transfer",
      "type": "event"
    },
    {
      "constant": true,
      "inputs": [
        {
          "internalType": "address",
          "name": "owner",
          "type": "address"
        },
        {
          "internalType": "address",
          "name": "spender",
          "type": "address"
        }
      ],
      "name": "allowance",
      "outputs": [
        {
          "internalType": "uint256",
          "name": "",
          "type": "uint256"
        }
      ],
      "payable": false,
      "stateMutability": "view",
      "type": "function"
    },
    {
      "constant": true,
      "inputs": [
        {
          "internalType": "address",
          "name": "owner",
          "type": "address"
        },
        {
          "internalType": "address",
          "name": "spender",
          "type": "address"
        }
      ],
      "name": "allowanceCoupons",
      "outputs": [
        {
          "internalType": "uint256",
          "name": "",
          "type": "uint256"
        }
      ],
      "payable": false,
      "stateMutability": "view",
      "type": "function"
    },
    {
      "constant": false,
      "inputs": [
        {
          "internalType": "address",
          "name": "spender",
          "type": "address"
        },
        {
          "internalType": "uint256",
          "name": "amount",
          "type": "uint256"
        }
      ],
      "name": "approve",
      "outputs": [
        {
          "internalType": "bool",
          "name": "",
          "type": "bool"
        }
      ],
      "payable": false,
      "stateMutability": "nonpayable",
      "type": "function"
    },
    {
      "constant": true,
      "inputs": [
        {
          "internalType": "address",
          "name": "candidate",
          "type": "address"
        }
      ],
      "name": "approveFor",
      "outputs": [
        {
          "internalType": "uint256",
          "name": "",
          "type": "uint256"
        }
      ],
      "payable": false,
      "stateMutability": "view",
      "type": "function"
    },
    {
      "constant": true,
      "inputs": [
        {
          "internalType": "address",
          "name": "account",
          "type": "address"
        }
      ],
      "name": "balanceOf",
      "outputs": [
        {
          "internalType": "uint256",
          "name": "",
          "type": "uint256"
        }
      ],
      "payable": false,
      "stateMutability": "view",
      "type": "function"
    },
    {
      "constant": true,
      "inputs": [
        {
          "internalType": "address",
          "name": "account",
          "type": "address"
        }
      ],
      "name": "balanceOfBonded",
      "outputs": [
        {
          "internalType": "uint256",
          "name": "",
          "type": "uint256"
        }
      ],
      "payable": false,
      "stateMutability": "view",
      "type": "function"
    },
    {
      "constant": true,
      "inputs": [
        {
          "internalType": "address",
          "name": "account",
          "type": "address"
        },
        {
          "internalType": "uint256",
          "name": "epoch",
          "type": "uint256"
        }
      ],
      "name": "balanceOfCoupons",
      "outputs": [
        {
          "internalType": "uint256",
          "name": "",
          "type": "uint256"
        }
      ],
      "payable": false,
      "stateMutability": "view",
      "type": "function"
    },
    {
      "constant": true,
      "inputs": [
        {
          "internalType": "address",
          "name": "account",
          "type": "address"
        }
      ],
      "name": "balanceOfStaged",
      "outputs": [
        {
          "internalType": "uint256",
          "name": "",
          "type": "uint256"
        }
      ],
      "payable": false,
      "stateMutability": "view",
      "type": "function"
    },
    {
      "constant": true,
      "inputs": [
        {
          "internalType": "uint256",
          "name": "epoch",
          "type": "uint256"
        }
      ],
      "name": "bootstrappingAt",
      "outputs": [
        {
          "internalType": "bool",
          "name": "",
          "type": "bool"
        }
      ],
      "payable": false,
      "stateMutability": "view",
      "type": "function"
    },
    {
      "constant": true,
      "inputs": [
        {
          "internalType": "uint256",
          "name": "epoch",
          "type": "uint256"
        }
      ],
      "name": "couponsExpiration",
      "outputs": [
        {
          "internalType": "uint256",
          "name": "",
          "type": "uint256"
        }
      ],
      "payable": false,
      "stateMutability": "view",
      "type": "function"
    },
    {
      "constant": true,
      "inputs": [],
      "name": "decimals",
      "outputs": [
        {
          "internalType": "uint8",
          "name": "",
          "type": "uint8"
        }
      ],
      "payable": false,
      "stateMutability": "view",
      "type": "function"
    },
    {
      "constant": true,
      "inputs": [],
      "name": "dollar",
      "outputs": [
        {
          "internalType": "contract IDollar",
          "name": "",
          "type": "address"
        }
      ],
      "payable": false,
      "stateMutability": "view",
      "type": "function"
    },
    {
      "constant": true,
      "inputs": [],
      "name": "epoch",
      "outputs": [
        {
          "internalType": "uint256",
          "name": "",
          "type": "uint256"
        }
      ],
      "payable": false,
      "stateMutability": "view",
      "type": "function"
    },
    {
      "constant": true,
      "inputs": [],
      "name": "epochTime",
      "outputs": [
        {
          "internalType": "uint256",
          "name": "",
          "type": "uint256"
        }
      ],
      "payable": false,
      "stateMutability": "view",
      "type": "function"
    },
    {
      "constant": true,
      "inputs": [
        {
          "internalType": "uint256",
          "name": "epoch",
          "type": "uint256"
        }
      ],
      "name": "expiringCoupons",
      "outputs": [
        {
          "internalType": "uint256",
          "name": "",
          "type": "uint256"
        }
      ],
      "payable": false,
      "stateMutability": "view",
      "type": "function"
    },
    {
      "constant": true,
      "inputs": [
        {
          "internalType": "uint256",
          "name": "epoch",
          "type": "uint256"
        },
        {
          "internalType": "uint256",
          "name": "i",
          "type": "uint256"
        }
      ],
      "name": "expiringCouponsAtIndex",
      "outputs": [
        {
          "internalType": "uint256",
          "name": "",
          "type": "uint256"
        }
      ],
      "payable": false,
      "stateMutability": "view",
      "type": "function"
    },
    {
      "constant": true,
      "inputs": [],
      "name": "implementation",
      "outputs": [
        {
          "internalType": "address",
          "name": "impl",
          "type": "address"
        }
      ],
      "payable": false,
      "stateMutability": "view",
      "type": "function"
    },
    {
      "constant": true,
      "inputs": [
        {
          "internalType": "address",
          "name": "candidate",
          "type": "address"
        }
      ],
      "name": "isInitialized",
      "outputs": [
        {
          "internalType": "bool",
          "name": "",
          "type": "bool"
        }
      ],
      "payable": false,
      "stateMutability": "view",
      "type": "function"
    },
    {
      "constant": true,
      "inputs": [
        {
          "internalType": "address",
          "name": "candidate",
          "type": "address"
        }
      ],
      "name": "isNominated",
      "outputs": [
        {
          "internalType": "bool",
          "name": "",
          "type": "bool"
        }
      ],
      "payable": false,
      "stateMutability": "view",
      "type": "function"
    },
    {
      "constant": true,
      "inputs": [],
      "name": "name",
      "outputs": [
        {
          "internalType": "string",
          "name": "",
          "type": "string"
        }
      ],
      "payable": false,
      "stateMutability": "view",
      "type": "function"
    },
    {
      "constant": true,
      "inputs": [],
      "name": "oracle",
      "outputs": [
        {
          "internalType": "contract IOracle",
          "name": "",
          "type": "address"
        }
      ],
      "payable": false,
      "stateMutability": "view",
      "type": "function"
    },
    {
      "constant": true,
      "inputs": [
        {
          "internalType": "uint256",
          "name": "epoch",
          "type": "uint256"
        }
      ],
      "name": "outstandingCoupons",
      "outputs": [
        {
          "internalType": "uint256",
          "name": "",
          "type": "uint256"
        }
      ],
      "payable": false,
      "stateMutability": "view",
      "type": "function"
    },
    {
      "constant": true,
      "inputs": [
        {
          "internalType": "address",
          "name": "candidate",
          "type": "address"
        }
      ],
      "name": "periodFor",
      "outputs": [
        {
          "internalType": "uint256",
          "name": "",
          "type": "uint256"
        }
      ],
      "payable": false,
      "stateMutability": "view",
      "type": "function"
    },
    {
      "constant": true,
      "inputs": [],
      "name": "pool",
      "outputs": [
        {
          "internalType": "address",
          "name": "",
          "type": "address"
        }
      ],
      "payable": false,
      "stateMutability": "view",
      "type": "function"
    },
    {
      "constant": true,
      "inputs": [
        {
          "internalType": "address",
          "name": "account",
          "type": "address"
        },
        {
          "internalType": "address",
          "name": "candidate",
          "type": "address"
        }
      ],
      "name": "recordedVote",
      "outputs": [
        {
          "internalType": "enum Candidate.Vote",
          "name": "",
          "type": "uint8"
        }
      ],
      "payable": false,
      "stateMutability": "view",
      "type": "function"
    },
    {
      "constant": true,
      "inputs": [
        {
          "internalType": "address",
          "name": "candidate",
          "type": "address"
        }
      ],
      "name": "rejectFor",
      "outputs": [
        {
          "internalType": "uint256",
          "name": "",
          "type": "uint256"
        }
      ],
      "payable": false,
      "stateMutability": "view",
      "type": "function"
    },
    {
      "constant": true,
      "inputs": [
        {
          "internalType": "address",
          "name": "candidate",
          "type": "address"
        }
      ],
      "name": "startFor",
      "outputs": [
        {
          "internalType": "uint256",
          "name": "",
          "type": "uint256"
        }
      ],
      "payable": false,
      "stateMutability": "view",
      "type": "function"
    },
    {
      "constant": true,
      "inputs": [
        {
          "internalType": "address",
          "name": "account",
          "type": "address"
        }
      ],
      "name": "statusOf",
      "outputs": [
        {
          "internalType": "enum Account.Status",
          "name": "",
          "type": "uint8"
        }
      ],
      "payable": false,
      "stateMutability": "view",
      "type": "function"
    },
    {
      "constant": true,
      "inputs": [],
      "name": "symbol",
      "outputs": [
        {
          "internalType": "string",
          "name": "",
          "type": "string"
        }
      ],
      "payable": false,
      "stateMutability": "view",
      "type": "function"
    },
    {
      "constant": true,
      "inputs": [],
      "name": "totalBonded",
      "outputs": [
        {
          "internalType": "uint256",
          "name": "",
          "type": "uint256"
        }
      ],
      "payable": false,
      "stateMutability": "view",
      "type": "function"
    },
    {
      "constant": true,
      "inputs": [
        {
          "internalType": "uint256",
          "name": "epoch",
          "type": "uint256"
        }
      ],
      "name": "totalBondedAt",
      "outputs": [
        {
          "internalType": "uint256",
          "name": "",
          "type": "uint256"
        }
      ],
      "payable": false,
      "stateMutability": "view",
      "type": "function"
    },
    {
      "constant": true,
      "inputs": [],
      "name": "totalCoupons",
      "outputs": [
        {
          "internalType": "uint256",
          "name": "",
          "type": "uint256"
        }
      ],
      "payable": false,
      "stateMutability": "view",
      "type": "function"
    },
    {
      "constant": true,
      "inputs": [],
      "name": "totalDebt",
      "outputs": [
        {
          "internalType": "uint256",
          "name": "",
          "type": "uint256"
        }
      ],
      "payable": false,
      "stateMutability": "view",
      "type": "function"
    },
    {
      "constant": true,
      "inputs": [],
      "name": "totalNet",
      "outputs": [
        {
          "internalType": "uint256",
          "name": "",
          "type": "uint256"
        }
      ],
      "payable": false,
      "stateMutability": "view",
      "type": "function"
    },
    {
      "constant": true,
      "inputs": [],
      "name": "totalRedeemable",
      "outputs": [
        {
          "internalType": "uint256",
          "name": "",
          "type": "uint256"
        }
      ],
      "payable": false,
      "stateMutability": "view",
      "type": "function"
    },
    {
      "constant": true,
      "inputs": [],
      "name": "totalStaged",
      "outputs": [
        {
          "internalType": "uint256",
          "name": "",
          "type": "uint256"
        }
      ],
      "payable": false,
      "stateMutability": "view",
      "type": "function"
    },
    {
      "constant": true,
      "inputs": [],
      "name": "totalSupply",
      "outputs": [
        {
          "internalType": "uint256",
          "name": "",
          "type": "uint256"
        }
      ],
      "payable": false,
      "stateMutability": "view",
      "type": "function"
    },
    {
      "constant": false,
      "inputs": [
        {
          "internalType": "address",
          "name": "recipient",
          "type": "address"
        },
        {
          "internalType": "uint256",
          "name": "amount",
          "type": "uint256"
        }
      ],
      "name": "transfer",
      "outputs": [
        {
          "internalType": "bool",
          "name": "",
          "type": "bool"
        }
      ],
      "payable": false,
      "stateMutability": "nonpayable",
      "type": "function"
    },
    {
      "constant": false,
      "inputs": [
        {
          "internalType": "address",
          "name": "sender",
          "type": "address"
        },
        {
          "internalType": "address",
          "name": "recipient",
          "type": "address"
        },
        {
          "internalType": "uint256",
          "name": "amount",
          "type": "uint256"
        }
      ],
      "name": "transferFrom",
      "outputs": [
        {
          "internalType": "bool",
          "name": "",
          "type": "bool"
        }
      ],
      "payable": false,
      "stateMutability": "nonpayable",
      "type": "function"
    },
    {
      "constant": true,
      "inputs": [
        {
          "internalType": "address",
          "name": "candidate",
          "type": "address"
        }
      ],
      "name": "votesFor",
      "outputs": [
        {
          "internalType": "uint256",
          "name": "",
          "type": "uint256"
        }
      ],
      "payable": false,
      "stateMutability": "view",
      "type": "function"
    },
    {
      "constant": true,
      "inputs": [
        {
          "internalType": "uint256",
          "name": "amount",
          "type": "uint256"
        }
      ],
      "name": "couponPremium",
      "outputs": [
        {
          "internalType": "uint256",
          "name": "",
          "type": "uint256"
        }
      ],
      "payable": false,
      "stateMutability": "view",
      "type": "function"
    },
    {
      "constant": true,
      "inputs": [
        {
          "internalType": "uint256",
          "name": "couponEpoch",
          "type": "uint256"
        },
        {
          "internalType": "uint256",
          "name": "couponAmount",
          "type": "uint256"
        }
      ],
      "name": "couponRedemptionPenalty",
      "outputs": [
        {
          "internalType": "uint256",
          "name": "",
          "type": "uint256"
        }
      ],
      "payable": false,
      "stateMutability": "view",
      "type": "function"
    },
    {
      "constant": false,
      "inputs": [
        {
          "internalType": "uint256",
          "name": "dollarAmount",
          "type": "uint256"
        }
      ],
      "name": "purchaseCoupons",
      "outputs": [
        {
          "internalType": "uint256",
          "name": "",
          "type": "uint256"
        }
      ],
      "payable": false,
      "stateMutability": "nonpayable",
      "type": "function"
    },
    {
      "constant": false,
      "inputs": [
        {
          "internalType": "uint256",
          "name": "couponEpoch",
          "type": "uint256"
        },
        {
          "internalType": "uint256",
          "name": "couponAmount",
          "type": "uint256"
        },
        {
          "internalType": "uint256",
          "name": "minOutput",
          "type": "uint256"
        }
      ],
      "name": "redeemCoupons",
      "outputs": [],
      "payable": false,
      "stateMutability": "nonpayable",
      "type": "function"
    },
    {
      "constant": false,
      "inputs": [
        {
          "internalType": "uint256",
          "name": "couponEpoch",
          "type": "uint256"
        },
        {
          "internalType": "uint256",
          "name": "couponAmount",
          "type": "uint256"
        }
      ],
      "name": "redeemCoupons",
      "outputs": [],
      "payable": false,
      "stateMutability": "nonpayable",
      "type": "function"
    },
    {
      "constant": false,
      "inputs": [
        {
          "internalType": "address",
          "name": "spender",
          "type": "address"
        },
        {
          "internalType": "uint256",
          "name": "amount",
          "type": "uint256"
        }
      ],
      "name": "approveCoupons",
      "outputs": [],
      "payable": false,
      "stateMutability": "nonpayable",
      "type": "function"
    },
    {
      "constant": false,
      "inputs": [
        {
          "internalType": "address",
          "name": "sender",
          "type": "address"
        },
        {
          "internalType": "address",
          "name": "recipient",
          "type": "address"
        },
        {
          "internalType": "uint256",
          "name": "epoch",
          "type": "uint256"
        },
        {
          "internalType": "uint256",
          "name": "amount",
          "type": "uint256"
        }
      ],
      "name": "transferCoupons",
      "outputs": [],
      "payable": false,
      "stateMutability": "nonpayable",
      "type": "function"
    }
  ],
  "bytecode": "0x608060405234801561001057600080fd5b5061247b806100206000396000f3fe608060405234801561001057600080fd5b50600436106102945760003560e01c80637dc0d1d011610167578063bc0b1df6116100ce578063d8f5413811610087578063d8f5413814610552578063dd62ed3e14610565578063e5f55c7e14610573578063f1b7cf4914610586578063fc7b9c1814610599578063ffbe3b73146105a157610294565b8063bc0b1df6146104eb578063bc7513e2146104fe578063c9aff70c14610511578063cf02377914610524578063d60b347f1461052c578063d6a9cf081461053f57610294565b80639a649edc116101205780639a649edc146104a25780639f6e1b26146104aa578063a1eb31e8146104bd578063a50cd8e7146104d0578063a6c409f1146104e3578063a9059cbb146102cc57610294565b80637dc0d1d014610451578063825ad6071461045957806386cf9f141461046c578063900cf0cf1461047f57806395d89b411461048757806397a5d5b51461048f57610294565b8063353a420c1161020b57806351adeb57116101c457806351adeb57146103e85780635c60da1b146103fd57806364668022146104055780636a39e3281461041857806370a082311461042b57806375d5024b1461043e57610294565b8063353a420c1461037f5780633a3e6c81146103925780633fbba9a6146103a557806344d96e95146103c55780634c736099146103cd5780635053e461146103e057610294565b806316f0115b1161025d57806316f0115b1461031f57806318160ddd146103345780631edbcf6c1461033c57806323b872dd146103445780632f7f889e14610357578063313ce5671461036a57610294565b80625edd371461029957806306fdde03146102ae578063095ea7b3146102cc57806310e95b6c146102ec57806315e14bf61461030c575b600080fd5b6102ac6102a7366004611dde565b6105b4565b005b6102b66106d7565b6040516102c39190612238565b60405180910390f35b6102df6102da366004611e3f565b61070e565b6040516102c3919061220e565b6102ff6102fa366004611e8d565b610717565b6040516102c391906122a9565b6102ff61031a366004611d39565b61072f565b61032761074d565b6040516102c391906121bd565b6102ff61075c565b6102ff610762565b6102df610352366004611d91565b610768565b6102ac610365366004611e3f565b610772565b6103726107f2565b6040516102c391906122c5565b6102ff61038d366004611d39565b6107f7565b6102df6103a0366004611d39565b610815565b6103b86103b3366004611d57565b610832565b6040516102c3919061222a565b6102ff610865565b6102ff6103db366004611ec9565b61086b565b6102ff61089b565b6103f06108be565b6040516102c3919061221c565b6103276108cd565b6102ff610413366004611d39565b6108f2565b6102ff610426366004611e8d565b610910565b6102ff610439366004611d39565b610925565b6102df61044c366004611e8d565b610943565b6103f0610956565b6102ff610467366004611d39565b610965565b6102ff61047a366004611d39565b6109b1565b6102ff6109cc565b6102b66109d2565b6103b861049d366004611d39565b6109f0565b6102ff610a55565b6102ff6104b8366004611d57565b610a5b565b6102ff6104cb366004611ec9565b610a8a565b6102ff6104de366004611d39565b610bb0565b6102ff610bd3565b6102ac6104f9366004611ee8565b610c69565b6102ff61050c366004611e3f565b610d9d565b6102ff61051f366004611e8d565b610de1565b6102ff610df6565b6102df61053a366004611d39565b610dfc565b6102ac61054d366004611ec9565b610e1d565b6102ff610560366004611e8d565b610f19565b6102ff6102da366004611d57565b6102ff610581366004611e8d565b610fa4565b6102ff610594366004611d39565b611096565b6102ff6110b1565b6102ff6105af366004611e8d565b6110b7565b6001600160a01b0384166105e35760405162461bcd60e51b81526004016105da90612289565b60405180910390fd5b6001600160a01b0383166106095760405162461bcd60e51b81526004016105da90612259565b61062d8483836040518060600160405280602381526020016123a0602391396110c9565b610638838383611174565b336001600160a01b0385161480159061065c57506000196106598533610a5b565b14155b15610685576106858433836040518060600160405280602481526020016123c36024913961121b565b81836001600160a01b0316856001600160a01b03167f0f1dbb1ccbe57a1590c7baad7b01d581b730c9ebc535dcde4345e6db424063d8846040516106c991906122a9565b60405180910390a450505050565b60408051808201909152601b81527f53746162696c697a65642053657420446f6c6c6172205374616b650000000000602082015290565b60005b92915050565b6000818152600d60205260409020600201545b919050565b6001600160a01b03166000908152600e602052604090206001015490565b600b546001600160a01b031690565b60035490565b60065490565b60005b9392505050565b6001600160a01b0382166107985760405162461bcd60e51b81526004016105da90612279565b6107a333838361128c565b816001600160a01b0316336001600160a01b03167f8ff27e6b95060c1ca851e7c2c28af8b413eb1a8bcb637b0290da9543a709cce3836040516107e691906122a9565b60405180910390a35050565b601290565b6001600160a01b03166000908152600e602052604090206003015490565b6001600160a01b03166000908152600e6020526040902054151590565b6001600160a01b038082166000908152600e60209081526040808320938616835260049093019052205460ff1692915050565b60045490565b6000828152600d6020526040812060030180548390811061088857fe5b9060005260206000200154905092915050565b60006108a5611cd9565b6108ad6112bc565b90506108b8816112eb565b91505090565b6009546001600160a01b031690565b7f360894a13ba1a3210667c828492db98dca3e2076cc3735a920a3ca505d382bbc5490565b6001600160a01b03166000908152600e602052604090206002015490565b6000908152600d602052604090206003015490565b6001600160a01b03166000908152600c602052604090206001015490565b600061094d61130d565b90911115919050565b600a546001600160a01b031690565b60008061097061075c565b90508061098157600091505061072a565b61076b816109a561099186610925565b610999610865565b9063ffffffff61131216565b9063ffffffff61134c16565b6001600160a01b03166000908152600c602052604090205490565b60025490565b6040805180820190915260048152635353445360e01b602082015290565b60006109fa6109cc565b6001600160a01b0383166000908152600c60205260409020600501541115610a245750600261072a565b6001600160a01b0382166000908152600c6020526040902060040154610a486109cc565b101561070e576001610711565b60085490565b6001600160a01b039182166000908152600c602090815260408083209390941682526003909201909152205490565b600080610a956112bc565b604001514281610aa157fe5b069050600084610aaf6109cc565b0390506000610abc61138e565b82610ac561138e565b03610ace611394565b0281610ad657fe5b04905080831115610aed5760009350505050610711565b610af5611cfa565b610b48604051806020016040528085610b0c61138e565b03815250610b3c6040518060200160405280610b2661138e565b9052610b3061139a565b9063ffffffff6113bc16565b9063ffffffff6113f316565b9050610b52611cfa565b604080516020808201835287860382528251908101909252848252610b8291610b3c90859063ffffffff6113bc16565b6040805160208101909152888152909150610ba3908263ffffffff6113f316565b5198975050505050505050565b6000610711610bbe836107f7565b610bc7846108f2565b9063ffffffff61142116565b6000610c64610be06110b1565b610be86108be565b6001600160a01b03166318160ddd6040518163ffffffff1660e01b815260040160206040518083038186803b158015610c2057600080fd5b505afa158015610c34573d6000803e3d6000fd5b505050506040513d601f19601f82011682018060405250610c589190810190611eab565b9063ffffffff61144616565b905090565b6002610c7784610c586109cc565b1015610c955760405162461bcd60e51b81526004016105da90612299565b610cb93384846040518060600160405280602381526020016123a0602391396110c9565b6000610cc58484610a8a565b9050808303610d01838210156513585c9ad95d60d21b7f496e73756666696369656e74206f757470757420616d6f756e74000000000000611488565b610d0b33826114e2565b8115610d545784336001600160a01b03167f1cd1213d4276c260e84170b4a39025dc8398fbf744edee0709261769b456b94b84604051610d4b91906122a9565b60405180910390a35b84336001600160a01b03167f46e9903ae8ac9e9f0c9bc321b05965c1c036e7d4783758703f5cdfc4133c51b683604051610d8e91906122a9565b60405180910390a35050505050565b6000610da882610de1565b610db457506000610711565b506001600160a01b03919091166000908152600c6020908152604080832093835260029093019052205490565b6000908152600d602052604090206001015490565b60055490565b6001600160a01b03166000908152600e602052604090206005015460ff1690565b6002610e2b83610c586109cc565b1015610e495760405162461bcd60e51b81526004016105da90612299565b610e6d3383836040518060600160405280602381526020016123a0602391396110c9565b6000610e798383610a8a565b9050808203610e8833826114e2565b8115610ed15783336001600160a01b03167f1cd1213d4276c260e84170b4a39025dc8398fbf744edee0709261769b456b94b84604051610ec891906122a9565b60405180910390a35b83336001600160a01b03167f46e9903ae8ac9e9f0c9bc321b05965c1c036e7d4783758703f5cdfc4133c51b683604051610f0b91906122a9565b60405180910390a350505050565b6000610711610f266108be565b6001600160a01b03166318160ddd6040518163ffffffff1660e01b815260040160206040518083038186803b158015610f5e57600080fd5b505afa158015610f72573d6000803e3d6000fd5b505050506040513d601f19601f82011682018060405250610f969190810190611eab565b610f9e6110b1565b84611598565b6000610fdd600083116513585c9ad95d60d21b7f4d757374207075726368617365206e6f6e2d7a65726f20616d6f756e74000000611488565b61100d82610fe96110b1565b10156513585c9ad95d60d21b6e139bdd08195b9bdd59da081919589d608a1b611488565b60006110176109cc565b9050600061103461102785610f19565b859063ffffffff61142116565b905061104033856115c5565b61104b338383611174565b81336001600160a01b03167fbce252db29f761f815dc2e9ea60005af065efba6eb619d2a0b2a113fdeb6141486846040516110879291906122b7565b60405180910390a39392505050565b6001600160a01b03166000908152600e602052604090205490565b60075490565b6000908152600d602052604090205490565b6001600160a01b0384166000908152600c6020908152604080832086845260020190915290205461110190838363ffffffff6116d616565b6001600160a01b0385166000908152600c60209081526040808320878452600201825280832093909355600d9052206001015461114590838363ffffffff6116d616565b6000848152600d602052604090206001015560085461116b90838363ffffffff6116d616565b60085550505050565b6001600160a01b0383166000908152600c602090815260408083208584526002019091529020546111ab908263ffffffff61142116565b6001600160a01b0384166000908152600c60209081526040808320868452600201825280832093909355600d905220600101546111ee908263ffffffff61142116565b6000838152600d6020526040902060010155600854611213908263ffffffff61142116565b600855505050565b6001600160a01b038085166000908152600c60209081526040808320938716835260039093019052205461125690838363ffffffff6116d616565b6001600160a01b039485166000908152600c60209081526040808320969097168252600390950190945293909220929092555050565b6001600160a01b039283166000908152600c60209081526040808320949095168252600390930190925291902055565b6112c4611cd9565b604051806060016040528060008152602001635ff865608152602001611c20815250905090565b60006107118260000151610bc784604001516109a58660200151610c58611702565b60b490565b60008261132157506000610711565b8282028284828161132e57fe5b041461076b5760405162461bcd60e51b81526004016105da90612269565b600061076b83836040518060400160405280601a81526020017f536166654d6174683a206469766973696f6e206279207a65726f000000000000815250611706565b61021c90565b610e1090565b6113a2611cfa565b5060408051602081019091526706f05b59d3b20000815290565b6113c4611cfa565b60405180602001604052806113ea8560000151670de0b6b3a7640000866000015161173d565b90529392505050565b6113fb611cfa565b60405180602001604052806113ea85600001518560000151670de0b6b3a764000061173d565b60008282018381101561076b5760405162461bcd60e51b81526004016105da90612249565b600061076b83836040518060400160405280601e81526020017f536166654d6174683a207375627472616374696f6e206f766572666c6f7700008152506116d6565b826114dd5761149682611753565b6101d160f51b6114a583611753565b6040516020016114b79392919061218c565b60408051601f198184030181529082905262461bcd60e51b82526105da91600401612238565b505050565b6114ea6108be565b6001600160a01b031663a9059cbb83836040518363ffffffff1660e01b81526004016115179291906121f3565b602060405180830381600087803b15801561153157600080fd5b505af1158015611545573d6000803e3d6000fd5b505050506040513d601f19601f820116820180604052506115699190810190611e6f565b5061158c816040518060600160405280602a815260200161240f602a91396117d3565b6115946117ee565b5050565b60006115bd6115b8836115ac8787876118c3565b9063ffffffff611a3016565b611a57565b949350505050565b6115cd6108be565b6001600160a01b03166323b872dd8330846040518463ffffffff1660e01b81526004016115fc939291906121cb565b602060405180830381600087803b15801561161657600080fd5b505af115801561162a573d6000803e3d6000fd5b505050506040513d601f19601f8201168201806040525061164e9190810190611e6f565b506116576108be565b6001600160a01b03166342966c68826040518263ffffffff1660e01b815260040161168291906122a9565b600060405180830381600087803b15801561169c57600080fd5b505af11580156116b0573d6000803e3d6000fd5b5050505061158c816040518060600160405280602881526020016123e760289139611a74565b600081848411156116fa5760405162461bcd60e51b81526004016105da9190612238565b505050900390565b4290565b600081836117275760405162461bcd60e51b81526004016105da9190612238565b50600083858161173357fe5b0495945050505050565b60006115bd826109a5868663ffffffff61131216565b606080826040516020016117679190612177565b60408051601f19818403018152919052905060205b80156117bc5781516000199091019082908290811061179757fe5b01602001516001600160f81b031916156117b7576001018152905061072a565b61177c565b505060408051600081526020810190915292915050565b6006546117e790838363ffffffff6116d616565b6006555050565b6118c161180f6117fc610762565b610bc7611807610df6565b610bc7610865565b6118176108be565b6001600160a01b03166370a08231306040518263ffffffff1660e01b815260040161184291906121bd565b60206040518083038186803b15801561185a57600080fd5b505afa15801561186e573d6000803e3d6000fd5b505050506040513d601f19601f820116820180604052506118929190810190611eab565b10156a21b7b6b83a3937b63632b960a91b74496e636f6e73697374656e742062616c616e63657360581b611488565b565b6118cb611cfa565b6118d3611cfa565b6118dd8486611a8f565b90506118e7611cfa565b6118ef611ab5565b90506000611903878663ffffffff61144616565b90506000611917878763ffffffff61144616565b9050611921611cfa565b61192b8284611a8f565b905061193d858563ffffffff611ad716565b15611a1957611952818563ffffffff611ad716565b1561196c5761196084611aed565b9550505050505061076b565b611974611cfa565b61197e8286611b45565b9050611988611cfa565b611998868463ffffffff611ba216565b90506119a2611cfa565b6119ab87611aed565b90506119b5611cfa565b6119c5898963ffffffff611ba216565b9050611a096119da848363ffffffff611bcb16565b610b306119ed858563ffffffff6113f316565b6119fd888863ffffffff6113f316565b9063ffffffff611bcb16565b995050505050505050505061076b565b611a238186611b45565b9998505050505050505050565b611a38611cfa565b6040805160208101909152835181906113ea908563ffffffff61131216565b805160009061071190670de0b6b3a764000063ffffffff61134c16565b600754611a8890838363ffffffff6116d616565b6007555050565b611a97611cfa565b60405180602001604052806113ea85670de0b6b3a76400008661173d565b611abd611cfa565b5060408051602081019091526704db732547630000815290565b6000611ae38383611bf4565b6002149392505050565b611af5611cfa565b610711611b0460016003611a8f565b611b1b611b3d611b336002611b2788611b1b611c26565b9063ffffffff611ba216565b9063ffffffff611c4816565b610b3c6003611c9e565b610b30611c26565b611b4d611cfa565b611b5d838363ffffffff611cd216565b15611b7257611b6b83611aed565b9050610711565b61076b611b8160016003611a8f565b611b1b611b3d611b9387611b1b611c26565b610b3c611b3388611b1b611c26565b611baa611cfa565b60408051602081019091528251845182916113ea919063ffffffff61144616565b611bd3611cfa565b60408051602081019091528251845182916113ea919063ffffffff61142116565b805182516000911415611c0957506001610711565b8151835111611c19576000611c1c565b60025b60ff169392505050565b611c2e611cfa565b506040805160208101909152670de0b6b3a7640000815290565b611c50611cfa565b81611c5f57611b6b6001611c9e565b611c67611cfa565b5060408051602081019091528351815260015b83811015611c9657611c8c82866113f3565b9150600101611c7a565b509392505050565b611ca6611cfa565b604080516020810190915280611cca84670de0b6b3a764000063ffffffff61131216565b905292915050565b5190511490565b60405180606001604052806000815260200160008152602001600081525090565b6040518060200160405280600081525090565b803561071181612379565b80516107118161238d565b803561071181612396565b805161071181612396565b600060208284031215611d4b57600080fd5b60006115bd8484611d0d565b60008060408385031215611d6a57600080fd5b6000611d768585611d0d565b9250506020611d8785828601611d0d565b9150509250929050565b600080600060608486031215611da657600080fd5b6000611db28686611d0d565b9350506020611dc386828701611d0d565b9250506040611dd486828701611d23565b9150509250925092565b60008060008060808587031215611df457600080fd5b6000611e008787611d0d565b9450506020611e1187828801611d0d565b9350506040611e2287828801611d23565b9250506060611e3387828801611d23565b91505092959194509250565b60008060408385031215611e5257600080fd5b6000611e5e8585611d0d565b9250506020611d8785828601611d23565b600060208284031215611e8157600080fd5b60006115bd8484611d18565b600060208284031215611e9f57600080fd5b60006115bd8484611d23565b600060208284031215611ebd57600080fd5b60006115bd8484611d2e565b60008060408385031215611edc57600080fd5b6000611e5e8585611d23565b600080600060608486031215611efd57600080fd5b6000611f098686611d23565b9350506020611dc386828701611d23565b611f23816122e0565b82525050565b611f23816122eb565b611f23611f3e826122f0565b6122fd565b611f23611f3e826122fd565b6000611f5a826122d3565b611f64818561072a565b9350611f74818560208601612332565b9290920192915050565b611f238161231c565b611f2381612327565b6000611f9b826122d3565b611fa581856122d7565b9350611fb5818560208601612332565b611fbe81612362565b9093019392505050565b6000611fd5601b836122d7565b7f536166654d6174683a206164646974696f6e206f766572666c6f770000000000815260200192915050565b600061200e602b836122d7565b7f4d61726b65743a20436f75706f6e207472616e7366657220746f20746865207a81526a65726f206164647265737360a81b602082015260400192915050565b600061205b6021836122d7565b7f536166654d6174683a206d756c7469706c69636174696f6e206f766572666c6f8152607760f81b602082015260400192915050565b600061209e602a836122d7565b7f4d61726b65743a20436f75706f6e20617070726f766520746f20746865207a65815269726f206164647265737360b01b602082015260400192915050565b60006120ea602d836122d7565b7f4d61726b65743a20436f75706f6e207472616e736665722066726f6d2074686581526c207a65726f206164647265737360981b602082015260400192915050565b6000612139601b836122d7565b7f4d61726b65743a20546f6f206561726c7920746f2072656465656d0000000000815260200192915050565b611f23816122fd565b611f2381612316565b60006121838284611f43565b50602001919050565b60006121988286611f4f565b91506121a48285611f32565b6002820191506121b48284611f4f565b95945050505050565b602081016107118284611f1a565b606081016121d98286611f1a565b6121e66020830185611f1a565b6115bd6040830184612165565b604081016122018285611f1a565b61076b6020830184612165565b602081016107118284611f29565b602081016107118284611f7e565b602081016107118284611f87565b6020808252810161076b8184611f90565b6020808252810161071181611fc8565b6020808252810161071181612001565b602080825281016107118161204e565b6020808252810161071181612091565b60208082528101610711816120dd565b602080825281016107118161212c565b602081016107118284612165565b604081016122018285612165565b60208101610711828461216e565b5190565b90815260200190565b60006107118261230a565b151590565b6001600160f01b03191690565b90565b8061072a8161236c565b6001600160a01b031690565b60ff1690565b6000610711826122e0565b600061071182612300565b60005b8381101561234d578181015183820152602001612335565b8381111561235c576000848401525b50505050565b601f01601f191690565b6003811061237657fe5b50565b612382816122e0565b811461237657600080fd5b612382816122eb565b612382816122fd56fe4d61726b65743a20496e73756666696369656e7420636f75706f6e2062616c616e63654d61726b65743a20496e73756666696369656e7420636f75706f6e20617070726f76616c436f6d7074726f6c6c65723a206e6f7420656e6f756768206f75747374616e64696e672064656274436f6d7074726f6c6c65723a206e6f7420656e6f7567682072656465656d61626c652062616c616e6365a365627a7a7231582046a00877a2c6a4a8eefa8b718eae2bead2c0556e431e1fe551743669ae65eae26c6578706572696d656e74616cf564736f6c63430005110040",
  "source": "/*\n    Copyright 2021 Stabilized Set Dollar Devs, based on the works of the Empty Set Squad\n\n    Licensed under the Apache License, Version 2.0 (the \"License\");\n    you may not use this file except in compliance with the License.\n    You may obtain a copy of the License at\n\n    http://www.apache.org/licenses/LICENSE-2.0\n\n    Unless required by applicable law or agreed to in writing, software\n    distributed under the License is distributed on an \"AS IS\" BASIS,\n    WITHOUT WARRANTIES OR CONDITIONS OF ANY KIND, either express or implied.\n    See the License for the specific language governing permissions and\n    limitations under the License.\n*/\n\npragma solidity ^0.5.17;\npragma experimental ABIEncoderV2;\n\nimport \"@openzeppelin/contracts/math/SafeMath.sol\";\nimport \"./Curve.sol\";\nimport \"./Comptroller.sol\";\nimport \"../Constants.sol\";\n\ncontract Market is Comptroller, Curve {\n    using SafeMath for uint256;\n\n    bytes32 private constant FILE = \"Market\";\n\n    event CouponExpiration(uint256 indexed epoch, uint256 couponsExpired, uint256 lessRedeemable, uint256 lessDebt, uint256 newBonded);\n    event CouponPurchase(address indexed account, uint256 indexed epoch, uint256 dollarAmount, uint256 couponAmount);\n    event CouponRedemption(address indexed account, uint256 indexed epoch, uint256 couponAmount);\n    event CouponBurn(address indexed account, uint256 indexed epoch, uint256 couponAmount);\n    event CouponTransfer(address indexed from, address indexed to, uint256 indexed epoch, uint256 value);\n    event CouponApproval(address indexed owner, address indexed spender, uint256 value);\n\n    function step() internal {\n        // Expire prior coupons\n        for (uint256 i = 0; i < expiringCoupons(epoch()); i++) {\n            expireCouponsForEpoch(expiringCouponsAtIndex(epoch(), i));\n        }\n\n        // Record expiry for current epoch's coupons\n        uint256 expirationEpoch = epoch().add(Constants.getCouponExpiration());\n        initializeCouponsExpiration(epoch(), expirationEpoch);\n    }\n\n    function expireCouponsForEpoch(uint256 epoch) private {\n        uint256 couponsForEpoch = outstandingCoupons(epoch);\n        (uint256 lessRedeemable, uint256 lessDebt, uint256 newBonded) = (0, 0, 0);\n\n        eliminateOutstandingCoupons(epoch);\n\n        uint256 totalRedeemable = totalRedeemable();\n        uint256 totalCoupons = totalCoupons();\n        if (totalRedeemable > totalCoupons) {\n            lessRedeemable = totalRedeemable.sub(totalCoupons);\n            burnRedeemable(lessRedeemable);\n            (, lessDebt, newBonded) = increaseSupply(lessRedeemable);\n        }\n\n        emit CouponExpiration(epoch, couponsForEpoch, lessRedeemable, lessDebt, newBonded);\n    }\n\n    function couponPremium(uint256 amount) public view returns (uint256) {\n        return calculateCouponPremium(dollar().totalSupply(), totalDebt(), amount);\n    }\n\n    function couponRedemptionPenalty(uint256 couponEpoch, uint256 couponAmount) public view returns (uint256) {\n        uint timeIntoEpoch = block.timestamp % Constants.getEpochStrategy().period;\n        uint couponAge = epoch() - couponEpoch;\n\n        uint couponEpochDecay = Constants.getCouponRedemptionPenaltyDecay() * (Constants.getCouponExpiration() - couponAge) / Constants.getCouponExpiration();\n\n        if(timeIntoEpoch > couponEpochDecay) {\n            return 0;\n        }\n\n        Decimal.D256 memory couponEpochInitialPenalty = Constants.getInitialCouponRedemptionPenalty().div(Decimal.D256({value: Constants.getCouponExpiration() })).mul(Decimal.D256({value: Constants.getCouponExpiration() - couponAge}));\n\n        Decimal.D256 memory couponEpochDecayedPenalty = couponEpochInitialPenalty.div(Decimal.D256({value: couponEpochDecay})).mul(Decimal.D256({value: couponEpochDecay - timeIntoEpoch}));\n\n        return Decimal.D256({value: couponAmount}).mul(couponEpochDecayedPenalty).value;\n    }\n\n    function purchaseCoupons(uint256 dollarAmount) external returns (uint256) {\n        Require.that(\n            dollarAmount > 0,\n            FILE,\n            \"Must purchase non-zero amount\"\n        );\n\n        Require.that(\n            totalDebt() >= dollarAmount,\n            FILE,\n            \"Not enough debt\"\n        );\n\n        uint256 epoch = epoch();\n        uint256 couponAmount = dollarAmount.add(couponPremium(dollarAmount));\n        burnFromAccount(msg.sender, dollarAmount);\n        incrementBalanceOfCoupons(msg.sender, epoch, couponAmount);\n\n        emit CouponPurchase(msg.sender, epoch, dollarAmount, couponAmount);\n\n        return couponAmount;\n    }\n\n    function redeemCoupons(uint256 couponEpoch, uint256 couponAmount) external {\n        require(epoch().sub(couponEpoch) >= 2, \"Market: Too early to redeem\");\n        decrementBalanceOfCoupons(msg.sender, couponEpoch, couponAmount, \"Market: Insufficient coupon balance\");\n\n        uint burnAmount = couponRedemptionPenalty(couponEpoch, couponAmount);\n        uint256 redeemAmount = couponAmount - burnAmount;\n\n        redeemToAccount(msg.sender, redeemAmount);\n\n        if(burnAmount > 0){\n            emit CouponBurn(msg.sender, couponEpoch, burnAmount);\n        }\n\n        emit CouponRedemption(msg.sender, couponEpoch, redeemAmount);\n    }\n\n    function redeemCoupons(uint256 couponEpoch, uint256 couponAmount, uint256 minOutput) external {\n        require(epoch().sub(couponEpoch) >= 2, \"Market: Too early to redeem\");\n        decrementBalanceOfCoupons(msg.sender, couponEpoch, couponAmount, \"Market: Insufficient coupon balance\");\n\n        uint burnAmount = couponRedemptionPenalty(couponEpoch, couponAmount);\n        uint256 redeemAmount = couponAmount - burnAmount;\n\n        Require.that(\n            redeemAmount >= minOutput,\n            FILE,\n            \"Insufficient output amount\"\n        );\n\n        redeemToAccount(msg.sender, redeemAmount);\n\n        if(burnAmount > 0){\n            emit CouponBurn(msg.sender, couponEpoch, burnAmount);\n        }\n\n        emit CouponRedemption(msg.sender, couponEpoch, redeemAmount);\n    }\n\n    function approveCoupons(address spender, uint256 amount) external {\n        require(spender != address(0), \"Market: Coupon approve to the zero address\");\n\n        updateAllowanceCoupons(msg.sender, spender, amount);\n\n        emit CouponApproval(msg.sender, spender, amount);\n    }\n\n    function transferCoupons(address sender, address recipient, uint256 epoch, uint256 amount) external {\n        require(sender != address(0), \"Market: Coupon transfer from the zero address\");\n        require(recipient != address(0), \"Market: Coupon transfer to the zero address\");\n\n        decrementBalanceOfCoupons(sender, epoch, amount, \"Market: Insufficient coupon balance\");\n        incrementBalanceOfCoupons(recipient, epoch, amount);\n\n        if (msg.sender != sender && allowanceCoupons(sender, msg.sender) != uint256(-1)) {\n            decrementAllowanceCoupons(sender, msg.sender, amount, \"Market: Insufficient coupon approval\");\n        }\n\n        emit CouponTransfer(sender, recipient, epoch, amount);\n    }\n}\n",
  "sourcePath": "/Users/apple/Desktop/dev/ssd-protocol/protocol/contracts/dao/Market.sol",
  "compiler": {
    "name": "solc",
    "version": "0.5.17+commit.d19bba13.Emscripten.clang"
  },
  "schemaVersion": "3.3.3",
  "updatedAt": "2021-01-07T10:55:41.759Z",
  "devdoc": {
    "methods": {}
  },
  "userdoc": {
    "methods": {
      "balanceOfStaged(address)": {
        "notice": "Account"
      },
      "dollar()": {
        "notice": "Global"
      },
      "epoch()": {
        "notice": "Epoch"
      },
      "name()": {
        "notice": "ERC20 Interface"
      },
      "recordedVote(address,address)": {
        "notice": "Governance"
      },
      "transfer(address,uint256)": {
        "notice": "ERC20 Interface"
      }
    }
  }
}