{
  "contractName": "MockBonding",
  "abi": [
    {
      "inputs": [],
      "payable": false,
      "stateMutability": "nonpayable",
      "type": "constructor"
    },
    {
      "anonymous": false,
      "inputs": [
        {
          "indexed": true,
          "internalType": "address",
          "name": "account",
          "type": "address"
        },
        {
          "indexed": false,
          "internalType": "uint256",
          "name": "start",
          "type": "uint256"
        },
        {
          "indexed": false,
          "internalType": "uint256",
          "name": "value",
          "type": "uint256"
        },
        {
          "indexed": false,
          "internalType": "uint256",
          "name": "valueUnderlying",
          "type": "uint256"
        }
      ],
      "name": "Bond",
      "type": "event"
    },
    {
      "anonymous": false,
      "inputs": [
        {
          "indexed": true,
          "internalType": "address",
          "name": "account",
          "type": "address"
        },
        {
          "indexed": false,
          "internalType": "uint256",
          "name": "value",
          "type": "uint256"
        }
      ],
      "name": "Deposit",
      "type": "event"
    },
    {
      "anonymous": false,
      "inputs": [
        {
          "indexed": true,
          "internalType": "address",
          "name": "from",
          "type": "address"
        },
        {
          "indexed": true,
          "internalType": "address",
          "name": "to",
          "type": "address"
        },
        {
          "indexed": false,
          "internalType": "uint256",
          "name": "value",
          "type": "uint256"
        }
      ],
      "name": "Transfer",
      "type": "event"
    },
    {
      "anonymous": false,
      "inputs": [
        {
          "indexed": true,
          "internalType": "address",
          "name": "account",
          "type": "address"
        },
        {
          "indexed": false,
          "internalType": "uint256",
          "name": "start",
          "type": "uint256"
        },
        {
          "indexed": false,
          "internalType": "uint256",
          "name": "value",
          "type": "uint256"
        },
        {
          "indexed": false,
          "internalType": "uint256",
          "name": "valueUnderlying",
          "type": "uint256"
        }
      ],
      "name": "Unbond",
      "type": "event"
    },
    {
      "anonymous": false,
      "inputs": [
        {
          "indexed": true,
          "internalType": "address",
          "name": "account",
          "type": "address"
        },
        {
          "indexed": false,
          "internalType": "uint256",
          "name": "value",
          "type": "uint256"
        }
      ],
      "name": "Withdraw",
      "type": "event"
    },
    {
      "constant": true,
      "inputs": [
        {
          "internalType": "address",
          "name": "owner",
          "type": "address"
        },
        {
          "internalType": "address",
          "name": "spender",
          "type": "address"
        }
      ],
      "name": "allowance",
      "outputs": [
        {
          "internalType": "uint256",
          "name": "",
          "type": "uint256"
        }
      ],
      "payable": false,
      "stateMutability": "view",
      "type": "function"
    },
    {
      "constant": true,
      "inputs": [
        {
          "internalType": "address",
          "name": "owner",
          "type": "address"
        },
        {
          "internalType": "address",
          "name": "spender",
          "type": "address"
        }
      ],
      "name": "allowanceCoupons",
      "outputs": [
        {
          "internalType": "uint256",
          "name": "",
          "type": "uint256"
        }
      ],
      "payable": false,
      "stateMutability": "view",
      "type": "function"
    },
    {
      "constant": false,
      "inputs": [
        {
          "internalType": "address",
          "name": "spender",
          "type": "address"
        },
        {
          "internalType": "uint256",
          "name": "amount",
          "type": "uint256"
        }
      ],
      "name": "approve",
      "outputs": [
        {
          "internalType": "bool",
          "name": "",
          "type": "bool"
        }
      ],
      "payable": false,
      "stateMutability": "nonpayable",
      "type": "function"
    },
    {
      "constant": true,
      "inputs": [
        {
          "internalType": "address",
          "name": "candidate",
          "type": "address"
        }
      ],
      "name": "approveFor",
      "outputs": [
        {
          "internalType": "uint256",
          "name": "",
          "type": "uint256"
        }
      ],
      "payable": false,
      "stateMutability": "view",
      "type": "function"
    },
    {
      "constant": true,
      "inputs": [
        {
          "internalType": "address",
          "name": "account",
          "type": "address"
        }
      ],
      "name": "balanceOf",
      "outputs": [
        {
          "internalType": "uint256",
          "name": "",
          "type": "uint256"
        }
      ],
      "payable": false,
      "stateMutability": "view",
      "type": "function"
    },
    {
      "constant": true,
      "inputs": [
        {
          "internalType": "address",
          "name": "account",
          "type": "address"
        }
      ],
      "name": "balanceOfBonded",
      "outputs": [
        {
          "internalType": "uint256",
          "name": "",
          "type": "uint256"
        }
      ],
      "payable": false,
      "stateMutability": "view",
      "type": "function"
    },
    {
      "constant": true,
      "inputs": [
        {
          "internalType": "address",
          "name": "account",
          "type": "address"
        },
        {
          "internalType": "uint256",
          "name": "epoch",
          "type": "uint256"
        }
      ],
      "name": "balanceOfCoupons",
      "outputs": [
        {
          "internalType": "uint256",
          "name": "",
          "type": "uint256"
        }
      ],
      "payable": false,
      "stateMutability": "view",
      "type": "function"
    },
    {
      "constant": true,
      "inputs": [
        {
          "internalType": "address",
          "name": "account",
          "type": "address"
        }
      ],
      "name": "balanceOfStaged",
      "outputs": [
        {
          "internalType": "uint256",
          "name": "",
          "type": "uint256"
        }
      ],
      "payable": false,
      "stateMutability": "view",
      "type": "function"
    },
    {
      "constant": false,
      "inputs": [
        {
          "internalType": "uint256",
          "name": "value",
          "type": "uint256"
        }
      ],
      "name": "bond",
      "outputs": [],
      "payable": false,
      "stateMutability": "nonpayable",
      "type": "function"
    },
    {
      "constant": true,
      "inputs": [
        {
          "internalType": "uint256",
          "name": "epoch",
          "type": "uint256"
        }
      ],
      "name": "bootstrappingAt",
      "outputs": [
        {
          "internalType": "bool",
          "name": "",
          "type": "bool"
        }
      ],
      "payable": false,
      "stateMutability": "view",
      "type": "function"
    },
    {
      "constant": false,
      "inputs": [
        {
          "internalType": "address",
          "name": "account",
          "type": "address"
        },
        {
          "internalType": "uint256",
          "name": "amount",
          "type": "uint256"
        }
      ],
      "name": "burnFromAccountE",
      "outputs": [],
      "payable": false,
      "stateMutability": "nonpayable",
      "type": "function"
    },
    {
      "constant": false,
      "inputs": [
        {
          "internalType": "uint256",
          "name": "amount",
          "type": "uint256"
        }
      ],
      "name": "burnRedeemableE",
      "outputs": [],
      "payable": false,
      "stateMutability": "nonpayable",
      "type": "function"
    },
    {
      "constant": true,
      "inputs": [
        {
          "internalType": "uint256",
          "name": "epoch",
          "type": "uint256"
        }
      ],
      "name": "couponsExpiration",
      "outputs": [
        {
          "internalType": "uint256",
          "name": "",
          "type": "uint256"
        }
      ],
      "payable": false,
      "stateMutability": "view",
      "type": "function"
    },
    {
      "constant": false,
      "inputs": [
        {
          "internalType": "address",
          "name": "candidate",
          "type": "address"
        },
        {
          "internalType": "uint256",
          "name": "period",
          "type": "uint256"
        }
      ],
      "name": "createCandidateE",
      "outputs": [],
      "payable": false,
      "stateMutability": "nonpayable",
      "type": "function"
    },
    {
      "constant": true,
      "inputs": [],
      "name": "decimals",
      "outputs": [
        {
          "internalType": "uint8",
          "name": "",
          "type": "uint8"
        }
      ],
      "payable": false,
      "stateMutability": "view",
      "type": "function"
    },
    {
      "constant": false,
      "inputs": [
        {
          "internalType": "uint256",
          "name": "amount",
          "type": "uint256"
        }
      ],
      "name": "decreaseDebtE",
      "outputs": [],
      "payable": false,
      "stateMutability": "nonpayable",
      "type": "function"
    },
    {
      "constant": false,
      "inputs": [
        {
          "internalType": "address",
          "name": "owner",
          "type": "address"
        },
        {
          "internalType": "address",
          "name": "spender",
          "type": "address"
        },
        {
          "internalType": "uint256",
          "name": "amount",
          "type": "uint256"
        },
        {
          "internalType": "string",
          "name": "reason",
          "type": "string"
        }
      ],
      "name": "decrementAllowanceCouponsE",
      "outputs": [],
      "payable": false,
      "stateMutability": "nonpayable",
      "type": "function"
    },
    {
      "constant": false,
      "inputs": [
        {
          "internalType": "address",
          "name": "candidate",
          "type": "address"
        },
        {
          "internalType": "uint256",
          "name": "amount",
          "type": "uint256"
        },
        {
          "internalType": "string",
          "name": "reason",
          "type": "string"
        }
      ],
      "name": "decrementApproveForE",
      "outputs": [],
      "payable": false,
      "stateMutability": "nonpayable",
      "type": "function"
    },
    {
      "constant": false,
      "inputs": [
        {
          "internalType": "address",
          "name": "account",
          "type": "address"
        },
        {
          "internalType": "uint256",
          "name": "epoch",
          "type": "uint256"
        },
        {
          "internalType": "uint256",
          "name": "amount",
          "type": "uint256"
        },
        {
          "internalType": "string",
          "name": "reason",
          "type": "string"
        }
      ],
      "name": "decrementBalanceOfCouponsE",
      "outputs": [],
      "payable": false,
      "stateMutability": "nonpayable",
      "type": "function"
    },
    {
      "constant": false,
      "inputs": [
        {
          "internalType": "address",
          "name": "account",
          "type": "address"
        },
        {
          "internalType": "uint256",
          "name": "amount",
          "type": "uint256"
        },
        {
          "internalType": "string",
          "name": "reason",
          "type": "string"
        }
      ],
      "name": "decrementBalanceOfE",
      "outputs": [],
      "payable": false,
      "stateMutability": "nonpayable",
      "type": "function"
    },
    {
      "constant": false,
      "inputs": [
        {
          "internalType": "address",
          "name": "account",
          "type": "address"
        },
        {
          "internalType": "uint256",
          "name": "amount",
          "type": "uint256"
        },
        {
          "internalType": "string",
          "name": "reason",
          "type": "string"
        }
      ],
      "name": "decrementBalanceOfStagedE",
      "outputs": [],
      "payable": false,
      "stateMutability": "nonpayable",
      "type": "function"
    },
    {
      "constant": false,
      "inputs": [
        {
          "internalType": "address",
          "name": "candidate",
          "type": "address"
        },
        {
          "internalType": "uint256",
          "name": "amount",
          "type": "uint256"
        },
        {
          "internalType": "string",
          "name": "reason",
          "type": "string"
        }
      ],
      "name": "decrementRejectForE",
      "outputs": [],
      "payable": false,
      "stateMutability": "nonpayable",
      "type": "function"
    },
    {
      "constant": false,
      "inputs": [
        {
          "internalType": "uint256",
          "name": "amount",
          "type": "uint256"
        },
        {
          "internalType": "string",
          "name": "reason",
          "type": "string"
        }
      ],
      "name": "decrementTotalBondedE",
      "outputs": [],
      "payable": false,
      "stateMutability": "nonpayable",
      "type": "function"
    },
    {
      "constant": false,
      "inputs": [
        {
          "internalType": "uint256",
          "name": "amount",
          "type": "uint256"
        },
        {
          "internalType": "string",
          "name": "reason",
          "type": "string"
        }
      ],
      "name": "decrementTotalDebtE",
      "outputs": [],
      "payable": false,
      "stateMutability": "nonpayable",
      "type": "function"
    },
    {
      "constant": false,
      "inputs": [
        {
          "internalType": "uint256",
          "name": "amount",
          "type": "uint256"
        },
        {
          "internalType": "string",
          "name": "reason",
          "type": "string"
        }
      ],
      "name": "decrementTotalRedeemableE",
      "outputs": [],
      "payable": false,
      "stateMutability": "nonpayable",
      "type": "function"
    },
    {
      "constant": false,
      "inputs": [
        {
          "internalType": "uint256",
          "name": "value",
          "type": "uint256"
        }
      ],
      "name": "deposit",
      "outputs": [],
      "payable": false,
      "stateMutability": "nonpayable",
      "type": "function"
    },
    {
      "constant": true,
      "inputs": [],
      "name": "dollar",
      "outputs": [
        {
          "internalType": "contract IDollar",
          "name": "",
          "type": "address"
        }
      ],
      "payable": false,
      "stateMutability": "view",
      "type": "function"
    },
    {
      "constant": false,
      "inputs": [
        {
          "internalType": "uint256",
          "name": "epoch",
          "type": "uint256"
        }
      ],
      "name": "eliminateOutstandingCouponsE",
      "outputs": [],
      "payable": false,
      "stateMutability": "nonpayable",
      "type": "function"
    },
    {
      "constant": true,
      "inputs": [],
      "name": "epoch",
      "outputs": [
        {
          "internalType": "uint256",
          "name": "",
          "type": "uint256"
        }
      ],
      "payable": false,
      "stateMutability": "view",
      "type": "function"
    },
    {
      "constant": true,
      "inputs": [],
      "name": "epochTime",
      "outputs": [
        {
          "internalType": "uint256",
          "name": "",
          "type": "uint256"
        }
      ],
      "payable": false,
      "stateMutability": "view",
      "type": "function"
    },
    {
      "constant": true,
      "inputs": [
        {
          "internalType": "uint256",
          "name": "epoch",
          "type": "uint256"
        }
      ],
      "name": "expiringCoupons",
      "outputs": [
        {
          "internalType": "uint256",
          "name": "",
          "type": "uint256"
        }
      ],
      "payable": false,
      "stateMutability": "view",
      "type": "function"
    },
    {
      "constant": true,
      "inputs": [
        {
          "internalType": "uint256",
          "name": "epoch",
          "type": "uint256"
        },
        {
          "internalType": "uint256",
          "name": "i",
          "type": "uint256"
        }
      ],
      "name": "expiringCouponsAtIndex",
      "outputs": [
        {
          "internalType": "uint256",
          "name": "",
          "type": "uint256"
        }
      ],
      "payable": false,
      "stateMutability": "view",
      "type": "function"
    },
    {
      "constant": true,
      "inputs": [],
      "name": "implementation",
      "outputs": [
        {
          "internalType": "address",
          "name": "impl",
          "type": "address"
        }
      ],
      "payable": false,
      "stateMutability": "view",
      "type": "function"
    },
    {
      "constant": false,
      "inputs": [
        {
          "internalType": "uint256",
          "name": "amount",
          "type": "uint256"
        }
      ],
      "name": "increaseDebtE",
      "outputs": [],
      "payable": false,
      "stateMutability": "nonpayable",
      "type": "function"
    },
    {
      "constant": false,
      "inputs": [
        {
          "internalType": "address",
          "name": "candidate",
          "type": "address"
        },
        {
          "internalType": "uint256",
          "name": "amount",
          "type": "uint256"
        }
      ],
      "name": "incrementApproveForE",
      "outputs": [],
      "payable": false,
      "stateMutability": "nonpayable",
      "type": "function"
    },
    {
      "constant": false,
      "inputs": [
        {
          "internalType": "address",
          "name": "account",
          "type": "address"
        },
        {
          "internalType": "uint256",
          "name": "epoch",
          "type": "uint256"
        },
        {
          "internalType": "uint256",
          "name": "amount",
          "type": "uint256"
        }
      ],
      "name": "incrementBalanceOfCouponsE",
      "outputs": [],
      "payable": false,
      "stateMutability": "nonpayable",
      "type": "function"
    },
    {
      "constant": false,
      "inputs": [
        {
          "internalType": "address",
          "name": "account",
          "type": "address"
        },
        {
          "internalType": "uint256",
          "name": "amount",
          "type": "uint256"
        }
      ],
      "name": "incrementBalanceOfE",
      "outputs": [],
      "payable": false,
      "stateMutability": "nonpayable",
      "type": "function"
    },
    {
      "constant": false,
      "inputs": [
        {
          "internalType": "address",
          "name": "account",
          "type": "address"
        },
        {
          "internalType": "uint256",
          "name": "amount",
          "type": "uint256"
        }
      ],
      "name": "incrementBalanceOfStagedE",
      "outputs": [],
      "payable": false,
      "stateMutability": "nonpayable",
      "type": "function"
    },
    {
      "constant": false,
      "inputs": [],
      "name": "incrementEpochE",
      "outputs": [],
      "payable": false,
      "stateMutability": "nonpayable",
      "type": "function"
    },
    {
      "constant": false,
      "inputs": [
        {
          "internalType": "address",
          "name": "candidate",
          "type": "address"
        },
        {
          "internalType": "uint256",
          "name": "amount",
          "type": "uint256"
        }
      ],
      "name": "incrementRejectForE",
      "outputs": [],
      "payable": false,
      "stateMutability": "nonpayable",
      "type": "function"
    },
    {
      "constant": false,
      "inputs": [
        {
          "internalType": "uint256",
          "name": "amount",
          "type": "uint256"
        }
      ],
      "name": "incrementTotalBondedE",
      "outputs": [],
      "payable": false,
      "stateMutability": "nonpayable",
      "type": "function"
    },
    {
      "constant": false,
      "inputs": [
        {
          "internalType": "uint256",
          "name": "amount",
          "type": "uint256"
        }
      ],
      "name": "incrementTotalDebtE",
      "outputs": [],
      "payable": false,
      "stateMutability": "nonpayable",
      "type": "function"
    },
    {
      "constant": false,
      "inputs": [
        {
          "internalType": "uint256",
          "name": "amount",
          "type": "uint256"
        }
      ],
      "name": "incrementTotalRedeemableE",
      "outputs": [],
      "payable": false,
      "stateMutability": "nonpayable",
      "type": "function"
    },
    {
      "constant": false,
      "inputs": [
        {
          "internalType": "uint256",
          "name": "epoch",
          "type": "uint256"
        },
        {
          "internalType": "uint256",
          "name": "expiration",
          "type": "uint256"
        }
      ],
      "name": "initializeCouponsExpirationE",
      "outputs": [],
      "payable": false,
      "stateMutability": "nonpayable",
      "type": "function"
    },
    {
      "constant": false,
      "inputs": [
        {
          "internalType": "address",
          "name": "candidate",
          "type": "address"
        }
      ],
      "name": "initializedE",
      "outputs": [],
      "payable": false,
      "stateMutability": "nonpayable",
      "type": "function"
    },
    {
      "constant": true,
      "inputs": [
        {
          "internalType": "address",
          "name": "candidate",
          "type": "address"
        }
      ],
      "name": "isInitialized",
      "outputs": [
        {
          "internalType": "bool",
          "name": "",
          "type": "bool"
        }
      ],
      "payable": false,
      "stateMutability": "view",
      "type": "function"
    },
    {
      "constant": true,
      "inputs": [
        {
          "internalType": "address",
          "name": "candidate",
          "type": "address"
        }
      ],
      "name": "isNominated",
      "outputs": [
        {
          "internalType": "bool",
          "name": "",
          "type": "bool"
        }
      ],
      "payable": false,
      "stateMutability": "view",
      "type": "function"
    },
    {
      "constant": false,
      "inputs": [
        {
          "internalType": "address",
          "name": "account",
          "type": "address"
        },
        {
          "internalType": "uint256",
          "name": "amount",
          "type": "uint256"
        }
      ],
      "name": "mintToAccountE",
      "outputs": [],
      "payable": false,
      "stateMutability": "nonpayable",
      "type": "function"
    },
    {
      "constant": false,
      "inputs": [
        {
          "internalType": "address",
          "name": "account",
          "type": "address"
        },
        {
          "internalType": "uint256",
          "name": "amount",
          "type": "uint256"
        }
      ],
      "name": "mintToE",
      "outputs": [],
      "payable": false,
      "stateMutability": "nonpayable",
      "type": "function"
    },
    {
      "constant": true,
      "inputs": [],
      "name": "name",
      "outputs": [
        {
          "internalType": "string",
          "name": "",
          "type": "string"
        }
      ],
      "payable": false,
      "stateMutability": "view",
      "type": "function"
    },
    {
      "constant": true,
      "inputs": [],
      "name": "oracle",
      "outputs": [
        {
          "internalType": "contract IOracle",
          "name": "",
          "type": "address"
        }
      ],
      "payable": false,
      "stateMutability": "view",
      "type": "function"
    },
    {
      "constant": true,
      "inputs": [
        {
          "internalType": "uint256",
          "name": "epoch",
          "type": "uint256"
        }
      ],
      "name": "outstandingCoupons",
      "outputs": [
        {
          "internalType": "uint256",
          "name": "",
          "type": "uint256"
        }
      ],
      "payable": false,
      "stateMutability": "view",
      "type": "function"
    },
    {
      "constant": true,
      "inputs": [
        {
          "internalType": "address",
          "name": "candidate",
          "type": "address"
        }
      ],
      "name": "periodFor",
      "outputs": [
        {
          "internalType": "uint256",
          "name": "",
          "type": "uint256"
        }
      ],
      "payable": false,
      "stateMutability": "view",
      "type": "function"
    },
    {
      "constant": false,
      "inputs": [
        {
          "internalType": "address",
          "name": "account",
          "type": "address"
        },
        {
          "internalType": "address",
          "name": "candidate",
          "type": "address"
        }
      ],
      "name": "placeLockE",
      "outputs": [],
      "payable": false,
      "stateMutability": "nonpayable",
      "type": "function"
    },
    {
      "constant": true,
      "inputs": [],
      "name": "pool",
      "outputs": [
        {
          "internalType": "address",
          "name": "",
          "type": "address"
        }
      ],
      "payable": false,
      "stateMutability": "view",
      "type": "function"
    },
    {
      "constant": false,
      "inputs": [
        {
          "internalType": "address",
          "name": "account",
          "type": "address"
        },
        {
          "internalType": "address",
          "name": "candidate",
          "type": "address"
        },
        {
          "internalType": "enum Candidate.Vote",
          "name": "vote",
          "type": "uint8"
        }
      ],
      "name": "recordVoteE",
      "outputs": [],
      "payable": false,
      "stateMutability": "nonpayable",
      "type": "function"
    },
    {
      "constant": true,
      "inputs": [
        {
          "internalType": "address",
          "name": "account",
          "type": "address"
        },
        {
          "internalType": "address",
          "name": "candidate",
          "type": "address"
        }
      ],
      "name": "recordedVote",
      "outputs": [
        {
          "internalType": "enum Candidate.Vote",
          "name": "",
          "type": "uint8"
        }
      ],
      "payable": false,
      "stateMutability": "view",
      "type": "function"
    },
    {
      "constant": false,
      "inputs": [
        {
          "internalType": "address",
          "name": "account",
          "type": "address"
        },
        {
          "internalType": "uint256",
          "name": "amount",
          "type": "uint256"
        }
      ],
      "name": "redeemToAccountE",
      "outputs": [],
      "payable": false,
      "stateMutability": "nonpayable",
      "type": "function"
    },
    {
      "constant": true,
      "inputs": [
        {
          "internalType": "address",
          "name": "candidate",
          "type": "address"
        }
      ],
      "name": "rejectFor",
      "outputs": [
        {
          "internalType": "uint256",
          "name": "",
          "type": "uint256"
        }
      ],
      "payable": false,
      "stateMutability": "view",
      "type": "function"
    },
    {
      "constant": false,
      "inputs": [
        {
          "internalType": "uint256",
          "name": "percent",
          "type": "uint256"
        }
      ],
      "name": "resetDebtE",
      "outputs": [],
      "payable": false,
      "stateMutability": "nonpayable",
      "type": "function"
    },
    {
      "constant": false,
      "inputs": [
        {
          "internalType": "uint256",
          "name": "timestamp",
          "type": "uint256"
        }
      ],
      "name": "setBlockTimestamp",
      "outputs": [],
      "payable": false,
      "stateMutability": "nonpayable",
      "type": "function"
    },
    {
      "constant": false,
      "inputs": [
        {
          "internalType": "uint256",
          "name": "start",
          "type": "uint256"
        },
        {
          "internalType": "uint256",
          "name": "period",
          "type": "uint256"
        }
      ],
      "name": "setEpochParamsE",
      "outputs": [],
      "payable": false,
      "stateMutability": "nonpayable",
      "type": "function"
    },
    {
      "constant": false,
      "inputs": [],
      "name": "snapshotTotalBondedE",
      "outputs": [],
      "payable": false,
      "stateMutability": "nonpayable",
      "type": "function"
    },
    {
      "constant": true,
      "inputs": [
        {
          "internalType": "address",
          "name": "candidate",
          "type": "address"
        }
      ],
      "name": "startFor",
      "outputs": [
        {
          "internalType": "uint256",
          "name": "",
          "type": "uint256"
        }
      ],
      "payable": false,
      "stateMutability": "view",
      "type": "function"
    },
    {
      "constant": true,
      "inputs": [
        {
          "internalType": "address",
          "name": "account",
          "type": "address"
        }
      ],
      "name": "statusOf",
      "outputs": [
        {
          "internalType": "enum Account.Status",
          "name": "",
          "type": "uint8"
        }
      ],
      "payable": false,
      "stateMutability": "view",
      "type": "function"
    },
    {
      "constant": true,
      "inputs": [],
      "name": "symbol",
      "outputs": [
        {
          "internalType": "string",
          "name": "",
          "type": "string"
        }
      ],
      "payable": false,
      "stateMutability": "view",
      "type": "function"
    },
    {
      "constant": true,
      "inputs": [],
      "name": "totalBonded",
      "outputs": [
        {
          "internalType": "uint256",
          "name": "",
          "type": "uint256"
        }
      ],
      "payable": false,
      "stateMutability": "view",
      "type": "function"
    },
    {
      "constant": true,
      "inputs": [
        {
          "internalType": "uint256",
          "name": "epoch",
          "type": "uint256"
        }
      ],
      "name": "totalBondedAt",
      "outputs": [
        {
          "internalType": "uint256",
          "name": "",
          "type": "uint256"
        }
      ],
      "payable": false,
      "stateMutability": "view",
      "type": "function"
    },
    {
      "constant": true,
      "inputs": [],
      "name": "totalCoupons",
      "outputs": [
        {
          "internalType": "uint256",
          "name": "",
          "type": "uint256"
        }
      ],
      "payable": false,
      "stateMutability": "view",
      "type": "function"
    },
    {
      "constant": true,
      "inputs": [],
      "name": "totalDebt",
      "outputs": [
        {
          "internalType": "uint256",
          "name": "",
          "type": "uint256"
        }
      ],
      "payable": false,
      "stateMutability": "view",
      "type": "function"
    },
    {
      "constant": true,
      "inputs": [],
      "name": "totalNet",
      "outputs": [
        {
          "internalType": "uint256",
          "name": "",
          "type": "uint256"
        }
      ],
      "payable": false,
      "stateMutability": "view",
      "type": "function"
    },
    {
      "constant": true,
      "inputs": [],
      "name": "totalRedeemable",
      "outputs": [
        {
          "internalType": "uint256",
          "name": "",
          "type": "uint256"
        }
      ],
      "payable": false,
      "stateMutability": "view",
      "type": "function"
    },
    {
      "constant": true,
      "inputs": [],
      "name": "totalStaged",
      "outputs": [
        {
          "internalType": "uint256",
          "name": "",
          "type": "uint256"
        }
      ],
      "payable": false,
      "stateMutability": "view",
      "type": "function"
    },
    {
      "constant": true,
      "inputs": [],
      "name": "totalSupply",
      "outputs": [
        {
          "internalType": "uint256",
          "name": "",
          "type": "uint256"
        }
      ],
      "payable": false,
      "stateMutability": "view",
      "type": "function"
    },
    {
      "constant": false,
      "inputs": [
        {
          "internalType": "address",
          "name": "recipient",
          "type": "address"
        },
        {
          "internalType": "uint256",
          "name": "amount",
          "type": "uint256"
        }
      ],
      "name": "transfer",
      "outputs": [
        {
          "internalType": "bool",
          "name": "",
          "type": "bool"
        }
      ],
      "payable": false,
      "stateMutability": "nonpayable",
      "type": "function"
    },
    {
      "constant": false,
      "inputs": [
        {
          "internalType": "address",
          "name": "sender",
          "type": "address"
        },
        {
          "internalType": "address",
          "name": "recipient",
          "type": "address"
        },
        {
          "internalType": "uint256",
          "name": "amount",
          "type": "uint256"
        }
      ],
      "name": "transferFrom",
      "outputs": [
        {
          "internalType": "bool",
          "name": "",
          "type": "bool"
        }
      ],
      "payable": false,
      "stateMutability": "nonpayable",
      "type": "function"
    },
    {
      "constant": false,
      "inputs": [
        {
          "internalType": "uint256",
          "name": "value",
          "type": "uint256"
        }
      ],
      "name": "unbond",
      "outputs": [],
      "payable": false,
      "stateMutability": "nonpayable",
      "type": "function"
    },
    {
      "constant": false,
      "inputs": [
        {
          "internalType": "uint256",
          "name": "value",
          "type": "uint256"
        }
      ],
      "name": "unbondUnderlying",
      "outputs": [],
      "payable": false,
      "stateMutability": "nonpayable",
      "type": "function"
    },
    {
      "constant": false,
      "inputs": [
        {
          "internalType": "address",
          "name": "account",
          "type": "address"
        }
      ],
      "name": "unfreezeE",
      "outputs": [],
      "payable": false,
      "stateMutability": "nonpayable",
      "type": "function"
    },
    {
      "constant": false,
      "inputs": [
        {
          "internalType": "address",
          "name": "owner",
          "type": "address"
        },
        {
          "internalType": "address",
          "name": "spender",
          "type": "address"
        },
        {
          "internalType": "uint256",
          "name": "amount",
          "type": "uint256"
        }
      ],
      "name": "updateAllowanceCouponsE",
      "outputs": [],
      "payable": false,
      "stateMutability": "nonpayable",
      "type": "function"
    },
    {
      "constant": true,
      "inputs": [
        {
          "internalType": "address",
          "name": "candidate",
          "type": "address"
        }
      ],
      "name": "votesFor",
      "outputs": [
        {
          "internalType": "uint256",
          "name": "",
          "type": "uint256"
        }
      ],
      "payable": false,
      "stateMutability": "view",
      "type": "function"
    },
    {
      "constant": false,
      "inputs": [
        {
          "internalType": "uint256",
          "name": "value",
          "type": "uint256"
        }
      ],
      "name": "withdraw",
      "outputs": [],
      "payable": false,
      "stateMutability": "nonpayable",
      "type": "function"
    },
    {
      "constant": false,
      "inputs": [],
      "name": "stepE",
      "outputs": [],
      "payable": false,
      "stateMutability": "nonpayable",
      "type": "function"
    }
  ],
  "bytecode": "0x60806040523480156200001157600080fd5b5042600f5560405160009062000027906200007a565b604051809103906000f08015801562000044573d6000803e3d6000fd5b50600980546001600160a01b039283166001600160a01b031991821617909155600b805493909216921691909117905562000088565b611c11806200309283390190565b612ffa80620000986000396000f3fe608060405234801561001057600080fd5b50600436106104a15760003560e01c8063825ad6071161026d578063b16144a311610151578063d60b347f116100ce578063e0abdf6611610092578063e0abdf66146109f0578063f1b7cf4914610a03578063f35adf7e14610a16578063f7a3181814610a1e578063fc7b9c1814610a31578063ffbe3b7314610a39576104a1565b8063d60b347f14610996578063d6d8816d146109a9578063d83d3ed5146109bc578063dd62ed3e146109cf578063df9a2b1c146109dd576104a1565b8063c2aeb5fe11610115578063c2aeb5fe14610942578063c45a3e0a14610955578063c9aff70c14610968578063cc8d823c1461097b578063cf0237791461098e576104a1565b8063b16144a3146108e3578063b32a2f90146108f6578063b6b55f2514610909578063bc7513e21461091c578063c1410c021461092f576104a1565b80639be46493116101ea578063a6f37b53116101ae578063a6f37b5314610884578063a9059cbb146104c4578063a9b3cf1514610897578063adbff2be146108aa578063ae5c2381146108bd578063b11ee0e3146108d0576104a1565b80639be46493146108305780639f6e1b2614610843578063a00e14d114610856578063a50cd8e714610869578063a6c409f11461087c576104a1565b806395d89b411161023157806395d89b41146107e757806397a5d5b5146107ef5780639940686e146108025780639a649edc146108155780639b82b49b1461081d576104a1565b8063825ad607146107935780638413e52a146107a657806386cf9f14146107b95780638de2e573146107cc578063900cf0cf146107df576104a1565b80633f7bcaf3116103945780635dbf800a1161031157806370a08231116102d557806370a082311461073757806371c511eb1461074a57806372924d2a1461075257806375d5024b146107655780637cb95a32146107785780637dc0d1d01461078b576104a1565b80635dbf800a146106d85780635f14fec8146106eb57806364668022146106fe5780636a39e328146107115780636b862d6614610724576104a1565b806344d96e951161035857806344d96e95146106985780634c736099146106a05780635053e461146106b357806351adeb57146106bb5780635c60da1b146106d0576104a1565b80633f7bcaf3146106375780633fbba9a61461064a5780633fd4973c1461066a578063416a23cc1461067d5780634387352614610685576104a1565b806320f6bc90116104225780632e1a7d4d116103e65780632e1a7d4d146105d6578063313ce567146105e957806332347422146105fe578063353a420c146106115780633a3e6c8114610624576104a1565b806320f6bc901461057757806323b872dd1461058a578063259f7adf1461059d578063277805a9146105b057806327de9e32146105c3576104a1565b806316f0115b1161046957806316f0115b1461052c57806318160ddd146105415780631a08e22a146105495780631edbcf6c1461055c5780631fac973214610564576104a1565b806306fdde03146104a6578063095ea7b3146104c45780630dc6d3a3146104e457806310e95b6c146104f957806315e14bf614610519575b600080fd5b6104ae610a4c565b6040516104bb9190612dde565b60405180910390f35b6104d76104d23660046129ee565b610a83565b6040516104bb9190612db4565b6104f76104f2366004612970565b610a8c565b005b61050c610507366004612b0b565b610ad5565b6040516104bb9190612e0f565b61050c610527366004612888565b610aed565b610534610b0b565b6040516104bb9190612d47565b61050c610b1a565b6104f7610557366004612b9d565b610b20565b61050c610b2e565b6104f7610572366004612b0b565b610b34565b6104f76105853660046129ee565b610b40565b6104d761059836600461292d565b610b4a565b6104f76105ab366004612b0b565b610b54565b6104f76105be3660046129ee565b610b5d565b6104f76105d1366004612b0b565b610be9565b6104f76105e4366004612b0b565b610d33565b6105f1610e6b565b6040516104bb9190612e38565b6104f761060c366004612b47565b610e70565b61050c61061f366004612888565b610eb0565b6104d7610632366004612888565b610ece565b6104f761064536600461292d565b610eeb565b61065d6106583660046128a6565b610ef6565b6040516104bb9190612dd0565b6104f7610678366004612a1e565b610f29565b6104f7610f70565b6104f7610693366004612b0b565b610f7a565b61050c610f83565b61050c6106ae366004612b9d565b610f89565b61050c610fb9565b6106c3610fdc565b6040516104bb9190612dc2565b610534610feb565b6104f76106e6366004612b0b565b611010565b6104f76106f93660046129ee565b611019565b61050c61070c366004612888565b611023565b61050c61071f366004612b0b565b611041565b6104f7610732366004612a86565b611056565b61050c610745366004612888565b611061565b6104f761107f565b6104f7610760366004612b47565b611087565b6104d7610773366004612b0b565b6110c7565b6104f7610786366004612a1e565b6110da565b6106c361111b565b61050c6107a1366004612888565b61112a565b6104f76107b43660046128e0565b61116a565b61050c6107c7366004612888565b611175565b6104f76107da366004612b0b565b611190565b61050c611199565b6104ae61119f565b61065d6107fd366004612888565b6111bd565b6104f7610810366004612b0b565b611222565b61050c6112f0565b6104f761082b366004612b47565b6112f6565b6104f761083e366004612888565b611336565b61050c6108513660046128a6565b61133f565b6104f7610864366004612b9d565b61136e565b61050c610877366004612888565b611379565b61050c611390565b6104f7610892366004612888565b611426565b6104f76108a5366004612b0b565b61142f565b6104f76108b8366004612a1e565b611438565b6104f76108cb3660046129ee565b611479565b6104f76108de3660046129ee565b611483565b6104f76108f1366004612b0b565b61148d565b6104f7610904366004612a1e565b6114a0565b6104f7610917366004612b0b565b6114e1565b61050c61092a3660046129ee565b6115b9565b6104f761093d3660046128a6565b6115fd565b6104f7610950366004612ab8565b611607565b6104f76109633660046129ee565b611649565b61050c610976366004612b0b565b611653565b6104f76109893660046129ee565b611668565b61050c611672565b6104d76109a4366004612888565b611678565b6104f76109b7366004612b0b565b611699565b6104f76109ca3660046129ee565b6116a2565b61050c6104d23660046128a6565b6104f76109eb366004612b0b565b6116ac565b6104f76109fe366004612b0b565b61176a565b61050c610a11366004612888565b61176f565b6104f761178a565b6104f7610a2c3660046129ee565b611792565b61050c61179c565b61050c610a47366004612b0b565b6117a2565b60408051808201909152601b81527f53746162696c697a65642053657420446f6c6c6172205374616b650000000000602082015290565b60005b92915050565b610ace85858585858080601f0160208091040260200160405190810160405280939291908181526020018383808284376000920191909152506117b492505050565b5050505050565b6000818152600d60205260409020600201545b919050565b6001600160a01b03166000908152600e602052604090206001015490565b600b546001600160a01b031690565b60035490565b610b2a8282611825565b5050565b60065490565b610b3d81611857565b50565b610b2a828261189e565b60005b9392505050565b610b3d81611946565b610b65610fdc565b6001600160a01b03166340c10f1983836040518363ffffffff1660e01b8152600401610b92929190612da6565b602060405180830381600087803b158015610bac57600080fd5b505af1158015610bc0573d6000803e3d6000fd5b505050506040513d601f19601f82011682018060405250610be49190810190612aed565b505050565b33610c3060025b610bf9836111bd565b6002811115610c0457fe5b1415692832b936b4b9b9b4b7b760b11b72139bdd08199c9bde995b881bdc88199b1d5a59606a1b61195f565b610c39336119bd565b6000610c6c610c4733611061565b610c60610c533361112a565b869063ffffffff6119ef16565b9063ffffffff611a2916565b9050610c783382611a6b565b610c9a81604051806060016040528060228152602001612f4460229139611ac7565b610cda33846040518060400160405280601d81526020017f426f6e64696e673a20696e73756666696369656e742062616c616e6365000000815250611ae2565b337f93530ac0ee8c50e696e13c5ac62355d0c0ba4bd943620d5bda1eb08b64ae7512610d156001610d09611199565b9063ffffffff611b8d16565b8584604051610d2693929190612e1d565b60405180910390a2505050565b33610d7b60015b610d43836111bd565b6002811115610d4e57fe5b1415692832b936b4b9b9b4b7b760b11b73139bdd08199c9bde995b881bdc881b1bd8dad95960621b61195f565b610d83610fdc565b6001600160a01b031663a9059cbb33846040518363ffffffff1660e01b8152600401610db0929190612d7d565b602060405180830381600087803b158015610dca57600080fd5b505af1158015610dde573d6000803e3d6000fd5b505050506040513d601f19601f82011682018060405250610e029190810190612aed565b50610e263383604051806060016040528060248152602001612f2060249139611bb2565b336001600160a01b03167f884edad9ce6fa2440d8a54cc123490eb96d2768479d49ff9c7366125a942436483604051610e5f9190612e0f565b60405180910390a25050565b601290565b610be48383838080601f016020809104026020016040519081016040528093929190818152602001838380828437600092019190915250611c1192505050565b6001600160a01b03166000908152600e602052604090206003015490565b6001600160a01b03166000908152600e6020526040902054151590565b610be4838383611c2c565b6001600160a01b038082166000908152600e60209081526040808320938616835260049093019052205460ff1692915050565b610f6a848484848080601f016020809104026020016040519081016040528093929190818152602001838380828437600092019190915250611c5c92505050565b50505050565b610f78611cad565b565b610b3d81611cf0565b60045490565b6000828152600d60205260408120600301805483908110610fa657fe5b9060005260206000200154905092915050565b6000610fc36127d4565b610fcb611d04565b9050610fd681611d33565b91505090565b6009546001600160a01b031690565b7f360894a13ba1a3210667c828492db98dca3e2076cc3735a920a3ca505d382bbc5490565b610b3d81611d55565b610b2a8282611ddc565b6001600160a01b03166000908152600e602052604090206002015490565b6000908152600d602052604090206003015490565b610be4838383611eed565b6001600160a01b03166000908152600c602052604090206001015490565b610f78611f94565b610be48383838080601f016020809104026020016040519081016040528093929190818152602001838380828437600092019190915250611fbb92505050565b60006110d1611fd6565b90911115919050565b610f6a848484848080601f016020809104026020016040519081016040528093929190818152602001838380828437600092019190915250611fdb92505050565b600a546001600160a01b031690565b600080611135610b1a565b905080611146576000915050610ae8565b610b4d81610c6061115686611061565b61115e610f83565b9063ffffffff6119ef16565b610be483838361202c565b6001600160a01b03166000908152600c602052604090205490565b610b3d81612076565b60025490565b6040805180820190915260048152635353445360e01b602082015290565b60006111c7611199565b6001600160a01b0383166000908152600c602052604090206005015411156111f157506002610ae8565b6001600160a01b0382166000908152600c6020526040902060040154611215611199565b1015610a83576001610a86565b3361122d6002610bf0565b611236336119bd565b6000611240610f83565b156112605761125b611250610f83565b610c60610c53610b1a565b611278565b61127861126b61208f565b849063ffffffff6119ef16565b90506112843382612096565b61128d83611946565b6112b03384604051806060016040528060248152602001612f2060249139611bb2565b337f44002fdef5a0c2d2e4e05572e9780b95aef97e0e93ffd7cc076b09fa78ff2b466112df6001610d09611199565b8386604051610d2693929190612e1d565b60085490565b610be48383838080601f016020809104026020016040519081016040528093929190818152602001838380828437600092019190915250611ac792505050565b610b3d816119bd565b6001600160a01b039182166000908152600c602090815260408083209390941682526003909201909152205490565b600091909155600155565b6000610a8661138783610eb0565b610d0984611023565b600061142161139d61179c565b6113a5610fdc565b6001600160a01b03166318160ddd6040518163ffffffff1660e01b815260040160206040518083038186803b1580156113dd57600080fd5b505afa1580156113f1573d6000803e3d6000fd5b505050506040513d601f19601f820116820180604052506114159190810190612b29565b9063ffffffff61213e16565b905090565b610b3d81612180565b610b3d816121a7565b610f6a848484848080601f016020809104026020016040519081016040528093929190818152602001838380828437600092019190915250611ae292505050565b610b2a8282612096565b610b2a8282611a6b565b610b3d61149b8260646121ea565b612219565b610f6a848484848080601f016020809104026020016040519081016040528093929190818152602001838380828437600092019190915250611bb292505050565b336114ec6001610d3a565b6114f4610fdc565b6001600160a01b03166323b872dd3330856040518463ffffffff1660e01b815260040161152393929190612d55565b602060405180830381600087803b15801561153d57600080fd5b505af1158015611551573d6000803e3d6000fd5b505050506040513d601f19601f820116820180604052506115759190810190612aed565b506115803383611a6b565b336001600160a01b03167fe1fffcc4923d04b559f4d29a8bfc6cda04eb5b0d3c460751c2402c5c5cc9109c83604051610e5f9190612e0f565b60006115c482611653565b6115d057506000610a86565b506001600160a01b03919091166000908152600c6020908152604080832093835260029093019052205490565b610b2a82826122de565b610ace85858585858080601f01602080910402602001604051908101604052809392919081815260200183838082843760009201919091525061233e92505050565b610b2a82826123e9565b6000908152600d602052604090206001015490565b610b2a8282612493565b60055490565b6001600160a01b03166000908152600e602052604090206005015460ff1690565b610b3d816124e2565b610b2a82826124fb565b336116b76002610bf0565b6116c0336119bd565b60006116cd611250610f83565b90506116d93384611a6b565b6116fb83604051806060016040528060228152602001612f4460229139611ac7565b61173b33826040518060400160405280601d81526020017f426f6e64696e673a20696e73756666696369656e742062616c616e6365000000815250611ae2565b337f93530ac0ee8c50e696e13c5ac62355d0c0ba4bd943620d5bda1eb08b64ae75126112df6001610d09611199565b600f55565b6001600160a01b03166000908152600e602052604090205490565b610f78612527565b610b2a8282612540565b60075490565b6000908152600d602052604090205490565b6001600160a01b038085166000908152600c6020908152604080832093871683526003909301905220546117ef90838363ffffffff61258f16565b6001600160a01b039485166000908152600c60209081526040808320969097168252600390950190945293909220929092555050565b6000828152600d6020908152604080832060020184905592825291812060030180546001810182559082529190200155565b611896816040518060400160405280601c81526020017f436f6d7074726f6c6c65723a206e6f7420656e6f756768206465627400000000815250611fbb565b610b3d6125bb565b6118a6610fdc565b6001600160a01b03166340c10f1983836040518363ffffffff1660e01b81526004016118d3929190612da6565b602060405180830381600087803b1580156118ed57600080fd5b505af1158015611901573d6000803e3d6000fd5b505050506040513d601f19601f820116820180604052506119259190810190612aed565b50611931610773611199565b61193e5761193e81611cf0565b610b2a6125bb565b600454611959908263ffffffff611b8d16565b60045550565b82610be45761196d8261268e565b6101d160f51b61197c8361268e565b60405160200161198e93929190612d16565b60408051601f198184030181529082905262461bcd60e51b82526119b491600401612dde565b60405180910390fd5b6119d06119c861270e565b610d09611199565b6001600160a01b039091166000908152600c6020526040902060040155565b6000826119fe57506000610a86565b82820282848281611a0b57fe5b0414610b4d5760405162461bcd60e51b81526004016119b490612dff565b6000610b4d83836040518060400160405280601a81526020017f536166654d6174683a206469766973696f6e206279207a65726f000000000000815250612713565b6001600160a01b0382166000908152600c6020526040902054611a94908263ffffffff611b8d16565b6001600160a01b0383166000908152600c6020526040902055600554611ac0908263ffffffff611b8d16565b6005555050565b600454611adb90838363ffffffff61258f16565b6004555050565b6001600160a01b0383166000908152600c6020526040902060010154611b0f90838363ffffffff61258f16565b6001600160a01b0384166000908152600c6020526040902060010155600354611b3f90838363ffffffff61258f16565b6003556040516000906001600160a01b038516907fddf252ad1be2c89b69c2b068fc378daa952ba7f163c4a11628f55a4df523b3ef90611b80908690612e0f565b60405180910390a3505050565b600082820183811015610b4d5760405162461bcd60e51b81526004016119b490612def565b6001600160a01b0383166000908152600c6020526040902054611bdc90838363ffffffff61258f16565b6001600160a01b0384166000908152600c6020526040902055600554611c0990838363ffffffff61258f16565b600555505050565b600654611c2590838363ffffffff61258f16565b6006555050565b6001600160a01b039283166000908152600c60209081526040808320949095168252600390930190925291902055565b6001600160a01b0383166000908152600e6020526040902060030154611c8990838363ffffffff61258f16565b6001600160a01b039093166000908152600e60205260409020600301929092555050565b611ce8611cb8611199565b611cc0610fb9565b1166426f6e64696e6760c81b720a6e8d2d8d840c6eae4e4cadce840cae0dec6d606b1b61195f565b61178a611f94565b611cf981612076565b61189661149b61274a565b611d0c6127d4565b604051806060016040528060008152602001635ff865608152602001611c20815250905090565b6000610a868260000151610d098460400151610c60866020015161141561276c565b611d5d610fdc565b6001600160a01b03166342966c68826040518263ffffffff1660e01b8152600401611d889190612e0f565b600060405180830381600087803b158015611da257600080fd5b505af1158015611db6573d6000803e3d6000fd5b50505050611896816040518060600160405280602a8152602001612f8e602a9139611c11565b611de4610fdc565b6001600160a01b03166323b872dd8330846040518463ffffffff1660e01b8152600401611e1393929190612d98565b602060405180830381600087803b158015611e2d57600080fd5b505af1158015611e41573d6000803e3d6000fd5b505050506040513d601f19601f82011682018060405250611e659190810190612aed565b50611e6e610fdc565b6001600160a01b03166342966c68826040518263ffffffff1660e01b8152600401611e999190612e0f565b600060405180830381600087803b158015611eb357600080fd5b505af1158015611ec7573d6000803e3d6000fd5b5050505061193e81604051806060016040528060288152602001612f6660289139611fbb565b6001600160a01b0383166000908152600c60209081526040808320858452600201909152902054611f24908263ffffffff611b8d16565b6001600160a01b0384166000908152600c60209081526040808320868452600201825280832093909355600d90522060010154611f67908263ffffffff611b8d16565b6000838152600d6020526040902060010155600854611f8c908263ffffffff611b8d16565b600855505050565b611f9c610b1a565b600d6000611fa8611199565b8152602081019190915260400160002055565b600754611fcf90838363ffffffff61258f16565b6007555050565b60b490565b6001600160a01b0383166000908152600e602052604090206002015461200890838363ffffffff61258f16565b6001600160a01b039093166000908152600e60205260409020600201929092555050565b6001600160a01b038083166000908152600e6020908152604080832093871683526004909301905220805482919060ff1916600183600281111561206c57fe5b0217905550505050565b600754612089908263ffffffff611b8d16565b60075550565b620f424090565b6001600160a01b0382166000908152600c60205260409020600101546120c2908263ffffffff611b8d16565b6001600160a01b0383166000908152600c60205260409020600101556003546120f1908263ffffffff611b8d16565b6003556040516001600160a01b038316906000907fddf252ad1be2c89b69c2b068fc378daa952ba7f163c4a11628f55a4df523b3ef90612132908590612e0f565b60405180910390a35050565b6000610b4d83836040518060400160405280601e81526020017f536166654d6174683a207375627472616374696f6e206f766572666c6f77000081525061258f565b6001600160a01b03166000908152600e60205260409020600501805460ff19166001179055565b60006121b282611653565b9050806121bf5750610b3d565b6008546121d2908263ffffffff61213e16565b600855506000908152600d6020526040812060010155565b6121f26127f5565b604051806020016040528061221085670de0b6b3a764000086612772565b90529392505050565b60006122ab6122a6612229610fdc565b6001600160a01b03166318160ddd6040518163ffffffff1660e01b815260040160206040518083038186803b15801561226157600080fd5b505afa158015612275573d6000803e3d6000fd5b505050506040513d601f19601f820116820180604052506122999190810190612b29565b849063ffffffff61279016565b6127b7565b905060006122b761179c565b905081811115610be45760006122d3828463ffffffff61213e16565b9050610f6a81611857565b6001600160a01b0382166000908152600c60205260408120600501549061231061230784610aed565b610d098561176f565b905081811115610f6a576001600160a01b0384166000908152600c6020526040902060050181905550505050565b6001600160a01b0384166000908152600c6020908152604080832086845260020190915290205461237690838363ffffffff61258f16565b6001600160a01b0385166000908152600c60209081526040808320878452600201825280832093909355600d905220600101546123ba90838363ffffffff61258f16565b6000848152600d60205260409020600101556008546123e090838363ffffffff61258f16565b60085550505050565b6123f1610fdc565b6001600160a01b031663a9059cbb83836040518363ffffffff1660e01b815260040161241e929190612da6565b602060405180830381600087803b15801561243857600080fd5b505af115801561244c573d6000803e3d6000fd5b505050506040513d601f19601f820116820180604052506124709190810190612aed565b5061193e816040518060600160405280602a8152602001612f8e602a9139611c11565b6001600160a01b0382166000908152600e60205260409020600301546124bf908263ffffffff611b8d16565b6001600160a01b039092166000908152600e602052604090206003019190915550565b6006546124f5908263ffffffff611b8d16565b60065550565b612503611199565b6001600160a01b039092166000908152600e60205260409020918255600190910155565b60025461253b90600163ffffffff611b8d16565b600255565b6001600160a01b0382166000908152600e602052604090206002015461256c908263ffffffff611b8d16565b6001600160a01b039092166000908152600e602052604090206002019190915550565b600081848411156125b35760405162461bcd60e51b81526004016119b49190612dde565b505050900390565b610f786125dc6125c9610b2e565b610d096125d4611672565b610d09610f83565b6125e4610fdc565b6001600160a01b03166370a08231306040518263ffffffff1660e01b815260040161260f9190612d47565b60206040518083038186803b15801561262757600080fd5b505afa15801561263b573d6000803e3d6000fd5b505050506040513d601f19601f8201168201806040525061265f9190810190612b29565b10156a21b7b6b83a3937b63632b960a91b74496e636f6e73697374656e742062616c616e63657360581b61195f565b606080826040516020016126a29190612d01565b60408051601f19818403018152919052905060205b80156126f7578151600019909101908290829081106126d257fe5b01602001516001600160f81b031916156126f25760010181529050610ae8565b6126b7565b505060408051600081526020810190915292915050565b601890565b600081836127345760405162461bcd60e51b81526004016119b49190612dde565b50600083858161274057fe5b0495945050505050565b6127526127f5565b5060408051602081019091526704db732547630000815290565b600f5490565b600061278882610c60868663ffffffff6119ef16565b949350505050565b6127986127f5565b604080516020810190915283518190612210908563ffffffff6119ef16565b8051600090610a8690670de0b6b3a764000063ffffffff611a2916565b60405180606001604052806000815260200160008152602001600081525090565b6040518060200160405280600081525090565b8035610a8681612eec565b8051610a8681612f00565b8035610a8681612f09565b60008083601f84011261283b57600080fd5b50813567ffffffffffffffff81111561285357600080fd5b60208301915083600182028301111561286b57600080fd5b9250929050565b8035610a8681612f16565b8051610a8681612f16565b60006020828403121561289a57600080fd5b60006127888484612808565b600080604083850312156128b957600080fd5b60006128c58585612808565b92505060206128d685828601612808565b9150509250929050565b6000806000606084860312156128f557600080fd5b60006129018686612808565b935050602061291286828701612808565b92505060406129238682870161281e565b9150509250925092565b60008060006060848603121561294257600080fd5b600061294e8686612808565b935050602061295f86828701612808565b925050604061292386828701612872565b60008060008060006080868803121561298857600080fd5b60006129948888612808565b95505060206129a588828901612808565b94505060406129b688828901612872565b935050606086013567ffffffffffffffff8111156129d357600080fd5b6129df88828901612829565b92509250509295509295909350565b60008060408385031215612a0157600080fd5b6000612a0d8585612808565b92505060206128d685828601612872565b60008060008060608587031215612a3457600080fd5b6000612a408787612808565b9450506020612a5187828801612872565b935050604085013567ffffffffffffffff811115612a6e57600080fd5b612a7a87828801612829565b95989497509550505050565b600080600060608486031215612a9b57600080fd5b6000612aa78686612808565b935050602061295f86828701612872565b600080600080600060808688031215612ad057600080fd5b6000612adc8888612808565b95505060206129a588828901612872565b600060208284031215612aff57600080fd5b60006127888484612813565b600060208284031215612b1d57600080fd5b60006127888484612872565b600060208284031215612b3b57600080fd5b6000612788848461287d565b600080600060408486031215612b5c57600080fd5b6000612b688686612872565b935050602084013567ffffffffffffffff811115612b8557600080fd5b612b9186828701612829565b92509250509250925092565b60008060408385031215612bb057600080fd5b6000612a0d8585612872565b612bc581612e8f565b82525050565b612bc581612e53565b612bc581612e5e565b612bc5612be982612e63565b612e70565b612bc5612be982612e70565b6000612c0582612e46565b612c0f8185610ae8565b9350612c1f818560208601612eac565b9290920192915050565b612bc581612e96565b612bc581612ea1565b6000612c4682612e46565b612c508185612e4a565b9350612c60818560208601612eac565b612c6981612ed8565b9093019392505050565b6000612c80601b83612e4a565b7f536166654d6174683a206164646974696f6e206f766572666c6f770000000000815260200192915050565b6000612cb9602183612e4a565b7f536166654d6174683a206d756c7469706c69636174696f6e206f766572666c6f8152607760f81b602082015260400192915050565b612bc581612e70565b612bc581612e89565b6000612d0d8284612bee565b50602001919050565b6000612d228286612bfa565b9150612d2e8285612bdd565b600282019150612d3e8284612bfa565b95945050505050565b60208101610a868284612bcb565b60608101612d638286612bbc565b612d706020830185612bcb565b6127886040830184612cef565b60408101612d8b8285612bbc565b610b4d6020830184612cef565b60608101612d638286612bcb565b60408101612d8b8285612bcb565b60208101610a868284612bd4565b60208101610a868284612c29565b60208101610a868284612c32565b60208082528101610b4d8184612c3b565b60208082528101610a8681612c73565b60208082528101610a8681612cac565b60208101610a868284612cef565b60608101612e2b8286612cef565b612d706020830185612cef565b60208101610a868284612cf8565b5190565b90815260200190565b6000610a8682612e7d565b151590565b6001600160f01b03191690565b90565b80610ae881612ee2565b6001600160a01b031690565b60ff1690565b6000610a86825b6000610a8682612e53565b6000610a8682612e73565b60005b83811015612ec7578181015183820152602001612eaf565b83811115610f6a5750506000910152565b601f01601f191690565b60038110610b3d57fe5b612ef581612e53565b8114610b3d57600080fd5b612ef581612e5e565b60038110610b3d57600080fd5b612ef581612e7056fe426f6e64696e673a20696e73756666696369656e74207374616765642062616c616e6365426f6e64696e673a20696e73756666696369656e7420746f74616c20626f6e646564436f6d7074726f6c6c65723a206e6f7420656e6f756768206f75747374616e64696e672064656274436f6d7074726f6c6c65723a206e6f7420656e6f7567682072656465656d61626c652062616c616e6365a365627a7a72315820c98f25205527f8016f43f66e50c0f0a248875ae6fabd61f7f109a9dbeeac60436c6578706572696d656e74616cf564736f6c6343000511004060806040523480156200001157600080fd5b506040518060400160405280601581526020017f53746162696c697a65642053657420446f6c6c617200000000000000000000008152506040518060400160405280600381526020016214d4d160ea1b8152506012620000896200007a6200012460201b60201c565b6001600160e01b036200012916565b82516200009e9060019060208601906200031e565b508151620000b49060029060208501906200031e565b506003805460ff191660ff92909216919091179055506200011b9050620000da6200017b565b604051806040016040528060018152602001603160f81b815250620001096200021460201b620016341760201c565b306200021960201b620016391760201c565b60075562000474565b335b90565b620001448160006200027060201b62000d7e1790919060201c565b6040516001600160a01b038216907f6ae172837ea30b801fbfcdd4108aa1d5bf8ff775444fd70256b44e6bf3dfc3f690600090a250565b60018054604080516020601f600260001961010087891615020190951694909404938401819004810282018101909252828152606093909290918301828280156200020a5780601f10620001de576101008083540402835291602001916200020a565b820191906000526020600020905b815481529060010190602001808311620001ec57829003601f168201915b5050505050905090565b600190565b8351602094850120835193850193909320604080517f8b73c3c69bb8fe3d512ecc4cf759cc79239f7b179b0ffacaa9a75d522b39400f815295860194909452928401929092526060830152608082015260a0902090565b6200028582826001600160e01b03620002d316565b15620002ae5760405162461bcd60e51b8152600401620002a59062000441565b60405180910390fd5b6001600160a01b0316600090815260209190915260409020805460ff19166001179055565b60006001600160a01b038216620002fe5760405162461bcd60e51b8152600401620002a59062000459565b506001600160a01b03166000908152602091909152604090205460ff1690565b828054600181600116156101000203166002900490600052602060002090601f016020900481019282601f106200036157805160ff191683800117855562000391565b8280016001018555821562000391579182015b828111156200039157825182559160200191906001019062000374565b506200039f929150620003a3565b5090565b6200012691905b808211156200039f5760008155600101620003aa565b6000620003cf601f836200046b565b7f526f6c65733a206163636f756e7420616c72656164792068617320726f6c6500815260200192915050565b60006200040a6022836200046b565b7f526f6c65733a206163636f756e7420697320746865207a65726f206164647265815261737360f01b602082015260400192915050565b602080825281016200045381620003c0565b92915050565b602080825281016200045381620003fb565b90815260200190565b61178d80620004846000396000f3fe608060405234801561001057600080fd5b506004361061012c5760003560e01c806395d89b41116100ad578063aa271e1a11610071578063aa271e1a14610256578063d505accf14610269578063dab400f31461027c578063dd62ed3e14610284578063e879c19f146102975761012c565b806395d89b411461020d578063983b2d56146102155780639865027514610228578063a457c2d714610230578063a9059cbb146102435761012c565b806339509351116100f457806339509351146101ac57806340c10f19146101bf57806342966c68146101d257806370a08231146101e757806379cc6790146101fa5761012c565b806306fdde0314610131578063095ea7b31461014f57806318160ddd1461016f57806323b872dd14610184578063313ce56714610197575b600080fd5b61013961029f565b60405161014691906114c6565b60405180910390f35b61016261015d366004610ffc565b610334565b604051610146919061141b565b610177610352565b6040516101469190611429565b610162610192366004610f13565b610358565b61019f6103ca565b6040516101469190611587565b6101626101ba366004610ffc565b6103d3565b6101626101cd366004610ffc565b610427565b6101e56101e036600461102c565b610463565b005b6101776101f5366004610eb3565b610477565b6101e5610208366004610ffc565b610496565b6101396104a4565b6101e5610223366004610eb3565b610502565b6101e5610532565b61016261023e366004610ffc565b610544565b610162610251366004610ffc565b6105b2565b610162610264366004610eb3565b6105c6565b6101e5610277366004610f60565b6105d8565b61017761075f565b610177610292366004610ed9565b610765565b610177610790565b60018054604080516020601f6002600019610100878916150201909516949094049384018190048102820181019092528281526060939092909183018282801561032a5780601f106102ff5761010080835404028352916020019161032a565b820191906000526020600020905b81548152906001019060200180831161030d57829003601f168201915b5050505050905090565b60006103486103416107b4565b84846107b8565b5060015b92915050565b60065490565b600061036584848461086c565b600019610374856102926107b4565b146103c0576103c0846103856107b4565b6103bb856040518060600160405280602981526020016116fd602991396103ae8a6102926107b4565b919063ffffffff61098216565b6107b8565b5060019392505050565b60035460ff1690565b60006103486103e06107b4565b846103bb85600560006103f16107b4565b6001600160a01b03908116825260208083019390935260409182016000908120918c16815292529020549063ffffffff6109ae16565b60006104346102646107b4565b6104595760405162461bcd60e51b815260040161045090611517565b60405180910390fd5b61034883836109da565b61047461046e6107b4565b82610a9a565b50565b6001600160a01b0381166000908152600460205260409020545b919050565b6104a08282610b70565b5050565b60028054604080516020601f600019610100600187161502019094168590049384018190048102820181019092528281526060939092909183018282801561032a5780601f106102ff5761010080835404028352916020019161032a565b61050d6102646107b4565b6105295760405162461bcd60e51b815260040161045090611517565b61047481610beb565b61054261053d6107b4565b610c33565b565b60006103486105516107b4565b846103bb85604051806060016040528060258152602001611726602591396005600061057b6107b4565b6001600160a01b03908116825260208083019390935260409182016000908120918d1681529252902054919063ffffffff61098216565b60006103486105bf6107b4565b848461086c565b600061034c818363ffffffff610c7b16565b6007546001600160a01b03881660009081526008602090815260408083208054600181019091559051929361065a93909261063f927f6e71edae12b1b97f4d1f60370fef10105fa2faae0126114a169c64845d6126c9928e928e928e9290918e9101611437565b60405160208183030381529060405280519060200120610cc3565b90506000600182868686604051600081526020016040526040516106819493929190611491565b6020604051602081039080840390855afa1580156106a3573d6000803e3d6000fd5b5050506020604051035190506106f0896001600160a01b0316826001600160a01b0316146a5065726d69747461626c6560a81b70496e76616c6964207369676e617475726560781b610ce2565b6107236001600160a01b03821615156a5065726d69747461626c6560a81b6b5a65726f206164647265737360a01b610ce2565b610749864211156a5065726d69747461626c6560a81b66115e1c1a5c995960ca1b610ce2565b6107548989896107b8565b505050505050505050565b60075481565b6001600160a01b03918216600090815260056020908152604080832093909416825291909152205490565b7f6e71edae12b1b97f4d1f60370fef10105fa2faae0126114a169c64845d6126c981565b3390565b6001600160a01b0383166107de5760405162461bcd60e51b815260040161045090611567565b6001600160a01b0382166108045760405162461bcd60e51b8152600401610450906114f7565b6001600160a01b0380841660008181526005602090815260408083209487168084529490915290819020849055517f8c5be1e5ebec7d5bd14f71427d1e84f3dd0314c0f7b2291e5b200ac8c7c3b9259061085f908590611429565b60405180910390a3505050565b6001600160a01b0383166108925760405162461bcd60e51b815260040161045090611557565b6001600160a01b0382166108b85760405162461bcd60e51b8152600401610450906114d7565b6108fb816040518060600160405280602681526020016116b3602691396001600160a01b038616600090815260046020526040902054919063ffffffff61098216565b6001600160a01b038085166000908152600460205260408082209390935590841681522054610930908263ffffffff6109ae16565b6001600160a01b0380841660008181526004602052604090819020939093559151908516907fddf252ad1be2c89b69c2b068fc378daa952ba7f163c4a11628f55a4df523b3ef9061085f908590611429565b600081848411156109a65760405162461bcd60e51b815260040161045091906114c6565b505050900390565b6000828201838110156109d35760405162461bcd60e51b815260040161045090611507565b9392505050565b6001600160a01b038216610a005760405162461bcd60e51b815260040161045090611577565b600654610a13908263ffffffff6109ae16565b6006556001600160a01b038216600090815260046020526040902054610a3f908263ffffffff6109ae16565b6001600160a01b0383166000818152600460205260408082209390935591519091907fddf252ad1be2c89b69c2b068fc378daa952ba7f163c4a11628f55a4df523b3ef90610a8e908590611429565b60405180910390a35050565b6001600160a01b038216610ac05760405162461bcd60e51b815260040161045090611547565b610b0381604051806060016040528060228152602001611691602291396001600160a01b038516600090815260046020526040902054919063ffffffff61098216565b6001600160a01b038316600090815260046020526040902055600654610b2f908263ffffffff610d3c16565b6006556040516000906001600160a01b038416907fddf252ad1be2c89b69c2b068fc378daa952ba7f163c4a11628f55a4df523b3ef90610a8e908590611429565b610b7a8282610a9a565b6104a082610b866107b4565b6103bb846040518060600160405280602481526020016116d9602491396001600160a01b038816600090815260056020526040812090610bc46107b4565b6001600160a01b03168152602081019190915260400160002054919063ffffffff61098216565b610bfc60008263ffffffff610d7e16565b6040516001600160a01b038216907f6ae172837ea30b801fbfcdd4108aa1d5bf8ff775444fd70256b44e6bf3dfc3f690600090a250565b610c4460008263ffffffff610dca16565b6040516001600160a01b038216907fe94479a9f7e1952cc78f2d6baab678adc1b772d936c6583def489e524cb6669290600090a250565b60006001600160a01b038216610ca35760405162461bcd60e51b815260040161045090611537565b506001600160a01b03166000908152602091909152604090205460ff1690565b60405161190160f01b8152600281019290925260228201526042902090565b82610d3757610cf082610e12565b6101d160f51b610cff83610e12565b604051602001610d11939291906113ea565b60408051601f198184030181529082905262461bcd60e51b8252610450916004016114c6565b505050565b60006109d383836040518060400160405280601e81526020017f536166654d6174683a207375627472616374696f6e206f766572666c6f770000815250610982565b610d888282610c7b565b15610da55760405162461bcd60e51b8152600401610450906114e7565b6001600160a01b0316600090815260209190915260409020805460ff19166001179055565b610dd48282610c7b565b610df05760405162461bcd60e51b815260040161045090611527565b6001600160a01b0316600090815260209190915260409020805460ff19169055565b60608082604051602001610e2691906113d5565b60408051601f19818403018152919052905060205b8015610e7b57815160001990910190829082908110610e5657fe5b01602001516001600160f81b03191615610e765760010181529050610491565b610e3b565b505060408051600081526020810190915292915050565b803561034c8161160e565b803561034c81611622565b803561034c8161162b565b600060208284031215610ec557600080fd5b6000610ed18484610e92565b949350505050565b60008060408385031215610eec57600080fd5b6000610ef88585610e92565b9250506020610f0985828601610e92565b9150509250929050565b600080600060608486031215610f2857600080fd5b6000610f348686610e92565b9350506020610f4586828701610e92565b9250506040610f5686828701610e9d565b9150509250925092565b600080600080600080600060e0888a031215610f7b57600080fd5b6000610f878a8a610e92565b9750506020610f988a828b01610e92565b9650506040610fa98a828b01610e9d565b9550506060610fba8a828b01610e9d565b9450506080610fcb8a828b01610ea8565b93505060a0610fdc8a828b01610e9d565b92505060c0610fed8a828b01610e9d565b91505092959891949750929550565b6000806040838503121561100f57600080fd5b600061101b8585610e92565b9250506020610f0985828601610e9d565b60006020828403121561103e57600080fd5b6000610ed18484610e9d565b611053816115a2565b82525050565b611053816115ad565b61105361106e826115b2565b6115bf565b611053816115bf565b61105361106e826115bf565b600061109382611595565b61109d8185610491565b93506110ad8185602086016115d4565b9290920192915050565b60006110c282611595565b6110cc8185611599565b93506110dc8185602086016115d4565b6110e581611604565b9093019392505050565b60006110fc602383611599565b7f45524332303a207472616e7366657220746f20746865207a65726f206164647281526265737360e81b602082015260400192915050565b6000611141601f83611599565b7f526f6c65733a206163636f756e7420616c72656164792068617320726f6c6500815260200192915050565b600061117a602283611599565b7f45524332303a20617070726f766520746f20746865207a65726f206164647265815261737360f01b602082015260400192915050565b60006111be601b83611599565b7f536166654d6174683a206164646974696f6e206f766572666c6f770000000000815260200192915050565b60006111f7603083611599565b7f4d696e746572526f6c653a2063616c6c657220646f6573206e6f74206861766581526f20746865204d696e74657220726f6c6560801b602082015260400192915050565b6000611249602183611599565b7f526f6c65733a206163636f756e7420646f6573206e6f74206861766520726f6c8152606560f81b602082015260400192915050565b600061128c602283611599565b7f526f6c65733a206163636f756e7420697320746865207a65726f206164647265815261737360f01b602082015260400192915050565b60006112d0602183611599565b7f45524332303a206275726e2066726f6d20746865207a65726f206164647265738152607360f81b602082015260400192915050565b6000611313602583611599565b7f45524332303a207472616e736665722066726f6d20746865207a65726f206164815264647265737360d81b602082015260400192915050565b600061135a602483611599565b7f45524332303a20617070726f76652066726f6d20746865207a65726f206164648152637265737360e01b602082015260400192915050565b60006113a0601f83611599565b7f45524332303a206d696e7420746f20746865207a65726f206164647265737300815260200192915050565b611053816115ce565b60006113e1828461107c565b50602001919050565b60006113f68286611088565b91506114028285611062565b6002820191506114128284611088565b95945050505050565b6020810161034c8284611059565b6020810161034c8284611073565b60c081016114458289611073565b611452602083018861104a565b61145f604083018761104a565b61146c6060830186611073565b6114796080830185611073565b61148660a0830184611073565b979650505050505050565b6080810161149f8287611073565b6114ac60208301866113cc565b6114b96040830185611073565b6114126060830184611073565b602080825281016109d381846110b7565b6020808252810161034c816110ef565b6020808252810161034c81611134565b6020808252810161034c8161116d565b6020808252810161034c816111b1565b6020808252810161034c816111ea565b6020808252810161034c8161123c565b6020808252810161034c8161127f565b6020808252810161034c816112c3565b6020808252810161034c81611306565b6020808252810161034c8161134d565b6020808252810161034c81611393565b6020810161034c82846113cc565b5190565b90815260200190565b600061034c826115c2565b151590565b6001600160f01b03191690565b90565b6001600160a01b031690565b60ff1690565b60005b838110156115ef5781810151838201526020016115d7565b838111156115fe576000848401525b50505050565b601f01601f191690565b611617816115a2565b811461047457600080fd5b611617816115bf565b611617816115ce565b600190565b8351602094850120835193850193909320604080517f8b73c3c69bb8fe3d512ecc4cf759cc79239f7b179b0ffacaa9a75d522b39400f815295860194909452928401929092526060830152608082015260a090209056fe45524332303a206275726e20616d6f756e7420657863656564732062616c616e636545524332303a207472616e7366657220616d6f756e7420657863656564732062616c616e636545524332303a206275726e20616d6f756e74206578636565647320616c6c6f77616e6365446f6c6c61723a207472616e7366657220616d6f756e74206578636565647320616c6c6f77616e636545524332303a2064656372656173656420616c6c6f77616e63652062656c6f77207a65726fa365627a7a723158201d0c4bb530cd01bf69f826a52d2def868eed7ab4e26b7fe51e1c8429d53ba7916c6578706572696d656e74616cf564736f6c63430005110040",
  "source": "/*\n    Copyright 2021 Stabilized Set Dollar Devs, based on the works of the Empty Set Squad\n\n    Licensed under the Apache License, Version 2.0 (the \"License\");\n    you may not use this file except in compliance with the License.\n    You may obtain a copy of the License at\n\n    http://www.apache.org/licenses/LICENSE-2.0\n\n    Unless required by applicable law or agreed to in writing, software\n    distributed under the License is distributed on an \"AS IS\" BASIS,\n    WITHOUT WARRANTIES OR CONDITIONS OF ANY KIND, either express or implied.\n    See the License for the specific language governing permissions and\n    limitations under the License.\n*/\n\npragma solidity ^0.5.17;\npragma experimental ABIEncoderV2;\n\nimport \"./MockState.sol\";\nimport \"../dao/Bonding.sol\";\nimport \"./MockComptroller.sol\";\n\ncontract MockBonding is MockComptroller, Bonding {\n    constructor() MockComptroller(address(0)) public { }\n\n    function stepE() external {\n        Bonding.step();\n    }\n}\n",
  "sourcePath": "/Users/apple/Desktop/dev/ssd-protocol/protocol/contracts/mock/MockBonding.sol",
  "compiler": {
    "name": "solc",
    "version": "0.5.17+commit.d19bba13.Emscripten.clang"
  },
  "schemaVersion": "3.3.3",
  "updatedAt": "2021-01-07T10:55:42.372Z",
  "devdoc": {
    "methods": {}
  },
  "userdoc": {
    "methods": {
      "balanceOfStaged(address)": {
        "notice": "Account"
      },
      "createCandidateE(address,uint256)": {
        "notice": "Governance"
      },
      "dollar()": {
        "notice": "Global"
      },
      "epoch()": {
        "notice": "Epoch"
      },
      "incrementBalanceOfE(address,uint256)": {
        "notice": "Account"
      },
      "incrementTotalBondedE(uint256)": {
        "notice": "Global"
      },
      "name()": {
        "notice": "ERC20 Interface"
      },
      "recordedVote(address,address)": {
        "notice": "Governance"
      },
      "setBlockTimestamp(uint256)": {
        "notice": "Mock"
      },
      "setEpochParamsE(uint256,uint256)": {
        "notice": "Epoch"
      },
      "transfer(address,uint256)": {
        "notice": "ERC20 Interface"
      }
    }
  }
}