{
  "contractName": "MockImplB",
  "abi": [
    {
      "inputs": [],
      "payable": false,
      "stateMutability": "nonpayable",
      "type": "constructor"
    },
    {
      "anonymous": false,
      "inputs": [],
      "name": "MockInitializedB",
      "type": "event"
    },
    {
      "anonymous": false,
      "inputs": [
        {
          "indexed": true,
          "internalType": "address",
          "name": "from",
          "type": "address"
        },
        {
          "indexed": true,
          "internalType": "address",
          "name": "to",
          "type": "address"
        },
        {
          "indexed": false,
          "internalType": "uint256",
          "name": "value",
          "type": "uint256"
        }
      ],
      "name": "Transfer",
      "type": "event"
    },
    {
      "anonymous": false,
      "inputs": [
        {
          "indexed": true,
          "internalType": "address",
          "name": "implementation",
          "type": "address"
        }
      ],
      "name": "Upgraded",
      "type": "event"
    },
    {
      "constant": true,
      "inputs": [
        {
          "internalType": "address",
          "name": "owner",
          "type": "address"
        },
        {
          "internalType": "address",
          "name": "spender",
          "type": "address"
        }
      ],
      "name": "allowance",
      "outputs": [
        {
          "internalType": "uint256",
          "name": "",
          "type": "uint256"
        }
      ],
      "payable": false,
      "stateMutability": "view",
      "type": "function"
    },
    {
      "constant": true,
      "inputs": [
        {
          "internalType": "address",
          "name": "owner",
          "type": "address"
        },
        {
          "internalType": "address",
          "name": "spender",
          "type": "address"
        }
      ],
      "name": "allowanceCoupons",
      "outputs": [
        {
          "internalType": "uint256",
          "name": "",
          "type": "uint256"
        }
      ],
      "payable": false,
      "stateMutability": "view",
      "type": "function"
    },
    {
      "constant": false,
      "inputs": [
        {
          "internalType": "address",
          "name": "spender",
          "type": "address"
        },
        {
          "internalType": "uint256",
          "name": "amount",
          "type": "uint256"
        }
      ],
      "name": "approve",
      "outputs": [
        {
          "internalType": "bool",
          "name": "",
          "type": "bool"
        }
      ],
      "payable": false,
      "stateMutability": "nonpayable",
      "type": "function"
    },
    {
      "constant": true,
      "inputs": [
        {
          "internalType": "address",
          "name": "candidate",
          "type": "address"
        }
      ],
      "name": "approveFor",
      "outputs": [
        {
          "internalType": "uint256",
          "name": "",
          "type": "uint256"
        }
      ],
      "payable": false,
      "stateMutability": "view",
      "type": "function"
    },
    {
      "constant": true,
      "inputs": [
        {
          "internalType": "address",
          "name": "account",
          "type": "address"
        }
      ],
      "name": "balanceOf",
      "outputs": [
        {
          "internalType": "uint256",
          "name": "",
          "type": "uint256"
        }
      ],
      "payable": false,
      "stateMutability": "view",
      "type": "function"
    },
    {
      "constant": true,
      "inputs": [
        {
          "internalType": "address",
          "name": "account",
          "type": "address"
        }
      ],
      "name": "balanceOfBonded",
      "outputs": [
        {
          "internalType": "uint256",
          "name": "",
          "type": "uint256"
        }
      ],
      "payable": false,
      "stateMutability": "view",
      "type": "function"
    },
    {
      "constant": true,
      "inputs": [
        {
          "internalType": "address",
          "name": "account",
          "type": "address"
        },
        {
          "internalType": "uint256",
          "name": "epoch",
          "type": "uint256"
        }
      ],
      "name": "balanceOfCoupons",
      "outputs": [
        {
          "internalType": "uint256",
          "name": "",
          "type": "uint256"
        }
      ],
      "payable": false,
      "stateMutability": "view",
      "type": "function"
    },
    {
      "constant": true,
      "inputs": [
        {
          "internalType": "address",
          "name": "account",
          "type": "address"
        }
      ],
      "name": "balanceOfStaged",
      "outputs": [
        {
          "internalType": "uint256",
          "name": "",
          "type": "uint256"
        }
      ],
      "payable": false,
      "stateMutability": "view",
      "type": "function"
    },
    {
      "constant": true,
      "inputs": [
        {
          "internalType": "uint256",
          "name": "epoch",
          "type": "uint256"
        }
      ],
      "name": "bootstrappingAt",
      "outputs": [
        {
          "internalType": "bool",
          "name": "",
          "type": "bool"
        }
      ],
      "payable": false,
      "stateMutability": "view",
      "type": "function"
    },
    {
      "constant": true,
      "inputs": [
        {
          "internalType": "uint256",
          "name": "epoch",
          "type": "uint256"
        }
      ],
      "name": "couponsExpiration",
      "outputs": [
        {
          "internalType": "uint256",
          "name": "",
          "type": "uint256"
        }
      ],
      "payable": false,
      "stateMutability": "view",
      "type": "function"
    },
    {
      "constant": true,
      "inputs": [],
      "name": "decimals",
      "outputs": [
        {
          "internalType": "uint8",
          "name": "",
          "type": "uint8"
        }
      ],
      "payable": false,
      "stateMutability": "view",
      "type": "function"
    },
    {
      "constant": true,
      "inputs": [],
      "name": "dollar",
      "outputs": [
        {
          "internalType": "contract IDollar",
          "name": "",
          "type": "address"
        }
      ],
      "payable": false,
      "stateMutability": "view",
      "type": "function"
    },
    {
      "constant": true,
      "inputs": [],
      "name": "epoch",
      "outputs": [
        {
          "internalType": "uint256",
          "name": "",
          "type": "uint256"
        }
      ],
      "payable": false,
      "stateMutability": "view",
      "type": "function"
    },
    {
      "constant": true,
      "inputs": [],
      "name": "epochTime",
      "outputs": [
        {
          "internalType": "uint256",
          "name": "",
          "type": "uint256"
        }
      ],
      "payable": false,
      "stateMutability": "view",
      "type": "function"
    },
    {
      "constant": true,
      "inputs": [
        {
          "internalType": "uint256",
          "name": "epoch",
          "type": "uint256"
        }
      ],
      "name": "expiringCoupons",
      "outputs": [
        {
          "internalType": "uint256",
          "name": "",
          "type": "uint256"
        }
      ],
      "payable": false,
      "stateMutability": "view",
      "type": "function"
    },
    {
      "constant": true,
      "inputs": [
        {
          "internalType": "uint256",
          "name": "epoch",
          "type": "uint256"
        },
        {
          "internalType": "uint256",
          "name": "i",
          "type": "uint256"
        }
      ],
      "name": "expiringCouponsAtIndex",
      "outputs": [
        {
          "internalType": "uint256",
          "name": "",
          "type": "uint256"
        }
      ],
      "payable": false,
      "stateMutability": "view",
      "type": "function"
    },
    {
      "constant": true,
      "inputs": [],
      "name": "implementation",
      "outputs": [
        {
          "internalType": "address",
          "name": "impl",
          "type": "address"
        }
      ],
      "payable": false,
      "stateMutability": "view",
      "type": "function"
    },
    {
      "constant": true,
      "inputs": [
        {
          "internalType": "address",
          "name": "candidate",
          "type": "address"
        }
      ],
      "name": "isInitialized",
      "outputs": [
        {
          "internalType": "bool",
          "name": "",
          "type": "bool"
        }
      ],
      "payable": false,
      "stateMutability": "view",
      "type": "function"
    },
    {
      "constant": true,
      "inputs": [
        {
          "internalType": "address",
          "name": "candidate",
          "type": "address"
        }
      ],
      "name": "isNominated",
      "outputs": [
        {
          "internalType": "bool",
          "name": "",
          "type": "bool"
        }
      ],
      "payable": false,
      "stateMutability": "view",
      "type": "function"
    },
    {
      "constant": true,
      "inputs": [],
      "name": "name",
      "outputs": [
        {
          "internalType": "string",
          "name": "",
          "type": "string"
        }
      ],
      "payable": false,
      "stateMutability": "view",
      "type": "function"
    },
    {
      "constant": true,
      "inputs": [],
      "name": "oracle",
      "outputs": [
        {
          "internalType": "contract IOracle",
          "name": "",
          "type": "address"
        }
      ],
      "payable": false,
      "stateMutability": "view",
      "type": "function"
    },
    {
      "constant": true,
      "inputs": [
        {
          "internalType": "uint256",
          "name": "epoch",
          "type": "uint256"
        }
      ],
      "name": "outstandingCoupons",
      "outputs": [
        {
          "internalType": "uint256",
          "name": "",
          "type": "uint256"
        }
      ],
      "payable": false,
      "stateMutability": "view",
      "type": "function"
    },
    {
      "constant": true,
      "inputs": [
        {
          "internalType": "address",
          "name": "candidate",
          "type": "address"
        }
      ],
      "name": "periodFor",
      "outputs": [
        {
          "internalType": "uint256",
          "name": "",
          "type": "uint256"
        }
      ],
      "payable": false,
      "stateMutability": "view",
      "type": "function"
    },
    {
      "constant": true,
      "inputs": [],
      "name": "pool",
      "outputs": [
        {
          "internalType": "address",
          "name": "",
          "type": "address"
        }
      ],
      "payable": false,
      "stateMutability": "view",
      "type": "function"
    },
    {
      "constant": true,
      "inputs": [
        {
          "internalType": "address",
          "name": "account",
          "type": "address"
        },
        {
          "internalType": "address",
          "name": "candidate",
          "type": "address"
        }
      ],
      "name": "recordedVote",
      "outputs": [
        {
          "internalType": "enum Candidate.Vote",
          "name": "",
          "type": "uint8"
        }
      ],
      "payable": false,
      "stateMutability": "view",
      "type": "function"
    },
    {
      "constant": true,
      "inputs": [
        {
          "internalType": "address",
          "name": "candidate",
          "type": "address"
        }
      ],
      "name": "rejectFor",
      "outputs": [
        {
          "internalType": "uint256",
          "name": "",
          "type": "uint256"
        }
      ],
      "payable": false,
      "stateMutability": "view",
      "type": "function"
    },
    {
      "constant": true,
      "inputs": [
        {
          "internalType": "address",
          "name": "candidate",
          "type": "address"
        }
      ],
      "name": "startFor",
      "outputs": [
        {
          "internalType": "uint256",
          "name": "",
          "type": "uint256"
        }
      ],
      "payable": false,
      "stateMutability": "view",
      "type": "function"
    },
    {
      "constant": true,
      "inputs": [
        {
          "internalType": "address",
          "name": "account",
          "type": "address"
        }
      ],
      "name": "statusOf",
      "outputs": [
        {
          "internalType": "enum Account.Status",
          "name": "",
          "type": "uint8"
        }
      ],
      "payable": false,
      "stateMutability": "view",
      "type": "function"
    },
    {
      "constant": true,
      "inputs": [],
      "name": "symbol",
      "outputs": [
        {
          "internalType": "string",
          "name": "",
          "type": "string"
        }
      ],
      "payable": false,
      "stateMutability": "view",
      "type": "function"
    },
    {
      "constant": true,
      "inputs": [],
      "name": "totalBonded",
      "outputs": [
        {
          "internalType": "uint256",
          "name": "",
          "type": "uint256"
        }
      ],
      "payable": false,
      "stateMutability": "view",
      "type": "function"
    },
    {
      "constant": true,
      "inputs": [
        {
          "internalType": "uint256",
          "name": "epoch",
          "type": "uint256"
        }
      ],
      "name": "totalBondedAt",
      "outputs": [
        {
          "internalType": "uint256",
          "name": "",
          "type": "uint256"
        }
      ],
      "payable": false,
      "stateMutability": "view",
      "type": "function"
    },
    {
      "constant": true,
      "inputs": [],
      "name": "totalCoupons",
      "outputs": [
        {
          "internalType": "uint256",
          "name": "",
          "type": "uint256"
        }
      ],
      "payable": false,
      "stateMutability": "view",
      "type": "function"
    },
    {
      "constant": true,
      "inputs": [],
      "name": "totalDebt",
      "outputs": [
        {
          "internalType": "uint256",
          "name": "",
          "type": "uint256"
        }
      ],
      "payable": false,
      "stateMutability": "view",
      "type": "function"
    },
    {
      "constant": true,
      "inputs": [],
      "name": "totalNet",
      "outputs": [
        {
          "internalType": "uint256",
          "name": "",
          "type": "uint256"
        }
      ],
      "payable": false,
      "stateMutability": "view",
      "type": "function"
    },
    {
      "constant": true,
      "inputs": [],
      "name": "totalRedeemable",
      "outputs": [
        {
          "internalType": "uint256",
          "name": "",
          "type": "uint256"
        }
      ],
      "payable": false,
      "stateMutability": "view",
      "type": "function"
    },
    {
      "constant": true,
      "inputs": [],
      "name": "totalStaged",
      "outputs": [
        {
          "internalType": "uint256",
          "name": "",
          "type": "uint256"
        }
      ],
      "payable": false,
      "stateMutability": "view",
      "type": "function"
    },
    {
      "constant": true,
      "inputs": [],
      "name": "totalSupply",
      "outputs": [
        {
          "internalType": "uint256",
          "name": "",
          "type": "uint256"
        }
      ],
      "payable": false,
      "stateMutability": "view",
      "type": "function"
    },
    {
      "constant": false,
      "inputs": [
        {
          "internalType": "address",
          "name": "recipient",
          "type": "address"
        },
        {
          "internalType": "uint256",
          "name": "amount",
          "type": "uint256"
        }
      ],
      "name": "transfer",
      "outputs": [
        {
          "internalType": "bool",
          "name": "",
          "type": "bool"
        }
      ],
      "payable": false,
      "stateMutability": "nonpayable",
      "type": "function"
    },
    {
      "constant": false,
      "inputs": [
        {
          "internalType": "address",
          "name": "sender",
          "type": "address"
        },
        {
          "internalType": "address",
          "name": "recipient",
          "type": "address"
        },
        {
          "internalType": "uint256",
          "name": "amount",
          "type": "uint256"
        }
      ],
      "name": "transferFrom",
      "outputs": [
        {
          "internalType": "bool",
          "name": "",
          "type": "bool"
        }
      ],
      "payable": false,
      "stateMutability": "nonpayable",
      "type": "function"
    },
    {
      "constant": true,
      "inputs": [
        {
          "internalType": "address",
          "name": "candidate",
          "type": "address"
        }
      ],
      "name": "votesFor",
      "outputs": [
        {
          "internalType": "uint256",
          "name": "",
          "type": "uint256"
        }
      ],
      "payable": false,
      "stateMutability": "view",
      "type": "function"
    },
    {
      "constant": false,
      "inputs": [],
      "name": "initialize",
      "outputs": [],
      "payable": false,
      "stateMutability": "nonpayable",
      "type": "function"
    },
    {
      "constant": false,
      "inputs": [
        {
          "internalType": "address",
          "name": "newImplementation",
          "type": "address"
        }
      ],
      "name": "upgradeToE",
      "outputs": [],
      "payable": false,
      "stateMutability": "nonpayable",
      "type": "function"
    }
  ],
  "bytecode": "0x608060405234801561001057600080fd5b5061131d806100206000396000f3fe608060405234801561001057600080fd5b506004361061025e5760003560e01c80637dc0d1d011610146578063a50cd8e7116100c3578063cf02377911610087578063cf023779146104bd578063d60b347f146104c5578063dd62ed3e146104d8578063f1b7cf49146104e6578063fc7b9c18146104f9578063ffbe3b73146105015761025e565b8063a50cd8e71461047c578063a6c409f11461048f578063a9059cbb14610281578063bc7513e214610497578063c9aff70c146104aa5761025e565b8063900cf0cf1161010a578063900cf0cf1461043e57806395d89b411461044657806397a5d5b51461044e5780639a649edc146104615780639f6e1b26146104695761025e565b80637dc0d1d0146103f35780638129fc1c146103fb578063825ad6071461040557806386cf9f14146104185780638a558b041461042b5761025e565b80633a3e6c81116101df57806351adeb57116101a357806351adeb571461038a5780635c60da1b1461039f57806364668022146103a75780636a39e328146103ba57806370a08231146103cd57806375d5024b146103e05761025e565b80633a3e6c81146103345780633fbba9a61461034757806344d96e95146103675780634c7360991461036f5780635053e461146103825761025e565b806318160ddd1161022657806318160ddd146102e95780631edbcf6c146102f157806323b872dd146102f9578063313ce5671461030c578063353a420c146103215761025e565b806306fdde0314610263578063095ea7b31461028157806310e95b6c146102a157806315e14bf6146102c157806316f0115b146102d4575b600080fd5b61026b610514565b60405161027891906111bd565b60405180910390f35b61029461028f366004610f0d565b61054b565b6040516102789190611193565b6102b46102af366004610f3d565b610554565b60405161027891906111fe565b6102b46102cf366004610e60565b61056c565b6102dc61058a565b6040516102789190611185565b6102b4610599565b6102b461059f565b610294610307366004610ec0565b6105a5565b6103146105ae565b604051610278919061120c565b6102b461032f366004610e60565b6105b3565b610294610342366004610e60565b6105d1565b61035a610355366004610e86565b6105ee565b60405161027891906111af565b6102b4610621565b6102b461037d366004610f79565b610627565b6102b4610657565b61039261067a565b60405161027891906111a1565b6102dc610689565b6102b46103b5366004610e60565b6106ae565b6102b46103c8366004610f3d565b6106cc565b6102b46103db366004610e60565b6106e1565b6102946103ee366004610f3d565b6106ff565b610392610712565b610403610721565b005b6102b4610413366004610e60565b610795565b6102b4610426366004610e60565b6107e8565b610403610439366004610e60565b610803565b6102b461080f565b61026b610815565b61035a61045c366004610e60565b610833565b6102b4610898565b6102b4610477366004610e86565b61089e565b6102b461048a366004610e60565b6108cd565b6102b46108f0565b6102b46104a5366004610f0d565b610986565b6102b46104b8366004610f3d565b6109ca565b6102b46109df565b6102946104d3366004610e60565b6109e5565b6102b461028f366004610e86565b6102b46104f4366004610e60565b610a06565b6102b4610a21565b6102b461050f366004610f3d565b610a27565b60408051808201909152601881527f44796e616d69632053657420446f6c6c6172205374616b650000000000000000602082015290565b60005b92915050565b6000818152600d60205260409020600201545b919050565b6001600160a01b03166000908152600e602052604090206001015490565b600b546001600160a01b031690565b60035490565b60065490565b60009392505050565b601290565b6001600160a01b03166000908152600e602052604090206003015490565b6001600160a01b03166000908152600e6020526040902054151590565b6001600160a01b038082166000908152600e60209081526040808320938616835260049093019052205460ff1692915050565b60045490565b6000828152600d6020526040812060030180548390811061064457fe5b9060005260206000200154905092915050565b6000610661610e1e565b610669610a39565b905061067481610a68565b91505090565b6009546001600160a01b031690565b7f360894a13ba1a3210667c828492db98dca3e2076cc3735a920a3ca505d382bbc5490565b6001600160a01b03166000908152600e602052604090206002015490565b6000908152600d602052604090206003015490565b6001600160a01b03166000908152600c602052604090206001015490565b6000610709610a8a565b90911115919050565b600a546001600160a01b031690565b61075a61072f6104d3610689565b15692832b936b4b9b9b4b7b760b11b72105b1c9958591e481a5b9a5d1a585b1a5e9959606a1b610a8f565b61076a610765610689565b610af2565b6040517f22d79a990a51ef06722e5af9f8224fec3260e699c6151bdc2818f0c408bc262790600090a1565b6000806107a0610599565b9050806107b1576000915050610567565b6107e1816107d56107c1866106e1565b6107c9610621565b9063ffffffff610b1916565b9063ffffffff610b5316565b9392505050565b6001600160a01b03166000908152600c602052604090205490565b61080c81610b95565b50565b60025490565b6040805180820190915260048152635353445360e01b602082015290565b600061083d61080f565b6001600160a01b0383166000908152600c6020526040902060050154111561086757506002610567565b6001600160a01b0382166000908152600c602052604090206004015461088b61080f565b101561054b57600161054e565b60085490565b6001600160a01b039182166000908152600c602090815260408083209390941682526003909201909152205490565b600061054e6108db836105b3565b6108e4846106ae565b9063ffffffff610c8116565b60006109816108fd610a21565b61090561067a565b6001600160a01b03166318160ddd6040518163ffffffff1660e01b815260040160206040518083038186803b15801561093d57600080fd5b505afa158015610951573d6000803e3d6000fd5b505050506040513d601f19601f820116820180604052506109759190810190610f5b565b9063ffffffff610ca616565b905090565b6000610991826109ca565b61099d5750600061054e565b506001600160a01b03919091166000908152600c6020908152604080832093835260029093019052205490565b6000908152600d602052604090206001015490565b60055490565b6001600160a01b03166000908152600e602052604090206005015460ff1690565b6001600160a01b03166000908152600e602052604090205490565b60075490565b6000908152600d602052604090205490565b610a41610e1e565b604051806060016040528060008152602001635ff5cfa88152602001611c20815250905090565b600061054e82600001516108e484604001516107d58660200151610975610ce8565b60b490565b82610aed57610a9d82610cec565b6101d160f51b610aac83610cec565b604051602001610abe93929190611154565b60408051601f198184030181529082905262461bcd60e51b8252610ae4916004016111bd565b60405180910390fd5b505050565b6001600160a01b03166000908152600e60205260409020600501805460ff19166001179055565b600082610b285750600061054e565b82820282848281610b3557fe5b04146107e15760405162461bcd60e51b8152600401610ae4906111de565b60006107e183836040518060400160405280601a81526020017f536166654d6174683a206469766973696f6e206279207a65726f000000000000815250610d6c565b610b9e81610da3565b60408051600481526024810182526020810180516001600160e01b031663204a7f0760e21b17905290516000916060916001600160a01b03851691610be291611148565b600060405180830381855af49150503d8060008114610c1d576040519150601f19603f3d011682016040523d82523d6000602084013e610c22565b606091505b5091509150818190610c475760405162461bcd60e51b8152600401610ae491906111bd565b506040516001600160a01b038416907fbc7cd75a20ee27fd9adebab32041f755214dbc6bffa90cc0225b39da2e5c2d3b90600090a2505050565b6000828201838110156107e15760405162461bcd60e51b8152600401610ae4906111ce565b60006107e183836040518060400160405280601e81526020017f536166654d6174683a207375627472616374696f6e206f766572666c6f770000815250610dec565b4290565b60608082604051602001610d009190611133565b60408051601f19818403018152919052905060205b8015610d5557815160001990910190829082908110610d3057fe5b01602001516001600160f81b03191615610d505760010181529050610567565b610d15565b505060408051600081526020810190915292915050565b60008183610d8d5760405162461bcd60e51b8152600401610ae491906111bd565b506000838581610d9957fe5b0495945050505050565b610dac81610e18565b610dc85760405162461bcd60e51b8152600401610ae4906111ee565b7f360894a13ba1a3210667c828492db98dca3e2076cc3735a920a3ca505d382bbc55565b60008184841115610e105760405162461bcd60e51b8152600401610ae491906111bd565b505050900390565b3b151590565b60405180606001604052806000815260200160008152602001600081525090565b803561054e816112bd565b803561054e816112d1565b805161054e816112d1565b600060208284031215610e7257600080fd5b6000610e7e8484610e3f565b949350505050565b60008060408385031215610e9957600080fd5b6000610ea58585610e3f565b9250506020610eb685828601610e3f565b9150509250929050565b600080600060608486031215610ed557600080fd5b6000610ee18686610e3f565b9350506020610ef286828701610e3f565b9250506040610f0386828701610e4a565b9150509250925092565b60008060408385031215610f2057600080fd5b6000610f2c8585610e3f565b9250506020610eb685828601610e4a565b600060208284031215610f4f57600080fd5b6000610e7e8484610e4a565b600060208284031215610f6d57600080fd5b6000610e7e8484610e55565b60008060408385031215610f8c57600080fd5b6000610f2c8585610e4a565b610fa181611227565b82525050565b610fa181611232565b610fa1610fbc82611237565b611244565b610fa1610fbc82611244565b6000610fd88261121a565b610fe28185610567565b9350610ff2818560208601611279565b9290920192915050565b610fa181611263565b610fa18161126e565b60006110198261121a565b611023818561121e565b9350611033818560208601611279565b61103c816112a9565b9093019392505050565b6000611053601b8361121e565b7f536166654d6174683a206164646974696f6e206f766572666c6f770000000000815260200192915050565b600061108c60218361121e565b7f536166654d6174683a206d756c7469706c69636174696f6e206f766572666c6f8152607760f81b602082015260400192915050565b60006110cf603b8361121e565b7f43616e6e6f742073657420612070726f787920696d706c656d656e746174696f81527f6e20746f2061206e6f6e2d636f6e747261637420616464726573730000000000602082015260400192915050565b610fa181611244565b610fa18161125d565b600061113f8284610fc1565b50602001919050565b60006107e18284610fcd565b60006111608286610fcd565b915061116c8285610fb0565b60028201915061117c8284610fcd565b95945050505050565b6020810161054e8284610f98565b6020810161054e8284610fa7565b6020810161054e8284610ffc565b6020810161054e8284611005565b602080825281016107e1818461100e565b6020808252810161054e81611046565b6020808252810161054e8161107f565b6020808252810161054e816110c2565b6020810161054e8284611121565b6020810161054e828461112a565b5190565b90815260200190565b600061054e82611251565b151590565b6001600160f01b03191690565b90565b80610567816112b3565b6001600160a01b031690565b60ff1690565b600061054e82611227565b600061054e82611247565b60005b8381101561129457818101518382015260200161127c565b838111156112a3576000848401525b50505050565b601f01601f191690565b6003811061080c57fe5b6112c681611227565b811461080c57600080fd5b6112c68161124456fea365627a7a723158203376678b6b7d114d9c0d39dddd20090a4f50b8578099727a18d4ac4dbcc310dc6c6578706572696d656e74616cf564736f6c63430005110040",
  "source": "/*\n    Copyright 2020 Stabilized Set Dollar Devs, based on the works of the Empty Set Squad\n\n    Licensed under the Apache License, Version 2.0 (the \"License\");\n    you may not use this file except in compliance with the License.\n    You may obtain a copy of the License at\n\n    http://www.apache.org/licenses/LICENSE-2.0\n\n    Unless required by applicable law or agreed to in writing, software\n    distributed under the License is distributed on an \"AS IS\" BASIS,\n    WITHOUT WARRANTIES OR CONDITIONS OF ANY KIND, either express or implied.\n    See the License for the specific language governing permissions and\n    limitations under the License.\n*/\n\npragma solidity ^0.5.17;\npragma experimental ABIEncoderV2;\n\nimport \"../dao/Upgradeable.sol\";\nimport \"../dao/Permission.sol\";\n\ncontract MockImplB is Upgradeable, Permission {\n    constructor () public { }\n\n    event MockInitializedB();\n\n    function initialize() public initializer {\n        emit MockInitializedB();\n    }\n\n    function upgradeToE(address newImplementation) external {\n        super.upgradeTo(newImplementation);\n    }\n}\n",
  "sourcePath": "/Users/apple/Desktop/dev/ssd-protocol/protocol/contracts/mock/MockImplB.sol",
  "compiler": {
    "name": "solc",
    "version": "0.5.17+commit.d19bba13.Emscripten.clang"
  },
  "schemaVersion": "3.3.3",
  "updatedAt": "2021-01-06T16:53:33.315Z",
  "devdoc": {
    "methods": {}
  },
  "userdoc": {
    "methods": {
      "balanceOfStaged(address)": {
        "notice": "Account"
      },
      "dollar()": {
        "notice": "Global"
      },
      "epoch()": {
        "notice": "Epoch"
      },
      "name()": {
        "notice": "ERC20 Interface"
      },
      "recordedVote(address,address)": {
        "notice": "Governance"
      },
      "transfer(address,uint256)": {
        "notice": "ERC20 Interface"
      }
    }
  }
}