{
  "contractName": "MockOracle",
  "abi": [
    {
      "inputs": [
        {
          "internalType": "address",
          "name": "pair",
          "type": "address"
        },
        {
          "internalType": "address",
          "name": "dollar",
          "type": "address"
        },
        {
          "internalType": "address",
          "name": "usdc",
          "type": "address"
        }
      ],
      "payable": false,
      "stateMutability": "nonpayable",
      "type": "constructor"
    },
    {
      "constant": true,
      "inputs": [],
      "name": "pair",
      "outputs": [
        {
          "internalType": "address",
          "name": "",
          "type": "address"
        }
      ],
      "payable": false,
      "stateMutability": "view",
      "type": "function"
    },
    {
      "constant": false,
      "inputs": [],
      "name": "setup",
      "outputs": [],
      "payable": false,
      "stateMutability": "nonpayable",
      "type": "function"
    },
    {
      "constant": false,
      "inputs": [],
      "name": "capture",
      "outputs": [
        {
          "components": [
            {
              "internalType": "uint256",
              "name": "value",
              "type": "uint256"
            }
          ],
          "internalType": "struct Decimal.D256",
          "name": "",
          "type": "tuple"
        },
        {
          "internalType": "bool",
          "name": "",
          "type": "bool"
        }
      ],
      "payable": false,
      "stateMutability": "nonpayable",
      "type": "function"
    },
    {
      "constant": true,
      "inputs": [],
      "name": "latestPrice",
      "outputs": [
        {
          "components": [
            {
              "internalType": "uint256",
              "name": "value",
              "type": "uint256"
            }
          ],
          "internalType": "struct Decimal.D256",
          "name": "",
          "type": "tuple"
        }
      ],
      "payable": false,
      "stateMutability": "view",
      "type": "function"
    },
    {
      "constant": true,
      "inputs": [],
      "name": "latestValid",
      "outputs": [
        {
          "internalType": "bool",
          "name": "",
          "type": "bool"
        }
      ],
      "payable": false,
      "stateMutability": "view",
      "type": "function"
    },
    {
      "constant": true,
      "inputs": [],
      "name": "isInitialized",
      "outputs": [
        {
          "internalType": "bool",
          "name": "",
          "type": "bool"
        }
      ],
      "payable": false,
      "stateMutability": "view",
      "type": "function"
    },
    {
      "constant": true,
      "inputs": [],
      "name": "cumulative",
      "outputs": [
        {
          "internalType": "uint256",
          "name": "",
          "type": "uint256"
        }
      ],
      "payable": false,
      "stateMutability": "view",
      "type": "function"
    },
    {
      "constant": true,
      "inputs": [],
      "name": "timestamp",
      "outputs": [
        {
          "internalType": "uint256",
          "name": "",
          "type": "uint256"
        }
      ],
      "payable": false,
      "stateMutability": "view",
      "type": "function"
    },
    {
      "constant": true,
      "inputs": [],
      "name": "reserve",
      "outputs": [
        {
          "internalType": "uint256",
          "name": "",
          "type": "uint256"
        }
      ],
      "payable": false,
      "stateMutability": "view",
      "type": "function"
    }
  ],
  "bytecode": "0x60806040523480156200001157600080fd5b5060405162001316380380620013168339810160408190526200003491620000a9565b60008054336001600160a01b03199182161782556001805482166001600160a01b03958616179055600280549091169484169490941790935560039290925560088054610100600160a81b031916610100939092169290920217905562000129565b8051620000a3816200010f565b92915050565b600080600060608486031215620000bf57600080fd5b6000620000cd868662000096565b9350506020620000e08682870162000096565b9250506040620000f38682870162000096565b9150509250925092565b60006001600160a01b038216620000a3565b6200011a81620000fd565b81146200012657600080fd5b50565b6111dd80620001396000396000f3fe608060405234801561001057600080fd5b50600436106100935760003560e01c8063b80777ea11610066578063b80777ea146100f5578063ba0bba40146100fd578063cd3293de14610107578063d4a3e9d71461010f578063f8cd50a21461012557610093565b8063392e53cd146100985780637ae176ff146100b6578063a3e6ba94146100cb578063a8aa1b31146100e0575b600080fd5b6100a061012d565b6040516100ad9190611065565b60405180910390f35b6100be61013d565b6040516100ad91906110cd565b6100d3610143565b6040516100ad91906110a4565b6100e861015f565b6040516100ad919061103c565b6100be61016e565b61010561017a565b005b6100be6103ca565b6101176103d0565b6040516100ad9291906110b2565b6100a0610416565b600154600160a01b900460ff1690565b60045490565b61014b610db3565b506040805160208101909152600754815290565b6002546001600160a01b031690565b60055463ffffffff1690565b6000546101a6906001600160a01b03163314654f7261636c6560d01b664e6f742064616f60c81b61041f565b600154735c69bee701ef814a2b6a3edd4b1652cb9cc5aa6f9063c9c65396906001600160a01b03166101d6610482565b6040518363ffffffff1660e01b81526004016101f392919061104a565b602060405180830381600087803b15801561020d57600080fd5b505af1158015610221573d6000803e3d6000fd5b505050506040513d601f19601f820116820180604052506102459190810190610e0f565b600280546001600160a01b0319166001600160a01b03928316179081905560408051630dfe168160e01b8152905160009384931691630dfe1681916004808301926020929190829003018186803b15801561029f57600080fd5b505afa1580156102b3573d6000803e3d6000fd5b505050506040513d601f19601f820116820180604052506102d79190810190610e0f565b600260009054906101000a90046001600160a01b03166001600160a01b031663d21220a76040518163ffffffff1660e01b815260040160206040518083038186803b15801561032557600080fd5b505afa158015610339573d6000803e3d6000fd5b505050506040513d601f19601f8201168201806040525061035d9190810190610e0f565b60015491935091506001600160a01b0380841691161461037e576001610381565b60005b60ff1660038190556103c69015806103a657506001546001600160a01b038381169116145b654f7261636c6560d01b6c14d4d1081b9bdd08199bdd5b99609a1b61041f565b5050565b60065490565b6103d8610db3565b60006103e2610496565b6008805460ff19169115159190911790819055905160078190556040805160208101909152908152925060ff1690505b9091565b60085460ff1690565b8261047d5761042d82610509565b6101d160f51b61043c83610509565b60405160200161044e9392919061100b565b60408051601f198184030181529082905262461bcd60e51b825261047491600401611073565b60405180910390fd5b505050565b60085461010090046001600160a01b031690565b61049e610db3565b600080546104cb906001600160a01b03163314654f7261636c6560d01b664e6f742064616f60c81b61041f565b600154600160a01b900460ff16156104ee576104e561058b565b91509150610412565b6104f6610680565b6104fe61088a565b600091509150610412565b6060808260405160200161051d9190610ff6565b60408051601f19818403018152919052905060205b80156105725781516000199091019082908290811061054d57fe5b01602001516001600160f81b0319161561056d5760010181529050610586565b610532565b505060408051600081526020810190915290505b919050565b610593610db3565b600061059d610db3565b6105a56108ac565b905060006105b1610962565b905060006105bd610482565b60025460405163fe575a8760e01b81526001600160a01b039283169263fe575a87926105ee9291169060040161103c565b60206040518083038186803b15801561060657600080fd5b505afa15801561061a573d6000803e3d6000fd5b505050506040513d601f19601f8201168201806040525061063e9190810190610e35565b9050600161064a610a1e565b831015610655575060005b61065d610a1e565b600654101561066a575060005b8115610674575060005b92945091925050509091565b6002546003546001600160a01b03909116906000901561071057816001600160a01b0316635a3d54936040518163ffffffff1660e01b815260040160206040518083038186803b1580156106d357600080fd5b505afa1580156106e7573d6000803e3d6000fd5b505050506040513d601f19601f8201168201806040525061070b9190810190610ea0565b610781565b816001600160a01b0316635909c0d56040518163ffffffff1660e01b815260040160206040518083038186803b15801561074957600080fd5b505afa15801561075d573d6000803e3d6000fd5b505050506040513d601f19601f820116820180604052506107819190810190610ea0565b90506000806000846001600160a01b0316630902f1ac6040518163ffffffff1660e01b815260040160606040518083038186803b1580156107c157600080fd5b505afa1580156107d5573d6000803e3d6000fd5b505050506040513d601f19601f820116820180604052506107f99190810190610e53565b925092509250826001600160701b031660001415801561082157506001600160701b03821615155b8015610832575063ffffffff811615155b156108835760048490556005805463ffffffff831663ffffffff199091161790556001805460ff60a01b1916600160a01b179055600354156108745782610876565b815b6001600160701b03166006555b5050505050565b610892610db3565b506040805160208101909152670de0b6b3a7640000815290565b6108b4610db3565b600254600090819081906108d0906001600160a01b0316610a27565b600554600354939650919450925063ffffffff16820390600090156108f557836108f7565b845b9050610901610db3565b6109228363ffffffff1660045484038161091757fe5b04600160701b610bfc565b6005805463ffffffff191663ffffffff87811691909117909155600484905590915061095790829064e8d4a5100090610c2d16565b965050505050505090565b6000806006549050600080600260009054906101000a90046001600160a01b03166001600160a01b0316630902f1ac6040518163ffffffff1660e01b815260040160606040518083038186803b1580156109bb57600080fd5b505afa1580156109cf573d6000803e3d6000fd5b505050506040513d601f19601f820116820180604052506109f39190810190610e53565b5091509150600354600014610a085781610a0a565b805b6001600160701b0316600655509091505090565b6402540be40090565b6000806000610a34610c54565b9050836001600160a01b0316635909c0d56040518163ffffffff1660e01b815260040160206040518083038186803b158015610a6f57600080fd5b505afa158015610a83573d6000803e3d6000fd5b505050506040513d601f19601f82011682018060405250610aa79190810190610ea0565b9250836001600160a01b0316635a3d54936040518163ffffffff1660e01b815260040160206040518083038186803b158015610ae257600080fd5b505afa158015610af6573d6000803e3d6000fd5b505050506040513d601f19601f82011682018060405250610b1a9190810190610ea0565b91506000806000866001600160a01b0316630902f1ac6040518163ffffffff1660e01b815260040160606040518083038186803b158015610b5a57600080fd5b505afa158015610b6e573d6000803e3d6000fd5b505050506040513d601f19601f82011682018060405250610b929190810190610e53565b9250925092508363ffffffff168163ffffffff1614610bf25780840363ffffffff8116610bbf8486610c5e565b516001600160e01b031602969096019563ffffffff8116610be08585610c5e565b516001600160e01b0316029590950194505b5050509193909250565b610c04610db3565b6040518060200160405280610c2285670de0b6b3a764000086610cd9565b905290505b92915050565b610c35610db3565b604080516020810190915283518190610c22908563ffffffff610d0516565b63ffffffff421690565b610c66610dc6565b6000826001600160701b031611610c8f5760405162461bcd60e51b815260040161047490611094565b6040805160208101909152806001600160701b0384166dffffffffffffffffffffffffffff60701b607087901b1681610cc457fe5b046001600160e01b0316815250905092915050565b6000610cfb82610cef868663ffffffff610d0516565b9063ffffffff610d3f16565b90505b9392505050565b600082610d1457506000610c27565b82820282848281610d2157fe5b0414610cfe5760405162461bcd60e51b815260040161047490611084565b6000610cfe83836040518060400160405280601a81526020017f536166654d6174683a206469766973696f6e206279207a65726f00000000000081525060008183610d9d5760405162461bcd60e51b81526004016104749190611073565b506000838581610da957fe5b0495945050505050565b6040518060200160405280600081525090565b60408051602081019091526000815290565b8051610c278161115f565b8051610c2781611176565b8051610c278161117f565b8051610c2781611188565b8051610c2781611191565b600060208284031215610e2157600080fd5b6000610e2d8484610dd8565b949350505050565b600060208284031215610e4757600080fd5b6000610e2d8484610de3565b600080600060608486031215610e6857600080fd5b6000610e748686610dee565b9350506020610e8586828701610dee565b9250506040610e9686828701610e04565b9150509250925092565b600060208284031215610eb257600080fd5b6000610e2d8484610df9565b610ec7816110e8565b82525050565b610ec7816110f3565b610ec7610ee2826110f8565b611105565b610ec7610ee282611105565b6000610efe826110db565b610f088185610586565b9350610f18818560208601611129565b9290920192915050565b6000610f2d826110db565b610f3781856110df565b9350610f47818560208601611129565b610f5081611155565b9093019392505050565b6000610f676021836110df565b7f536166654d6174683a206d756c7469706c69636174696f6e206f766572666c6f8152607760f81b602082015260400192915050565b6000610faa6017836110df565b7f4669786564506f696e743a204449565f42595f5a45524f000000000000000000815260200192915050565b80516020830190610fe78482610fed565b50505050565b610ec781611105565b60006110028284610ee7565b50602001919050565b60006110178286610ef3565b91506110238285610ed6565b6002820191506110338284610ef3565b95945050505050565b60208101610c278284610ebe565b604081016110588285610ebe565b610cfe6020830184610ebe565b60208101610c278284610ecd565b60208082528101610cfe8184610f22565b60208082528101610c2781610f5a565b60208082528101610c2781610f9d565b60208101610c278284610fd6565b604081016110c08285610fd6565b610cfe6020830184610ecd565b60208101610c278284610fed565b5190565b90815260200190565b6000610c2782611114565b151590565b6001600160f01b03191690565b90565b6001600160701b031690565b6001600160a01b031690565b63ffffffff1690565b60005b8381101561114457818101518382015260200161112c565b83811115610fe75750506000910152565b601f01601f191690565b611168816110e8565b811461117357600080fd5b50565b611168816110f3565b61116881611108565b61116881611105565b6111688161112056fea365627a7a72315820ddf98774d700ccde0d733587c6b6a086ccc62f63c48cafaaed8334ba328fb60e6c6578706572696d656e74616cf564736f6c63430005110040",
  "source": "/*\n    Copyright 2021 Stabilized Set Dollar Devs, based on the works of the Empty Set Squad\n\n    Licensed under the Apache License, Version 2.0 (the \"License\");\n    you may not use this file except in compliance with the License.\n    You may obtain a copy of the License at\n\n    http://www.apache.org/licenses/LICENSE-2.0\n\n    Unless required by applicable law or agreed to in writing, software\n    distributed under the License is distributed on an \"AS IS\" BASIS,\n    WITHOUT WARRANTIES OR CONDITIONS OF ANY KIND, either express or implied.\n    See the License for the specific language governing permissions and\n    limitations under the License.\n*/\n\npragma solidity ^0.5.17;\npragma experimental ABIEncoderV2;\n\nimport '@uniswap/v2-core/contracts/interfaces/IUniswapV2Pair.sol';\nimport \"../oracle/Oracle.sol\";\nimport \"../external/Decimal.sol\";\n\ncontract MockOracle is Oracle {\n    Decimal.D256 private _latestPrice;\n    bool private _latestValid;\n    address private _usdc;\n\n    constructor (address pair, address dollar, address usdc) Oracle(dollar) public {\n        _pair = IUniswapV2Pair(pair);\n        _index = 0;\n        _usdc = usdc;\n    }\n\n    function usdc() internal view returns (address) {\n        return _usdc;\n    }\n\n    function capture() public returns (Decimal.D256 memory, bool) {\n        (_latestPrice, _latestValid) = super.capture();\n        return (_latestPrice, _latestValid);\n    }\n\n    function latestPrice() external view returns (Decimal.D256 memory) {\n        return _latestPrice;\n    }\n\n    function latestValid() external view returns (bool) {\n        return _latestValid;\n    }\n\n    function isInitialized() external view returns (bool) {\n        return _initialized;\n    }\n\n    function cumulative() external view returns (uint256) {\n        return _cumulative;\n    }\n\n    function timestamp() external view returns (uint256) {\n        return _timestamp;\n    }\n\n    function reserve() external view returns (uint256) {\n        return _reserve;\n    }\n}\n",
  "sourcePath": "/Users/apple/Desktop/dev/ssd-protocol/protocol/contracts/mock/MockOracle.sol",
  "compiler": {
    "name": "solc",
    "version": "0.5.17+commit.d19bba13.Emscripten.clang"
  },
  "schemaVersion": "3.3.3",
  "updatedAt": "2021-01-07T10:55:42.777Z",
  "devdoc": {
    "methods": {}
  },
  "userdoc": {
    "methods": {}
  }
}