{
  "contractName": "MockState",
  "abi": [
    {
      "inputs": [],
      "payable": false,
      "stateMutability": "nonpayable",
      "type": "constructor"
    },
    {
      "anonymous": false,
      "inputs": [
        {
          "indexed": true,
          "internalType": "address",
          "name": "from",
          "type": "address"
        },
        {
          "indexed": true,
          "internalType": "address",
          "name": "to",
          "type": "address"
        },
        {
          "indexed": false,
          "internalType": "uint256",
          "name": "value",
          "type": "uint256"
        }
      ],
      "name": "Transfer",
      "type": "event"
    },
    {
      "constant": true,
      "inputs": [
        {
          "internalType": "address",
          "name": "owner",
          "type": "address"
        },
        {
          "internalType": "address",
          "name": "spender",
          "type": "address"
        }
      ],
      "name": "allowance",
      "outputs": [
        {
          "internalType": "uint256",
          "name": "",
          "type": "uint256"
        }
      ],
      "payable": false,
      "stateMutability": "view",
      "type": "function"
    },
    {
      "constant": true,
      "inputs": [
        {
          "internalType": "address",
          "name": "owner",
          "type": "address"
        },
        {
          "internalType": "address",
          "name": "spender",
          "type": "address"
        }
      ],
      "name": "allowanceCoupons",
      "outputs": [
        {
          "internalType": "uint256",
          "name": "",
          "type": "uint256"
        }
      ],
      "payable": false,
      "stateMutability": "view",
      "type": "function"
    },
    {
      "constant": false,
      "inputs": [
        {
          "internalType": "address",
          "name": "spender",
          "type": "address"
        },
        {
          "internalType": "uint256",
          "name": "amount",
          "type": "uint256"
        }
      ],
      "name": "approve",
      "outputs": [
        {
          "internalType": "bool",
          "name": "",
          "type": "bool"
        }
      ],
      "payable": false,
      "stateMutability": "nonpayable",
      "type": "function"
    },
    {
      "constant": true,
      "inputs": [
        {
          "internalType": "address",
          "name": "candidate",
          "type": "address"
        }
      ],
      "name": "approveFor",
      "outputs": [
        {
          "internalType": "uint256",
          "name": "",
          "type": "uint256"
        }
      ],
      "payable": false,
      "stateMutability": "view",
      "type": "function"
    },
    {
      "constant": true,
      "inputs": [
        {
          "internalType": "address",
          "name": "account",
          "type": "address"
        }
      ],
      "name": "balanceOf",
      "outputs": [
        {
          "internalType": "uint256",
          "name": "",
          "type": "uint256"
        }
      ],
      "payable": false,
      "stateMutability": "view",
      "type": "function"
    },
    {
      "constant": true,
      "inputs": [
        {
          "internalType": "address",
          "name": "account",
          "type": "address"
        }
      ],
      "name": "balanceOfBonded",
      "outputs": [
        {
          "internalType": "uint256",
          "name": "",
          "type": "uint256"
        }
      ],
      "payable": false,
      "stateMutability": "view",
      "type": "function"
    },
    {
      "constant": true,
      "inputs": [
        {
          "internalType": "address",
          "name": "account",
          "type": "address"
        },
        {
          "internalType": "uint256",
          "name": "epoch",
          "type": "uint256"
        }
      ],
      "name": "balanceOfCoupons",
      "outputs": [
        {
          "internalType": "uint256",
          "name": "",
          "type": "uint256"
        }
      ],
      "payable": false,
      "stateMutability": "view",
      "type": "function"
    },
    {
      "constant": true,
      "inputs": [
        {
          "internalType": "address",
          "name": "account",
          "type": "address"
        }
      ],
      "name": "balanceOfStaged",
      "outputs": [
        {
          "internalType": "uint256",
          "name": "",
          "type": "uint256"
        }
      ],
      "payable": false,
      "stateMutability": "view",
      "type": "function"
    },
    {
      "constant": true,
      "inputs": [
        {
          "internalType": "uint256",
          "name": "epoch",
          "type": "uint256"
        }
      ],
      "name": "bootstrappingAt",
      "outputs": [
        {
          "internalType": "bool",
          "name": "",
          "type": "bool"
        }
      ],
      "payable": false,
      "stateMutability": "view",
      "type": "function"
    },
    {
      "constant": true,
      "inputs": [
        {
          "internalType": "uint256",
          "name": "epoch",
          "type": "uint256"
        }
      ],
      "name": "couponsExpiration",
      "outputs": [
        {
          "internalType": "uint256",
          "name": "",
          "type": "uint256"
        }
      ],
      "payable": false,
      "stateMutability": "view",
      "type": "function"
    },
    {
      "constant": true,
      "inputs": [],
      "name": "decimals",
      "outputs": [
        {
          "internalType": "uint8",
          "name": "",
          "type": "uint8"
        }
      ],
      "payable": false,
      "stateMutability": "view",
      "type": "function"
    },
    {
      "constant": true,
      "inputs": [],
      "name": "dollar",
      "outputs": [
        {
          "internalType": "contract IDollar",
          "name": "",
          "type": "address"
        }
      ],
      "payable": false,
      "stateMutability": "view",
      "type": "function"
    },
    {
      "constant": true,
      "inputs": [],
      "name": "epoch",
      "outputs": [
        {
          "internalType": "uint256",
          "name": "",
          "type": "uint256"
        }
      ],
      "payable": false,
      "stateMutability": "view",
      "type": "function"
    },
    {
      "constant": true,
      "inputs": [],
      "name": "epochTime",
      "outputs": [
        {
          "internalType": "uint256",
          "name": "",
          "type": "uint256"
        }
      ],
      "payable": false,
      "stateMutability": "view",
      "type": "function"
    },
    {
      "constant": true,
      "inputs": [
        {
          "internalType": "uint256",
          "name": "epoch",
          "type": "uint256"
        }
      ],
      "name": "expiringCoupons",
      "outputs": [
        {
          "internalType": "uint256",
          "name": "",
          "type": "uint256"
        }
      ],
      "payable": false,
      "stateMutability": "view",
      "type": "function"
    },
    {
      "constant": true,
      "inputs": [
        {
          "internalType": "uint256",
          "name": "epoch",
          "type": "uint256"
        },
        {
          "internalType": "uint256",
          "name": "i",
          "type": "uint256"
        }
      ],
      "name": "expiringCouponsAtIndex",
      "outputs": [
        {
          "internalType": "uint256",
          "name": "",
          "type": "uint256"
        }
      ],
      "payable": false,
      "stateMutability": "view",
      "type": "function"
    },
    {
      "constant": true,
      "inputs": [],
      "name": "implementation",
      "outputs": [
        {
          "internalType": "address",
          "name": "impl",
          "type": "address"
        }
      ],
      "payable": false,
      "stateMutability": "view",
      "type": "function"
    },
    {
      "constant": true,
      "inputs": [
        {
          "internalType": "address",
          "name": "candidate",
          "type": "address"
        }
      ],
      "name": "isInitialized",
      "outputs": [
        {
          "internalType": "bool",
          "name": "",
          "type": "bool"
        }
      ],
      "payable": false,
      "stateMutability": "view",
      "type": "function"
    },
    {
      "constant": true,
      "inputs": [
        {
          "internalType": "address",
          "name": "candidate",
          "type": "address"
        }
      ],
      "name": "isNominated",
      "outputs": [
        {
          "internalType": "bool",
          "name": "",
          "type": "bool"
        }
      ],
      "payable": false,
      "stateMutability": "view",
      "type": "function"
    },
    {
      "constant": true,
      "inputs": [],
      "name": "name",
      "outputs": [
        {
          "internalType": "string",
          "name": "",
          "type": "string"
        }
      ],
      "payable": false,
      "stateMutability": "view",
      "type": "function"
    },
    {
      "constant": true,
      "inputs": [],
      "name": "oracle",
      "outputs": [
        {
          "internalType": "contract IOracle",
          "name": "",
          "type": "address"
        }
      ],
      "payable": false,
      "stateMutability": "view",
      "type": "function"
    },
    {
      "constant": true,
      "inputs": [
        {
          "internalType": "uint256",
          "name": "epoch",
          "type": "uint256"
        }
      ],
      "name": "outstandingCoupons",
      "outputs": [
        {
          "internalType": "uint256",
          "name": "",
          "type": "uint256"
        }
      ],
      "payable": false,
      "stateMutability": "view",
      "type": "function"
    },
    {
      "constant": true,
      "inputs": [
        {
          "internalType": "address",
          "name": "candidate",
          "type": "address"
        }
      ],
      "name": "periodFor",
      "outputs": [
        {
          "internalType": "uint256",
          "name": "",
          "type": "uint256"
        }
      ],
      "payable": false,
      "stateMutability": "view",
      "type": "function"
    },
    {
      "constant": true,
      "inputs": [],
      "name": "pool",
      "outputs": [
        {
          "internalType": "address",
          "name": "",
          "type": "address"
        }
      ],
      "payable": false,
      "stateMutability": "view",
      "type": "function"
    },
    {
      "constant": true,
      "inputs": [
        {
          "internalType": "address",
          "name": "account",
          "type": "address"
        },
        {
          "internalType": "address",
          "name": "candidate",
          "type": "address"
        }
      ],
      "name": "recordedVote",
      "outputs": [
        {
          "internalType": "enum Candidate.Vote",
          "name": "",
          "type": "uint8"
        }
      ],
      "payable": false,
      "stateMutability": "view",
      "type": "function"
    },
    {
      "constant": true,
      "inputs": [
        {
          "internalType": "address",
          "name": "candidate",
          "type": "address"
        }
      ],
      "name": "rejectFor",
      "outputs": [
        {
          "internalType": "uint256",
          "name": "",
          "type": "uint256"
        }
      ],
      "payable": false,
      "stateMutability": "view",
      "type": "function"
    },
    {
      "constant": true,
      "inputs": [
        {
          "internalType": "address",
          "name": "candidate",
          "type": "address"
        }
      ],
      "name": "startFor",
      "outputs": [
        {
          "internalType": "uint256",
          "name": "",
          "type": "uint256"
        }
      ],
      "payable": false,
      "stateMutability": "view",
      "type": "function"
    },
    {
      "constant": true,
      "inputs": [
        {
          "internalType": "address",
          "name": "account",
          "type": "address"
        }
      ],
      "name": "statusOf",
      "outputs": [
        {
          "internalType": "enum Account.Status",
          "name": "",
          "type": "uint8"
        }
      ],
      "payable": false,
      "stateMutability": "view",
      "type": "function"
    },
    {
      "constant": true,
      "inputs": [],
      "name": "symbol",
      "outputs": [
        {
          "internalType": "string",
          "name": "",
          "type": "string"
        }
      ],
      "payable": false,
      "stateMutability": "view",
      "type": "function"
    },
    {
      "constant": true,
      "inputs": [],
      "name": "totalBonded",
      "outputs": [
        {
          "internalType": "uint256",
          "name": "",
          "type": "uint256"
        }
      ],
      "payable": false,
      "stateMutability": "view",
      "type": "function"
    },
    {
      "constant": true,
      "inputs": [
        {
          "internalType": "uint256",
          "name": "epoch",
          "type": "uint256"
        }
      ],
      "name": "totalBondedAt",
      "outputs": [
        {
          "internalType": "uint256",
          "name": "",
          "type": "uint256"
        }
      ],
      "payable": false,
      "stateMutability": "view",
      "type": "function"
    },
    {
      "constant": true,
      "inputs": [],
      "name": "totalCoupons",
      "outputs": [
        {
          "internalType": "uint256",
          "name": "",
          "type": "uint256"
        }
      ],
      "payable": false,
      "stateMutability": "view",
      "type": "function"
    },
    {
      "constant": true,
      "inputs": [],
      "name": "totalDebt",
      "outputs": [
        {
          "internalType": "uint256",
          "name": "",
          "type": "uint256"
        }
      ],
      "payable": false,
      "stateMutability": "view",
      "type": "function"
    },
    {
      "constant": true,
      "inputs": [],
      "name": "totalNet",
      "outputs": [
        {
          "internalType": "uint256",
          "name": "",
          "type": "uint256"
        }
      ],
      "payable": false,
      "stateMutability": "view",
      "type": "function"
    },
    {
      "constant": true,
      "inputs": [],
      "name": "totalRedeemable",
      "outputs": [
        {
          "internalType": "uint256",
          "name": "",
          "type": "uint256"
        }
      ],
      "payable": false,
      "stateMutability": "view",
      "type": "function"
    },
    {
      "constant": true,
      "inputs": [],
      "name": "totalStaged",
      "outputs": [
        {
          "internalType": "uint256",
          "name": "",
          "type": "uint256"
        }
      ],
      "payable": false,
      "stateMutability": "view",
      "type": "function"
    },
    {
      "constant": true,
      "inputs": [],
      "name": "totalSupply",
      "outputs": [
        {
          "internalType": "uint256",
          "name": "",
          "type": "uint256"
        }
      ],
      "payable": false,
      "stateMutability": "view",
      "type": "function"
    },
    {
      "constant": false,
      "inputs": [
        {
          "internalType": "address",
          "name": "recipient",
          "type": "address"
        },
        {
          "internalType": "uint256",
          "name": "amount",
          "type": "uint256"
        }
      ],
      "name": "transfer",
      "outputs": [
        {
          "internalType": "bool",
          "name": "",
          "type": "bool"
        }
      ],
      "payable": false,
      "stateMutability": "nonpayable",
      "type": "function"
    },
    {
      "constant": false,
      "inputs": [
        {
          "internalType": "address",
          "name": "sender",
          "type": "address"
        },
        {
          "internalType": "address",
          "name": "recipient",
          "type": "address"
        },
        {
          "internalType": "uint256",
          "name": "amount",
          "type": "uint256"
        }
      ],
      "name": "transferFrom",
      "outputs": [
        {
          "internalType": "bool",
          "name": "",
          "type": "bool"
        }
      ],
      "payable": false,
      "stateMutability": "nonpayable",
      "type": "function"
    },
    {
      "constant": true,
      "inputs": [
        {
          "internalType": "address",
          "name": "candidate",
          "type": "address"
        }
      ],
      "name": "votesFor",
      "outputs": [
        {
          "internalType": "uint256",
          "name": "",
          "type": "uint256"
        }
      ],
      "payable": false,
      "stateMutability": "view",
      "type": "function"
    },
    {
      "constant": false,
      "inputs": [
        {
          "internalType": "uint256",
          "name": "amount",
          "type": "uint256"
        }
      ],
      "name": "incrementTotalBondedE",
      "outputs": [],
      "payable": false,
      "stateMutability": "nonpayable",
      "type": "function"
    },
    {
      "constant": false,
      "inputs": [
        {
          "internalType": "uint256",
          "name": "amount",
          "type": "uint256"
        },
        {
          "internalType": "string",
          "name": "reason",
          "type": "string"
        }
      ],
      "name": "decrementTotalBondedE",
      "outputs": [],
      "payable": false,
      "stateMutability": "nonpayable",
      "type": "function"
    },
    {
      "constant": false,
      "inputs": [
        {
          "internalType": "uint256",
          "name": "amount",
          "type": "uint256"
        }
      ],
      "name": "incrementTotalDebtE",
      "outputs": [],
      "payable": false,
      "stateMutability": "nonpayable",
      "type": "function"
    },
    {
      "constant": false,
      "inputs": [
        {
          "internalType": "uint256",
          "name": "amount",
          "type": "uint256"
        },
        {
          "internalType": "string",
          "name": "reason",
          "type": "string"
        }
      ],
      "name": "decrementTotalDebtE",
      "outputs": [],
      "payable": false,
      "stateMutability": "nonpayable",
      "type": "function"
    },
    {
      "constant": false,
      "inputs": [
        {
          "internalType": "uint256",
          "name": "amount",
          "type": "uint256"
        }
      ],
      "name": "incrementTotalRedeemableE",
      "outputs": [],
      "payable": false,
      "stateMutability": "nonpayable",
      "type": "function"
    },
    {
      "constant": false,
      "inputs": [
        {
          "internalType": "uint256",
          "name": "amount",
          "type": "uint256"
        },
        {
          "internalType": "string",
          "name": "reason",
          "type": "string"
        }
      ],
      "name": "decrementTotalRedeemableE",
      "outputs": [],
      "payable": false,
      "stateMutability": "nonpayable",
      "type": "function"
    },
    {
      "constant": false,
      "inputs": [
        {
          "internalType": "address",
          "name": "account",
          "type": "address"
        },
        {
          "internalType": "uint256",
          "name": "amount",
          "type": "uint256"
        }
      ],
      "name": "incrementBalanceOfE",
      "outputs": [],
      "payable": false,
      "stateMutability": "nonpayable",
      "type": "function"
    },
    {
      "constant": false,
      "inputs": [
        {
          "internalType": "address",
          "name": "account",
          "type": "address"
        },
        {
          "internalType": "uint256",
          "name": "amount",
          "type": "uint256"
        },
        {
          "internalType": "string",
          "name": "reason",
          "type": "string"
        }
      ],
      "name": "decrementBalanceOfE",
      "outputs": [],
      "payable": false,
      "stateMutability": "nonpayable",
      "type": "function"
    },
    {
      "constant": false,
      "inputs": [
        {
          "internalType": "address",
          "name": "account",
          "type": "address"
        },
        {
          "internalType": "uint256",
          "name": "amount",
          "type": "uint256"
        }
      ],
      "name": "incrementBalanceOfStagedE",
      "outputs": [],
      "payable": false,
      "stateMutability": "nonpayable",
      "type": "function"
    },
    {
      "constant": false,
      "inputs": [
        {
          "internalType": "address",
          "name": "account",
          "type": "address"
        },
        {
          "internalType": "uint256",
          "name": "amount",
          "type": "uint256"
        },
        {
          "internalType": "string",
          "name": "reason",
          "type": "string"
        }
      ],
      "name": "decrementBalanceOfStagedE",
      "outputs": [],
      "payable": false,
      "stateMutability": "nonpayable",
      "type": "function"
    },
    {
      "constant": false,
      "inputs": [
        {
          "internalType": "address",
          "name": "account",
          "type": "address"
        },
        {
          "internalType": "uint256",
          "name": "epoch",
          "type": "uint256"
        },
        {
          "internalType": "uint256",
          "name": "amount",
          "type": "uint256"
        }
      ],
      "name": "incrementBalanceOfCouponsE",
      "outputs": [],
      "payable": false,
      "stateMutability": "nonpayable",
      "type": "function"
    },
    {
      "constant": false,
      "inputs": [
        {
          "internalType": "address",
          "name": "account",
          "type": "address"
        },
        {
          "internalType": "uint256",
          "name": "epoch",
          "type": "uint256"
        },
        {
          "internalType": "uint256",
          "name": "amount",
          "type": "uint256"
        },
        {
          "internalType": "string",
          "name": "reason",
          "type": "string"
        }
      ],
      "name": "decrementBalanceOfCouponsE",
      "outputs": [],
      "payable": false,
      "stateMutability": "nonpayable",
      "type": "function"
    },
    {
      "constant": false,
      "inputs": [
        {
          "internalType": "address",
          "name": "account",
          "type": "address"
        }
      ],
      "name": "unfreezeE",
      "outputs": [],
      "payable": false,
      "stateMutability": "nonpayable",
      "type": "function"
    },
    {
      "constant": false,
      "inputs": [
        {
          "internalType": "address",
          "name": "owner",
          "type": "address"
        },
        {
          "internalType": "address",
          "name": "spender",
          "type": "address"
        },
        {
          "internalType": "uint256",
          "name": "amount",
          "type": "uint256"
        }
      ],
      "name": "updateAllowanceCouponsE",
      "outputs": [],
      "payable": false,
      "stateMutability": "nonpayable",
      "type": "function"
    },
    {
      "constant": false,
      "inputs": [
        {
          "internalType": "address",
          "name": "owner",
          "type": "address"
        },
        {
          "internalType": "address",
          "name": "spender",
          "type": "address"
        },
        {
          "internalType": "uint256",
          "name": "amount",
          "type": "uint256"
        },
        {
          "internalType": "string",
          "name": "reason",
          "type": "string"
        }
      ],
      "name": "decrementAllowanceCouponsE",
      "outputs": [],
      "payable": false,
      "stateMutability": "nonpayable",
      "type": "function"
    },
    {
      "constant": false,
      "inputs": [
        {
          "internalType": "uint256",
          "name": "start",
          "type": "uint256"
        },
        {
          "internalType": "uint256",
          "name": "period",
          "type": "uint256"
        }
      ],
      "name": "setEpochParamsE",
      "outputs": [],
      "payable": false,
      "stateMutability": "nonpayable",
      "type": "function"
    },
    {
      "constant": false,
      "inputs": [],
      "name": "incrementEpochE",
      "outputs": [],
      "payable": false,
      "stateMutability": "nonpayable",
      "type": "function"
    },
    {
      "constant": false,
      "inputs": [],
      "name": "snapshotTotalBondedE",
      "outputs": [],
      "payable": false,
      "stateMutability": "nonpayable",
      "type": "function"
    },
    {
      "constant": false,
      "inputs": [
        {
          "internalType": "uint256",
          "name": "epoch",
          "type": "uint256"
        },
        {
          "internalType": "uint256",
          "name": "expiration",
          "type": "uint256"
        }
      ],
      "name": "initializeCouponsExpirationE",
      "outputs": [],
      "payable": false,
      "stateMutability": "nonpayable",
      "type": "function"
    },
    {
      "constant": false,
      "inputs": [
        {
          "internalType": "uint256",
          "name": "epoch",
          "type": "uint256"
        }
      ],
      "name": "eliminateOutstandingCouponsE",
      "outputs": [],
      "payable": false,
      "stateMutability": "nonpayable",
      "type": "function"
    },
    {
      "constant": false,
      "inputs": [
        {
          "internalType": "address",
          "name": "candidate",
          "type": "address"
        },
        {
          "internalType": "uint256",
          "name": "period",
          "type": "uint256"
        }
      ],
      "name": "createCandidateE",
      "outputs": [],
      "payable": false,
      "stateMutability": "nonpayable",
      "type": "function"
    },
    {
      "constant": false,
      "inputs": [
        {
          "internalType": "address",
          "name": "account",
          "type": "address"
        },
        {
          "internalType": "address",
          "name": "candidate",
          "type": "address"
        },
        {
          "internalType": "enum Candidate.Vote",
          "name": "vote",
          "type": "uint8"
        }
      ],
      "name": "recordVoteE",
      "outputs": [],
      "payable": false,
      "stateMutability": "nonpayable",
      "type": "function"
    },
    {
      "constant": false,
      "inputs": [
        {
          "internalType": "address",
          "name": "candidate",
          "type": "address"
        },
        {
          "internalType": "uint256",
          "name": "amount",
          "type": "uint256"
        }
      ],
      "name": "incrementApproveForE",
      "outputs": [],
      "payable": false,
      "stateMutability": "nonpayable",
      "type": "function"
    },
    {
      "constant": false,
      "inputs": [
        {
          "internalType": "address",
          "name": "candidate",
          "type": "address"
        },
        {
          "internalType": "uint256",
          "name": "amount",
          "type": "uint256"
        },
        {
          "internalType": "string",
          "name": "reason",
          "type": "string"
        }
      ],
      "name": "decrementApproveForE",
      "outputs": [],
      "payable": false,
      "stateMutability": "nonpayable",
      "type": "function"
    },
    {
      "constant": false,
      "inputs": [
        {
          "internalType": "address",
          "name": "candidate",
          "type": "address"
        },
        {
          "internalType": "uint256",
          "name": "amount",
          "type": "uint256"
        }
      ],
      "name": "incrementRejectForE",
      "outputs": [],
      "payable": false,
      "stateMutability": "nonpayable",
      "type": "function"
    },
    {
      "constant": false,
      "inputs": [
        {
          "internalType": "address",
          "name": "candidate",
          "type": "address"
        },
        {
          "internalType": "uint256",
          "name": "amount",
          "type": "uint256"
        },
        {
          "internalType": "string",
          "name": "reason",
          "type": "string"
        }
      ],
      "name": "decrementRejectForE",
      "outputs": [],
      "payable": false,
      "stateMutability": "nonpayable",
      "type": "function"
    },
    {
      "constant": false,
      "inputs": [
        {
          "internalType": "address",
          "name": "account",
          "type": "address"
        },
        {
          "internalType": "address",
          "name": "candidate",
          "type": "address"
        }
      ],
      "name": "placeLockE",
      "outputs": [],
      "payable": false,
      "stateMutability": "nonpayable",
      "type": "function"
    },
    {
      "constant": false,
      "inputs": [
        {
          "internalType": "address",
          "name": "candidate",
          "type": "address"
        }
      ],
      "name": "initializedE",
      "outputs": [],
      "payable": false,
      "stateMutability": "nonpayable",
      "type": "function"
    },
    {
      "constant": false,
      "inputs": [
        {
          "internalType": "uint256",
          "name": "timestamp",
          "type": "uint256"
        }
      ],
      "name": "setBlockTimestamp",
      "outputs": [],
      "payable": false,
      "stateMutability": "nonpayable",
      "type": "function"
    }
  ],
  "bytecode": "0x608060405234801561001057600080fd5b5042600f55612011806100246000396000f3fe608060405234801561001057600080fd5b50600436106104075760003560e01c806386cf9f1411610220578063b11ee0e311610130578063d6d8816d116100b8578063f1b7cf4911610087578063f1b7cf491461086a578063f35adf7e1461087d578063f7a3181814610885578063fc7b9c1814610898578063ffbe3b73146108a057610407565b8063d6d8816d14610823578063d83d3ed514610836578063dd62ed3e14610849578063e0abdf661461085757610407565b8063c2aeb5fe116100ff578063c2aeb5fe146107cf578063c9aff70c146107e2578063cc8d823c146107f5578063cf02377914610808578063d60b347f1461081057610407565b8063b11ee0e314610783578063b32a2f9014610796578063bc7513e2146107a9578063c1410c02146107bc57610407565b80639f6e1b26116101b3578063a6f37b5311610182578063a6f37b5314610737578063a9059cbb1461042a578063a9b3cf151461074a578063adbff2be1461075d578063ae5c23811461077057610407565b80639f6e1b26146106f6578063a00e14d114610709578063a50cd8e71461071c578063a6c409f11461072f57610407565b806397a5d5b5116101ef57806397a5d5b5146106b55780639a649edc146106c85780639b82b49b146106d05780639be46493146106e357610407565b806386cf9f141461067f5780638de2e57314610692578063900cf0cf146106a557806395d89b41146106ad57610407565b80633fd4973c1161031b5780636b862d66116102ae57806375d5024b1161027d57806375d5024b1461062b5780637cb95a321461063e5780637dc0d1d014610651578063825ad607146106595780638413e52a1461066c57610407565b80636b862d66146105ea57806370a08231146105fd57806371c511eb1461061057806372924d2a1461061857610407565b806351adeb57116102ea57806351adeb57146105a75780635c60da1b146105bc57806364668022146105c45780636a39e328146105d757610407565b80633fd4973c1461057157806344d96e95146105845780634c7360991461058c5780635053e4611461059f57610407565b80631edbcf6c1161039e578063323474221161036d5780633234742214610505578063353a420c146105185780633a3e6c811461052b5780633f7bcaf31461053e5780633fbba9a61461055157610407565b80631edbcf6c146104c257806323b872dd146104ca578063259f7adf146104dd578063313ce567146104f057610407565b806315e14bf6116103da57806315e14bf61461047f57806316f0115b1461049257806318160ddd146104a75780631a08e22a146104af57610407565b806306fdde031461040c578063095ea7b31461042a5780630dc6d3a31461044a57806310e95b6c1461045f575b600080fd5b6104146108b3565b6040516104219190611ec5565b60405180910390f35b61043d610438366004611bed565b6108ea565b6040516104219190611e9b565b61045d610458366004611b6f565b6108f3565b005b61047261046d366004611cec565b61093c565b6040516104219190611ef6565b61047261048d366004611a7f565b610954565b61049a610972565b6040516104219190611e8d565b610472610981565b61045d6104bd366004611d7e565b610987565b610472610995565b61043d6104d8366004611b2c565b61099b565b61045d6104eb366004611cec565b6109a4565b6104f86109b0565b6040516104219190611f04565b61045d610513366004611d28565b6109b5565b610472610526366004611a7f565b6109fa565b61043d610539366004611a7f565b610a18565b61045d61054c366004611b2c565b610a35565b61056461055f366004611aa5565b610a40565b6040516104219190611eb7565b61045d61057f366004611c1d565b610a73565b610472610aba565b61047261059a366004611d7e565b610ac0565b610472610af0565b6105af610b13565b6040516104219190611ea9565b61049a610b22565b6104726105d2366004611a7f565b610b47565b6104726105e5366004611cec565b610b65565b61045d6105f8366004611c85565b610b7a565b61047261060b366004611a7f565b610b85565b61045d610ba3565b61045d610626366004611d28565b610bad565b61043d610639366004611cec565b610bed565b61045d61064c366004611c1d565b610c00565b6105af610c41565b610472610667366004611a7f565b610c50565b61045d61067a366004611adf565b610ca3565b61047261068d366004611a7f565b610cae565b61045d6106a0366004611cec565b610cc9565b610472610cd2565b610414610cd8565b6105646106c3366004611a7f565b610cf6565b610472610d5b565b61045d6106de366004611d28565b610d61565b61045d6106f1366004611a7f565b610da1565b610472610704366004611aa5565b610daa565b61045d610717366004611d7e565b610dd9565b61047261072a366004611a7f565b610de4565b610472610e07565b61045d610745366004611a7f565b610e9d565b61045d610758366004611cec565b610ea6565b61045d61076b366004611c1d565b610eaf565b61045d61077e366004611bed565b610ef0565b61045d610791366004611bed565b610efa565b61045d6107a4366004611c1d565b610f04565b6104726107b7366004611bed565b610f45565b61045d6107ca366004611aa5565b610f89565b61045d6107dd366004611cb7565b610f93565b6104726107f0366004611cec565b610fd5565b61045d610803366004611bed565b610fea565b610472610ff4565b61043d61081e366004611a7f565b610ffa565b61045d610831366004611cec565b61101b565b61045d610844366004611bed565b611024565b610472610438366004611aa5565b61045d610865366004611cec565b61102e565b610472610878366004611a7f565b611033565b61045d61104e565b61045d610893366004611bed565b611056565b610472611060565b6104726108ae366004611cec565b611066565b60408051808201909152601b81527f53746162696c697a65642053657420446f6c6c6172205374616b650000000000602082015290565b60005b92915050565b61093585858585858080601f01602080910402602001604051908101604052809392919081815260200183838082843760009201919091525061107892505050565b5050505050565b6000818152600d60205260409020600201545b919050565b6001600160a01b03166000908152600e602052604090206001015490565b600b546001600160a01b031690565b60035490565b61099182826110e9565b5050565b60065490565b60009392505050565b6109ad8161111b565b50565b601290565b6109f58383838080601f01602080910402602001604051908101604052809392919081815260200183838082843760009201919091525061113492505050565b505050565b6001600160a01b03166000908152600e602052604090206003015490565b6001600160a01b03166000908152600e6020526040902054151590565b6109f583838361114f565b6001600160a01b038082166000908152600e60209081526040808320938616835260049093019052205460ff1692915050565b610ab4848484848080601f01602080910402602001604051908101604052809392919081815260200183838082843760009201919091525061117f92505050565b50505050565b60045490565b6000828152600d60205260408120600301805483908110610add57fe5b9060005260206000200154905092915050565b6000610afa6119e9565b610b026111d0565b9050610b0d816111ff565b91505090565b6009546001600160a01b031690565b7f360894a13ba1a3210667c828492db98dca3e2076cc3735a920a3ca505d382bbc5490565b6001600160a01b03166000908152600e602052604090206002015490565b6000908152600d602052604090206003015490565b6109f5838383611221565b6001600160a01b03166000908152600c602052604090206001015490565b610bab6112c8565b565b6109f58383838080601f0160208091040260200160405190810160405280939291908181526020018383808284376000920191909152506112ef92505050565b6000610bf761130a565b90911115919050565b610ab4848484848080601f01602080910402602001604051908101604052809392919081815260200183838082843760009201919091525061130f92505050565b600a546001600160a01b031690565b600080610c5b610981565b905080610c6c57600091505061094f565b610c9c81610c90610c7c86610b85565b610c84610aba565b9063ffffffff61136016565b9063ffffffff6113a316565b9392505050565b6109f58383836113e5565b6001600160a01b03166000908152600c602052604090205490565b6109ad8161142f565b60025490565b6040805180820190915260048152635353445360e01b602082015290565b6000610d00610cd2565b6001600160a01b0383166000908152600c60205260409020600501541115610d2a5750600261094f565b6001600160a01b0382166000908152600c6020526040902060040154610d4e610cd2565b10156108ea5760016108ed565b60085490565b6109f58383838080601f01602080910402602001604051908101604052809392919081815260200183838082843760009201919091525061144892505050565b6109ad81611463565b6001600160a01b039182166000908152600c602090815260408083209390941682526003909201909152205490565b600091909155600155565b60006108ed610df2836109fa565b610dfb84610b47565b9063ffffffff61149516565b6000610e98610e14611060565b610e1c610b13565b6001600160a01b03166318160ddd6040518163ffffffff1660e01b815260040160206040518083038186803b158015610e5457600080fd5b505afa158015610e68573d6000803e3d6000fd5b505050506040513d601f19601f82011682018060405250610e8c9190810190611d0a565b9063ffffffff6114ba16565b905090565b6109ad816114fc565b6109ad81611523565b610ab4848484848080601f01602080910402602001604051908101604052809392919081815260200183838082843760009201919091525061156692505050565b6109918282611611565b61099182826116b9565b610ab4848484848080601f01602080910402602001604051908101604052809392919081815260200183838082843760009201919091525061171592505050565b6000610f5082610fd5565b610f5c575060006108ed565b506001600160a01b03919091166000908152600c6020908152604080832093835260029093019052205490565b6109918282611774565b61093585858585858080601f0160208091040260200160405190810160405280939291908181526020018383808284376000920191909152506117d492505050565b6000908152600d602052604090206001015490565b610991828261187f565b60055490565b6001600160a01b03166000908152600e602052604090206005015460ff1690565b6109ad816118ce565b61099182826118e7565b600f55565b6001600160a01b03166000908152600e602052604090205490565b610bab611913565b610991828261192c565b60075490565b6000908152600d602052604090205490565b6001600160a01b038085166000908152600c6020908152604080832093871683526003909301905220546110b390838363ffffffff61197b16565b6001600160a01b039485166000908152600c60209081526040808320969097168252600390950190945293909220929092555050565b6000828152600d6020908152604080832060020184905592825291812060030180546001810182559082529190200155565b60045461112e908263ffffffff61149516565b60045550565b60065461114890838363ffffffff61197b16565b6006555050565b6001600160a01b039283166000908152600c60209081526040808320949095168252600390930190925291902055565b6001600160a01b0383166000908152600e60205260409020600301546111ac90838363ffffffff61197b16565b6001600160a01b039093166000908152600e60205260409020600301929092555050565b6111d86119e9565b604051806060016040528060008152602001635ff865608152602001611c20815250905090565b60006108ed8260000151610dfb8460400151610c908660200151610e8c6119a7565b6001600160a01b0383166000908152600c60209081526040808320858452600201909152902054611258908263ffffffff61149516565b6001600160a01b0384166000908152600c60209081526040808320868452600201825280832093909355600d9052206001015461129b908263ffffffff61149516565b6000838152600d60205260409020600101556008546112c0908263ffffffff61149516565b600855505050565b6112d0610981565b600d60006112dc610cd2565b8152602081019190915260400160002055565b60075461130390838363ffffffff61197b16565b6007555050565b60b490565b6001600160a01b0383166000908152600e602052604090206002015461133c90838363ffffffff61197b16565b6001600160a01b039093166000908152600e60205260409020600201929092555050565b60008261136f575060006108ed565b8282028284828161137c57fe5b0414610c9c5760405162461bcd60e51b815260040161139a90611ee6565b60405180910390fd5b6000610c9c83836040518060400160405280601a81526020017f536166654d6174683a206469766973696f6e206279207a65726f0000000000008152506119ad565b6001600160a01b038083166000908152600e6020908152604080832093871683526004909301905220805482919060ff1916600183600281111561142557fe5b0217905550505050565b600754611442908263ffffffff61149516565b60075550565b60045461145c90838363ffffffff61197b16565b6004555050565b61147661146e6119e4565b610dfb610cd2565b6001600160a01b039091166000908152600c6020526040902060040155565b600082820183811015610c9c5760405162461bcd60e51b815260040161139a90611ed6565b6000610c9c83836040518060400160405280601e81526020017f536166654d6174683a207375627472616374696f6e206f766572666c6f77000081525061197b565b6001600160a01b03166000908152600e60205260409020600501805460ff19166001179055565b600061152e82610fd5565b90508061153b57506109ad565b60085461154e908263ffffffff6114ba16565b600855506000908152600d6020526040812060010155565b6001600160a01b0383166000908152600c602052604090206001015461159390838363ffffffff61197b16565b6001600160a01b0384166000908152600c60205260409020600101556003546115c390838363ffffffff61197b16565b6003556040516000906001600160a01b038516907fddf252ad1be2c89b69c2b068fc378daa952ba7f163c4a11628f55a4df523b3ef90611604908690611ef6565b60405180910390a3505050565b6001600160a01b0382166000908152600c602052604090206001015461163d908263ffffffff61149516565b6001600160a01b0383166000908152600c602052604090206001015560035461166c908263ffffffff61149516565b6003556040516001600160a01b038316906000907fddf252ad1be2c89b69c2b068fc378daa952ba7f163c4a11628f55a4df523b3ef906116ad908590611ef6565b60405180910390a35050565b6001600160a01b0382166000908152600c60205260409020546116e2908263ffffffff61149516565b6001600160a01b0383166000908152600c602052604090205560055461170e908263ffffffff61149516565b6005555050565b6001600160a01b0383166000908152600c602052604090205461173f90838363ffffffff61197b16565b6001600160a01b0384166000908152600c602052604090205560055461176c90838363ffffffff61197b16565b600555505050565b6001600160a01b0382166000908152600c6020526040812060050154906117a661179d84610954565b610dfb85611033565b905081811115610ab4576001600160a01b0384166000908152600c6020526040902060050181905550505050565b6001600160a01b0384166000908152600c6020908152604080832086845260020190915290205461180c90838363ffffffff61197b16565b6001600160a01b0385166000908152600c60209081526040808320878452600201825280832093909355600d9052206001015461185090838363ffffffff61197b16565b6000848152600d602052604090206001015560085461187690838363ffffffff61197b16565b60085550505050565b6001600160a01b0382166000908152600e60205260409020600301546118ab908263ffffffff61149516565b6001600160a01b039092166000908152600e602052604090206003019190915550565b6006546118e1908263ffffffff61149516565b60065550565b6118ef610cd2565b6001600160a01b039092166000908152600e60205260409020918255600190910155565b60025461192790600163ffffffff61149516565b600255565b6001600160a01b0382166000908152600e6020526040902060020154611958908263ffffffff61149516565b6001600160a01b039092166000908152600e602052604090206002019190915550565b6000818484111561199f5760405162461bcd60e51b815260040161139a9190611ec5565b505050900390565b600f5490565b600081836119ce5760405162461bcd60e51b815260040161139a9190611ec5565b5060008385816119da57fe5b0495945050505050565b601890565b60405180606001604052806000815260200160008152602001600081525090565b80356108ed81611fa4565b80356108ed81611fb8565b60008083601f840112611a3257600080fd5b50813567ffffffffffffffff811115611a4a57600080fd5b602083019150836001820283011115611a6257600080fd5b9250929050565b80356108ed81611fc5565b80516108ed81611fc5565b600060208284031215611a9157600080fd5b6000611a9d8484611a0a565b949350505050565b60008060408385031215611ab857600080fd5b6000611ac48585611a0a565b9250506020611ad585828601611a0a565b9150509250929050565b600080600060608486031215611af457600080fd5b6000611b008686611a0a565b9350506020611b1186828701611a0a565b9250506040611b2286828701611a15565b9150509250925092565b600080600060608486031215611b4157600080fd5b6000611b4d8686611a0a565b9350506020611b5e86828701611a0a565b9250506040611b2286828701611a69565b600080600080600060808688031215611b8757600080fd5b6000611b938888611a0a565b9550506020611ba488828901611a0a565b9450506040611bb588828901611a69565b935050606086013567ffffffffffffffff811115611bd257600080fd5b611bde88828901611a20565b92509250509295509295909350565b60008060408385031215611c0057600080fd5b6000611c0c8585611a0a565b9250506020611ad585828601611a69565b60008060008060608587031215611c3357600080fd5b6000611c3f8787611a0a565b9450506020611c5087828801611a69565b935050604085013567ffffffffffffffff811115611c6d57600080fd5b611c7987828801611a20565b95989497509550505050565b600080600060608486031215611c9a57600080fd5b6000611ca68686611a0a565b9350506020611b5e86828701611a69565b600080600080600060808688031215611ccf57600080fd5b6000611cdb8888611a0a565b9550506020611ba488828901611a69565b600060208284031215611cfe57600080fd5b6000611a9d8484611a69565b600060208284031215611d1c57600080fd5b6000611a9d8484611a74565b600080600060408486031215611d3d57600080fd5b6000611d498686611a69565b935050602084013567ffffffffffffffff811115611d6657600080fd5b611d7286828701611a20565b92509250509250925092565b60008060408385031215611d9157600080fd5b6000611c0c8585611a69565b611da681611f1f565b82525050565b611da681611f2a565b611da681611f4e565b611da681611f59565b6000611dd282611f12565b611ddc8185611f16565b9350611dec818560208601611f64565b611df581611f90565b9093019392505050565b6000611e0c601b83611f16565b7f536166654d6174683a206164646974696f6e206f766572666c6f770000000000815260200192915050565b6000611e45602183611f16565b7f536166654d6174683a206d756c7469706c69636174696f6e206f766572666c6f8152607760f81b602082015260400192915050565b611da681611f45565b611da681611f48565b602081016108ed8284611d9d565b602081016108ed8284611dac565b602081016108ed8284611db5565b602081016108ed8284611dbe565b60208082528101610c9c8184611dc7565b602080825281016108ed81611dff565b602080825281016108ed81611e38565b602081016108ed8284611e7b565b602081016108ed8284611e84565b5190565b90815260200190565b60006108ed82611f39565b151590565b8061094f81611f9a565b6001600160a01b031690565b90565b60ff1690565b60006108ed82611f1f565b60006108ed82611f2f565b60005b83811015611f7f578181015183820152602001611f67565b83811115610ab45750506000910152565b601f01601f191690565b600381106109ad57fe5b611fad81611f1f565b81146109ad57600080fd5b600381106109ad57600080fd5b611fad81611f4556fea365627a7a7231582076a106572dd7eee761385880bc192f83ad3166f2f83131b3fbf5505751c3a6366c6578706572696d656e74616cf564736f6c63430005110040",
  "source": "/*\n    Copyright 2021 Stabilized Set Dollar Devs, based on the works of the Empty Set Squad\n\n    Licensed under the Apache License, Version 2.0 (the \"License\");\n    you may not use this file except in compliance with the License.\n    You may obtain a copy of the License at\n\n    http://www.apache.org/licenses/LICENSE-2.0\n\n    Unless required by applicable law or agreed to in writing, software\n    distributed under the License is distributed on an \"AS IS\" BASIS,\n    WITHOUT WARRANTIES OR CONDITIONS OF ANY KIND, either express or implied.\n    See the License for the specific language governing permissions and\n    limitations under the License.\n*/\n\npragma solidity ^0.5.17;\npragma experimental ABIEncoderV2;\n\nimport \"../dao/Setters.sol\";\n\ncontract MockState is Setters {\n    uint256 internal _blockTimestamp;\n\n    constructor () public {\n        _blockTimestamp = block.timestamp;\n    }\n\n    /**\n     * Global\n     */\n\n    function incrementTotalBondedE(uint256 amount) external {\n        super.incrementTotalBonded(amount);\n    }\n\n    function decrementTotalBondedE(uint256 amount, string calldata reason) external {\n        super.decrementTotalBonded(amount, reason);\n    }\n\n    function incrementTotalDebtE(uint256 amount) external {\n        super.incrementTotalDebt(amount);\n    }\n\n    function decrementTotalDebtE(uint256 amount, string calldata reason) external {\n        super.decrementTotalDebt(amount, reason);\n    }\n\n    function incrementTotalRedeemableE(uint256 amount) external {\n        super.incrementTotalRedeemable(amount);\n    }\n\n    function decrementTotalRedeemableE(uint256 amount, string calldata reason) external {\n        super.decrementTotalRedeemable(amount, reason);\n    }\n\n    /**\n     * Account\n     */\n\n    function incrementBalanceOfE(address account, uint256 amount) external {\n        super.incrementBalanceOf(account, amount);\n    }\n\n    function decrementBalanceOfE(address account, uint256 amount, string calldata reason) external {\n        super.decrementBalanceOf(account, amount, reason);\n    }\n\n    function incrementBalanceOfStagedE(address account, uint256 amount) external {\n        super.incrementBalanceOfStaged(account, amount);\n    }\n\n    function decrementBalanceOfStagedE(address account, uint256 amount, string calldata reason) external {\n        super.decrementBalanceOfStaged(account, amount, reason);\n    }\n\n    function incrementBalanceOfCouponsE(address account, uint256 epoch, uint256 amount) external {\n        super.incrementBalanceOfCoupons(account, epoch, amount);\n    }\n\n    function decrementBalanceOfCouponsE(address account, uint256 epoch, uint256 amount, string calldata reason) external {\n        super.decrementBalanceOfCoupons(account, epoch, amount, reason);\n    }\n\n    function unfreezeE(address account) external {\n        super.unfreeze(account);\n    }\n\n    function updateAllowanceCouponsE(address owner, address spender, uint256 amount) external {\n        super.updateAllowanceCoupons(owner, spender, amount);\n    }\n\n    function decrementAllowanceCouponsE(address owner, address spender, uint256 amount, string calldata reason) external {\n        super.decrementAllowanceCoupons(owner, spender, amount, reason);\n    }\n\n    /**\n     * Epoch\n     */\n\n    function setEpochParamsE(uint256 start, uint256 period) external {\n        _state.epoch.start = start;\n        _state.epoch.period = period;\n    }\n\n    function incrementEpochE() external {\n        super.incrementEpoch();\n    }\n\n    function snapshotTotalBondedE() external {\n        super.snapshotTotalBonded();\n    }\n\n    function initializeCouponsExpirationE(uint256 epoch, uint256 expiration) external {\n        super.initializeCouponsExpiration(epoch, expiration);\n    }\n\n    function eliminateOutstandingCouponsE(uint256 epoch) external {\n       super.eliminateOutstandingCoupons(epoch);\n    }\n\n    /**\n     * Governance\n     */\n\n    function createCandidateE(address candidate, uint256 period) external {\n        super.createCandidate(candidate, period);\n    }\n\n    function recordVoteE(address account, address candidate, Candidate.Vote vote) external {\n        super.recordVote(account, candidate, vote);\n    }\n\n    function incrementApproveForE(address candidate, uint256 amount) external {\n        super.incrementApproveFor(candidate, amount);\n    }\n\n    function decrementApproveForE(address candidate, uint256 amount, string calldata reason) external {\n        super.decrementApproveFor(candidate, amount, reason);\n    }\n\n    function incrementRejectForE(address candidate, uint256 amount) external {\n        super.incrementRejectFor(candidate, amount);\n    }\n\n    function decrementRejectForE(address candidate, uint256 amount, string calldata reason) external {\n        super.decrementRejectFor(candidate, amount, reason);\n    }\n\n    function placeLockE(address account, address candidate) external {\n        super.placeLock(account, candidate);\n    }\n\n    function initializedE(address candidate) external {\n        super.initialized(candidate);\n    }\n\n    /**\n     * Mock\n     */\n\n    function setBlockTimestamp(uint256 timestamp) external {\n        _blockTimestamp = timestamp;\n    }\n\n    function blockTimestamp() internal view returns (uint256) {\n        return _blockTimestamp;\n    }\n}\n",
  "sourcePath": "/Users/apple/Desktop/dev/ssd-protocol/protocol/contracts/mock/MockState.sol",
  "compiler": {
    "name": "solc",
    "version": "0.5.17+commit.d19bba13.Emscripten.clang"
  },
  "schemaVersion": "3.3.3",
  "updatedAt": "2021-01-07T10:55:42.986Z",
  "devdoc": {
    "methods": {}
  },
  "userdoc": {
    "methods": {
      "balanceOfStaged(address)": {
        "notice": "Account"
      },
      "createCandidateE(address,uint256)": {
        "notice": "Governance"
      },
      "dollar()": {
        "notice": "Global"
      },
      "epoch()": {
        "notice": "Epoch"
      },
      "incrementBalanceOfE(address,uint256)": {
        "notice": "Account"
      },
      "incrementTotalBondedE(uint256)": {
        "notice": "Global"
      },
      "name()": {
        "notice": "ERC20 Interface"
      },
      "recordedVote(address,address)": {
        "notice": "Governance"
      },
      "setBlockTimestamp(uint256)": {
        "notice": "Mock"
      },
      "setEpochParamsE(uint256,uint256)": {
        "notice": "Epoch"
      },
      "transfer(address,uint256)": {
        "notice": "ERC20 Interface"
      }
    }
  }
}