{
  "contractName": "MockMarket",
  "abi": [
    {
      "inputs": [
        {
          "internalType": "address",
          "name": "pool",
          "type": "address"
        }
      ],
      "payable": false,
      "stateMutability": "nonpayable",
      "type": "constructor"
    },
    {
      "anonymous": false,
      "inputs": [
        {
          "indexed": true,
          "internalType": "address",
          "name": "owner",
          "type": "address"
        },
        {
          "indexed": true,
          "internalType": "address",
          "name": "spender",
          "type": "address"
        },
        {
          "indexed": false,
          "internalType": "uint256",
          "name": "value",
          "type": "uint256"
        }
      ],
      "name": "CouponApproval",
      "type": "event"
    },
    {
      "anonymous": false,
      "inputs": [
        {
          "indexed": true,
          "internalType": "address",
          "name": "account",
          "type": "address"
        },
        {
          "indexed": true,
          "internalType": "uint256",
          "name": "epoch",
          "type": "uint256"
        },
        {
          "indexed": false,
          "internalType": "uint256",
          "name": "couponAmount",
          "type": "uint256"
        }
      ],
      "name": "CouponBurn",
      "type": "event"
    },
    {
      "anonymous": false,
      "inputs": [
        {
          "indexed": true,
          "internalType": "uint256",
          "name": "epoch",
          "type": "uint256"
        },
        {
          "indexed": false,
          "internalType": "uint256",
          "name": "couponsExpired",
          "type": "uint256"
        },
        {
          "indexed": false,
          "internalType": "uint256",
          "name": "lessRedeemable",
          "type": "uint256"
        },
        {
          "indexed": false,
          "internalType": "uint256",
          "name": "lessDebt",
          "type": "uint256"
        },
        {
          "indexed": false,
          "internalType": "uint256",
          "name": "newBonded",
          "type": "uint256"
        }
      ],
      "name": "CouponExpiration",
      "type": "event"
    },
    {
      "anonymous": false,
      "inputs": [
        {
          "indexed": true,
          "internalType": "address",
          "name": "account",
          "type": "address"
        },
        {
          "indexed": true,
          "internalType": "uint256",
          "name": "epoch",
          "type": "uint256"
        },
        {
          "indexed": false,
          "internalType": "uint256",
          "name": "dollarAmount",
          "type": "uint256"
        },
        {
          "indexed": false,
          "internalType": "uint256",
          "name": "couponAmount",
          "type": "uint256"
        }
      ],
      "name": "CouponPurchase",
      "type": "event"
    },
    {
      "anonymous": false,
      "inputs": [
        {
          "indexed": true,
          "internalType": "address",
          "name": "account",
          "type": "address"
        },
        {
          "indexed": true,
          "internalType": "uint256",
          "name": "epoch",
          "type": "uint256"
        },
        {
          "indexed": false,
          "internalType": "uint256",
          "name": "couponAmount",
          "type": "uint256"
        }
      ],
      "name": "CouponRedemption",
      "type": "event"
    },
    {
      "anonymous": false,
      "inputs": [
        {
          "indexed": true,
          "internalType": "address",
          "name": "from",
          "type": "address"
        },
        {
          "indexed": true,
          "internalType": "address",
          "name": "to",
          "type": "address"
        },
        {
          "indexed": true,
          "internalType": "uint256",
          "name": "epoch",
          "type": "uint256"
        },
        {
          "indexed": false,
          "internalType": "uint256",
          "name": "value",
          "type": "uint256"
        }
      ],
      "name": "CouponTransfer",
      "type": "event"
    },
    {
      "anonymous": false,
      "inputs": [
        {
          "indexed": true,
          "internalType": "address",
          "name": "from",
          "type": "address"
        },
        {
          "indexed": true,
          "internalType": "address",
          "name": "to",
          "type": "address"
        },
        {
          "indexed": false,
          "internalType": "uint256",
          "name": "value",
          "type": "uint256"
        }
      ],
      "name": "Transfer",
      "type": "event"
    },
    {
      "constant": true,
      "inputs": [
        {
          "internalType": "address",
          "name": "owner",
          "type": "address"
        },
        {
          "internalType": "address",
          "name": "spender",
          "type": "address"
        }
      ],
      "name": "allowance",
      "outputs": [
        {
          "internalType": "uint256",
          "name": "",
          "type": "uint256"
        }
      ],
      "payable": false,
      "stateMutability": "view",
      "type": "function"
    },
    {
      "constant": true,
      "inputs": [
        {
          "internalType": "address",
          "name": "owner",
          "type": "address"
        },
        {
          "internalType": "address",
          "name": "spender",
          "type": "address"
        }
      ],
      "name": "allowanceCoupons",
      "outputs": [
        {
          "internalType": "uint256",
          "name": "",
          "type": "uint256"
        }
      ],
      "payable": false,
      "stateMutability": "view",
      "type": "function"
    },
    {
      "constant": false,
      "inputs": [
        {
          "internalType": "address",
          "name": "spender",
          "type": "address"
        },
        {
          "internalType": "uint256",
          "name": "amount",
          "type": "uint256"
        }
      ],
      "name": "approve",
      "outputs": [
        {
          "internalType": "bool",
          "name": "",
          "type": "bool"
        }
      ],
      "payable": false,
      "stateMutability": "nonpayable",
      "type": "function"
    },
    {
      "constant": false,
      "inputs": [
        {
          "internalType": "address",
          "name": "spender",
          "type": "address"
        },
        {
          "internalType": "uint256",
          "name": "amount",
          "type": "uint256"
        }
      ],
      "name": "approveCoupons",
      "outputs": [],
      "payable": false,
      "stateMutability": "nonpayable",
      "type": "function"
    },
    {
      "constant": true,
      "inputs": [
        {
          "internalType": "address",
          "name": "candidate",
          "type": "address"
        }
      ],
      "name": "approveFor",
      "outputs": [
        {
          "internalType": "uint256",
          "name": "",
          "type": "uint256"
        }
      ],
      "payable": false,
      "stateMutability": "view",
      "type": "function"
    },
    {
      "constant": true,
      "inputs": [
        {
          "internalType": "address",
          "name": "account",
          "type": "address"
        }
      ],
      "name": "balanceOf",
      "outputs": [
        {
          "internalType": "uint256",
          "name": "",
          "type": "uint256"
        }
      ],
      "payable": false,
      "stateMutability": "view",
      "type": "function"
    },
    {
      "constant": true,
      "inputs": [
        {
          "internalType": "address",
          "name": "account",
          "type": "address"
        }
      ],
      "name": "balanceOfBonded",
      "outputs": [
        {
          "internalType": "uint256",
          "name": "",
          "type": "uint256"
        }
      ],
      "payable": false,
      "stateMutability": "view",
      "type": "function"
    },
    {
      "constant": true,
      "inputs": [
        {
          "internalType": "address",
          "name": "account",
          "type": "address"
        },
        {
          "internalType": "uint256",
          "name": "epoch",
          "type": "uint256"
        }
      ],
      "name": "balanceOfCoupons",
      "outputs": [
        {
          "internalType": "uint256",
          "name": "",
          "type": "uint256"
        }
      ],
      "payable": false,
      "stateMutability": "view",
      "type": "function"
    },
    {
      "constant": true,
      "inputs": [
        {
          "internalType": "address",
          "name": "account",
          "type": "address"
        }
      ],
      "name": "balanceOfStaged",
      "outputs": [
        {
          "internalType": "uint256",
          "name": "",
          "type": "uint256"
        }
      ],
      "payable": false,
      "stateMutability": "view",
      "type": "function"
    },
    {
      "constant": true,
      "inputs": [
        {
          "internalType": "uint256",
          "name": "epoch",
          "type": "uint256"
        }
      ],
      "name": "bootstrappingAt",
      "outputs": [
        {
          "internalType": "bool",
          "name": "",
          "type": "bool"
        }
      ],
      "payable": false,
      "stateMutability": "view",
      "type": "function"
    },
    {
      "constant": false,
      "inputs": [
        {
          "internalType": "address",
          "name": "account",
          "type": "address"
        },
        {
          "internalType": "uint256",
          "name": "amount",
          "type": "uint256"
        }
      ],
      "name": "burnFromAccountE",
      "outputs": [],
      "payable": false,
      "stateMutability": "nonpayable",
      "type": "function"
    },
    {
      "constant": false,
      "inputs": [
        {
          "internalType": "uint256",
          "name": "amount",
          "type": "uint256"
        }
      ],
      "name": "burnRedeemableE",
      "outputs": [],
      "payable": false,
      "stateMutability": "nonpayable",
      "type": "function"
    },
    {
      "constant": true,
      "inputs": [
        {
          "internalType": "uint256",
          "name": "amount",
          "type": "uint256"
        }
      ],
      "name": "couponPremium",
      "outputs": [
        {
          "internalType": "uint256",
          "name": "",
          "type": "uint256"
        }
      ],
      "payable": false,
      "stateMutability": "view",
      "type": "function"
    },
    {
      "constant": true,
      "inputs": [
        {
          "internalType": "uint256",
          "name": "couponEpoch",
          "type": "uint256"
        },
        {
          "internalType": "uint256",
          "name": "couponAmount",
          "type": "uint256"
        }
      ],
      "name": "couponRedemptionPenalty",
      "outputs": [
        {
          "internalType": "uint256",
          "name": "",
          "type": "uint256"
        }
      ],
      "payable": false,
      "stateMutability": "view",
      "type": "function"
    },
    {
      "constant": true,
      "inputs": [
        {
          "internalType": "uint256",
          "name": "epoch",
          "type": "uint256"
        }
      ],
      "name": "couponsExpiration",
      "outputs": [
        {
          "internalType": "uint256",
          "name": "",
          "type": "uint256"
        }
      ],
      "payable": false,
      "stateMutability": "view",
      "type": "function"
    },
    {
      "constant": false,
      "inputs": [
        {
          "internalType": "address",
          "name": "candidate",
          "type": "address"
        },
        {
          "internalType": "uint256",
          "name": "period",
          "type": "uint256"
        }
      ],
      "name": "createCandidateE",
      "outputs": [],
      "payable": false,
      "stateMutability": "nonpayable",
      "type": "function"
    },
    {
      "constant": true,
      "inputs": [],
      "name": "decimals",
      "outputs": [
        {
          "internalType": "uint8",
          "name": "",
          "type": "uint8"
        }
      ],
      "payable": false,
      "stateMutability": "view",
      "type": "function"
    },
    {
      "constant": false,
      "inputs": [
        {
          "internalType": "uint256",
          "name": "amount",
          "type": "uint256"
        }
      ],
      "name": "decreaseDebtE",
      "outputs": [],
      "payable": false,
      "stateMutability": "nonpayable",
      "type": "function"
    },
    {
      "constant": false,
      "inputs": [
        {
          "internalType": "address",
          "name": "owner",
          "type": "address"
        },
        {
          "internalType": "address",
          "name": "spender",
          "type": "address"
        },
        {
          "internalType": "uint256",
          "name": "amount",
          "type": "uint256"
        },
        {
          "internalType": "string",
          "name": "reason",
          "type": "string"
        }
      ],
      "name": "decrementAllowanceCouponsE",
      "outputs": [],
      "payable": false,
      "stateMutability": "nonpayable",
      "type": "function"
    },
    {
      "constant": false,
      "inputs": [
        {
          "internalType": "address",
          "name": "candidate",
          "type": "address"
        },
        {
          "internalType": "uint256",
          "name": "amount",
          "type": "uint256"
        },
        {
          "internalType": "string",
          "name": "reason",
          "type": "string"
        }
      ],
      "name": "decrementApproveForE",
      "outputs": [],
      "payable": false,
      "stateMutability": "nonpayable",
      "type": "function"
    },
    {
      "constant": false,
      "inputs": [
        {
          "internalType": "address",
          "name": "account",
          "type": "address"
        },
        {
          "internalType": "uint256",
          "name": "epoch",
          "type": "uint256"
        },
        {
          "internalType": "uint256",
          "name": "amount",
          "type": "uint256"
        },
        {
          "internalType": "string",
          "name": "reason",
          "type": "string"
        }
      ],
      "name": "decrementBalanceOfCouponsE",
      "outputs": [],
      "payable": false,
      "stateMutability": "nonpayable",
      "type": "function"
    },
    {
      "constant": false,
      "inputs": [
        {
          "internalType": "address",
          "name": "account",
          "type": "address"
        },
        {
          "internalType": "uint256",
          "name": "amount",
          "type": "uint256"
        },
        {
          "internalType": "string",
          "name": "reason",
          "type": "string"
        }
      ],
      "name": "decrementBalanceOfE",
      "outputs": [],
      "payable": false,
      "stateMutability": "nonpayable",
      "type": "function"
    },
    {
      "constant": false,
      "inputs": [
        {
          "internalType": "address",
          "name": "account",
          "type": "address"
        },
        {
          "internalType": "uint256",
          "name": "amount",
          "type": "uint256"
        },
        {
          "internalType": "string",
          "name": "reason",
          "type": "string"
        }
      ],
      "name": "decrementBalanceOfStagedE",
      "outputs": [],
      "payable": false,
      "stateMutability": "nonpayable",
      "type": "function"
    },
    {
      "constant": false,
      "inputs": [
        {
          "internalType": "address",
          "name": "candidate",
          "type": "address"
        },
        {
          "internalType": "uint256",
          "name": "amount",
          "type": "uint256"
        },
        {
          "internalType": "string",
          "name": "reason",
          "type": "string"
        }
      ],
      "name": "decrementRejectForE",
      "outputs": [],
      "payable": false,
      "stateMutability": "nonpayable",
      "type": "function"
    },
    {
      "constant": false,
      "inputs": [
        {
          "internalType": "uint256",
          "name": "amount",
          "type": "uint256"
        },
        {
          "internalType": "string",
          "name": "reason",
          "type": "string"
        }
      ],
      "name": "decrementTotalBondedE",
      "outputs": [],
      "payable": false,
      "stateMutability": "nonpayable",
      "type": "function"
    },
    {
      "constant": false,
      "inputs": [
        {
          "internalType": "uint256",
          "name": "amount",
          "type": "uint256"
        },
        {
          "internalType": "string",
          "name": "reason",
          "type": "string"
        }
      ],
      "name": "decrementTotalDebtE",
      "outputs": [],
      "payable": false,
      "stateMutability": "nonpayable",
      "type": "function"
    },
    {
      "constant": false,
      "inputs": [
        {
          "internalType": "uint256",
          "name": "amount",
          "type": "uint256"
        },
        {
          "internalType": "string",
          "name": "reason",
          "type": "string"
        }
      ],
      "name": "decrementTotalRedeemableE",
      "outputs": [],
      "payable": false,
      "stateMutability": "nonpayable",
      "type": "function"
    },
    {
      "constant": true,
      "inputs": [],
      "name": "dollar",
      "outputs": [
        {
          "internalType": "contract IDollar",
          "name": "",
          "type": "address"
        }
      ],
      "payable": false,
      "stateMutability": "view",
      "type": "function"
    },
    {
      "constant": false,
      "inputs": [
        {
          "internalType": "uint256",
          "name": "epoch",
          "type": "uint256"
        }
      ],
      "name": "eliminateOutstandingCouponsE",
      "outputs": [],
      "payable": false,
      "stateMutability": "nonpayable",
      "type": "function"
    },
    {
      "constant": true,
      "inputs": [],
      "name": "epoch",
      "outputs": [
        {
          "internalType": "uint256",
          "name": "",
          "type": "uint256"
        }
      ],
      "payable": false,
      "stateMutability": "view",
      "type": "function"
    },
    {
      "constant": true,
      "inputs": [],
      "name": "epochTime",
      "outputs": [
        {
          "internalType": "uint256",
          "name": "",
          "type": "uint256"
        }
      ],
      "payable": false,
      "stateMutability": "view",
      "type": "function"
    },
    {
      "constant": true,
      "inputs": [
        {
          "internalType": "uint256",
          "name": "epoch",
          "type": "uint256"
        }
      ],
      "name": "expiringCoupons",
      "outputs": [
        {
          "internalType": "uint256",
          "name": "",
          "type": "uint256"
        }
      ],
      "payable": false,
      "stateMutability": "view",
      "type": "function"
    },
    {
      "constant": true,
      "inputs": [
        {
          "internalType": "uint256",
          "name": "epoch",
          "type": "uint256"
        },
        {
          "internalType": "uint256",
          "name": "i",
          "type": "uint256"
        }
      ],
      "name": "expiringCouponsAtIndex",
      "outputs": [
        {
          "internalType": "uint256",
          "name": "",
          "type": "uint256"
        }
      ],
      "payable": false,
      "stateMutability": "view",
      "type": "function"
    },
    {
      "constant": true,
      "inputs": [],
      "name": "implementation",
      "outputs": [
        {
          "internalType": "address",
          "name": "impl",
          "type": "address"
        }
      ],
      "payable": false,
      "stateMutability": "view",
      "type": "function"
    },
    {
      "constant": false,
      "inputs": [
        {
          "internalType": "uint256",
          "name": "amount",
          "type": "uint256"
        }
      ],
      "name": "increaseDebtE",
      "outputs": [],
      "payable": false,
      "stateMutability": "nonpayable",
      "type": "function"
    },
    {
      "constant": false,
      "inputs": [
        {
          "internalType": "address",
          "name": "candidate",
          "type": "address"
        },
        {
          "internalType": "uint256",
          "name": "amount",
          "type": "uint256"
        }
      ],
      "name": "incrementApproveForE",
      "outputs": [],
      "payable": false,
      "stateMutability": "nonpayable",
      "type": "function"
    },
    {
      "constant": false,
      "inputs": [
        {
          "internalType": "address",
          "name": "account",
          "type": "address"
        },
        {
          "internalType": "uint256",
          "name": "epoch",
          "type": "uint256"
        },
        {
          "internalType": "uint256",
          "name": "amount",
          "type": "uint256"
        }
      ],
      "name": "incrementBalanceOfCouponsE",
      "outputs": [],
      "payable": false,
      "stateMutability": "nonpayable",
      "type": "function"
    },
    {
      "constant": false,
      "inputs": [
        {
          "internalType": "address",
          "name": "account",
          "type": "address"
        },
        {
          "internalType": "uint256",
          "name": "amount",
          "type": "uint256"
        }
      ],
      "name": "incrementBalanceOfE",
      "outputs": [],
      "payable": false,
      "stateMutability": "nonpayable",
      "type": "function"
    },
    {
      "constant": false,
      "inputs": [
        {
          "internalType": "address",
          "name": "account",
          "type": "address"
        },
        {
          "internalType": "uint256",
          "name": "amount",
          "type": "uint256"
        }
      ],
      "name": "incrementBalanceOfStagedE",
      "outputs": [],
      "payable": false,
      "stateMutability": "nonpayable",
      "type": "function"
    },
    {
      "constant": false,
      "inputs": [],
      "name": "incrementEpochE",
      "outputs": [],
      "payable": false,
      "stateMutability": "nonpayable",
      "type": "function"
    },
    {
      "constant": false,
      "inputs": [
        {
          "internalType": "address",
          "name": "candidate",
          "type": "address"
        },
        {
          "internalType": "uint256",
          "name": "amount",
          "type": "uint256"
        }
      ],
      "name": "incrementRejectForE",
      "outputs": [],
      "payable": false,
      "stateMutability": "nonpayable",
      "type": "function"
    },
    {
      "constant": false,
      "inputs": [
        {
          "internalType": "uint256",
          "name": "amount",
          "type": "uint256"
        }
      ],
      "name": "incrementTotalBondedE",
      "outputs": [],
      "payable": false,
      "stateMutability": "nonpayable",
      "type": "function"
    },
    {
      "constant": false,
      "inputs": [
        {
          "internalType": "uint256",
          "name": "amount",
          "type": "uint256"
        }
      ],
      "name": "incrementTotalDebtE",
      "outputs": [],
      "payable": false,
      "stateMutability": "nonpayable",
      "type": "function"
    },
    {
      "constant": false,
      "inputs": [
        {
          "internalType": "uint256",
          "name": "amount",
          "type": "uint256"
        }
      ],
      "name": "incrementTotalRedeemableE",
      "outputs": [],
      "payable": false,
      "stateMutability": "nonpayable",
      "type": "function"
    },
    {
      "constant": false,
      "inputs": [
        {
          "internalType": "uint256",
          "name": "epoch",
          "type": "uint256"
        },
        {
          "internalType": "uint256",
          "name": "expiration",
          "type": "uint256"
        }
      ],
      "name": "initializeCouponsExpirationE",
      "outputs": [],
      "payable": false,
      "stateMutability": "nonpayable",
      "type": "function"
    },
    {
      "constant": false,
      "inputs": [
        {
          "internalType": "address",
          "name": "candidate",
          "type": "address"
        }
      ],
      "name": "initializedE",
      "outputs": [],
      "payable": false,
      "stateMutability": "nonpayable",
      "type": "function"
    },
    {
      "constant": true,
      "inputs": [
        {
          "internalType": "address",
          "name": "candidate",
          "type": "address"
        }
      ],
      "name": "isInitialized",
      "outputs": [
        {
          "internalType": "bool",
          "name": "",
          "type": "bool"
        }
      ],
      "payable": false,
      "stateMutability": "view",
      "type": "function"
    },
    {
      "constant": true,
      "inputs": [
        {
          "internalType": "address",
          "name": "candidate",
          "type": "address"
        }
      ],
      "name": "isNominated",
      "outputs": [
        {
          "internalType": "bool",
          "name": "",
          "type": "bool"
        }
      ],
      "payable": false,
      "stateMutability": "view",
      "type": "function"
    },
    {
      "constant": false,
      "inputs": [
        {
          "internalType": "address",
          "name": "account",
          "type": "address"
        },
        {
          "internalType": "uint256",
          "name": "amount",
          "type": "uint256"
        }
      ],
      "name": "mintToAccountE",
      "outputs": [],
      "payable": false,
      "stateMutability": "nonpayable",
      "type": "function"
    },
    {
      "constant": false,
      "inputs": [
        {
          "internalType": "address",
          "name": "account",
          "type": "address"
        },
        {
          "internalType": "uint256",
          "name": "amount",
          "type": "uint256"
        }
      ],
      "name": "mintToE",
      "outputs": [],
      "payable": false,
      "stateMutability": "nonpayable",
      "type": "function"
    },
    {
      "constant": true,
      "inputs": [],
      "name": "name",
      "outputs": [
        {
          "internalType": "string",
          "name": "",
          "type": "string"
        }
      ],
      "payable": false,
      "stateMutability": "view",
      "type": "function"
    },
    {
      "constant": true,
      "inputs": [],
      "name": "oracle",
      "outputs": [
        {
          "internalType": "contract IOracle",
          "name": "",
          "type": "address"
        }
      ],
      "payable": false,
      "stateMutability": "view",
      "type": "function"
    },
    {
      "constant": true,
      "inputs": [
        {
          "internalType": "uint256",
          "name": "epoch",
          "type": "uint256"
        }
      ],
      "name": "outstandingCoupons",
      "outputs": [
        {
          "internalType": "uint256",
          "name": "",
          "type": "uint256"
        }
      ],
      "payable": false,
      "stateMutability": "view",
      "type": "function"
    },
    {
      "constant": true,
      "inputs": [
        {
          "internalType": "address",
          "name": "candidate",
          "type": "address"
        }
      ],
      "name": "periodFor",
      "outputs": [
        {
          "internalType": "uint256",
          "name": "",
          "type": "uint256"
        }
      ],
      "payable": false,
      "stateMutability": "view",
      "type": "function"
    },
    {
      "constant": false,
      "inputs": [
        {
          "internalType": "address",
          "name": "account",
          "type": "address"
        },
        {
          "internalType": "address",
          "name": "candidate",
          "type": "address"
        }
      ],
      "name": "placeLockE",
      "outputs": [],
      "payable": false,
      "stateMutability": "nonpayable",
      "type": "function"
    },
    {
      "constant": true,
      "inputs": [],
      "name": "pool",
      "outputs": [
        {
          "internalType": "address",
          "name": "",
          "type": "address"
        }
      ],
      "payable": false,
      "stateMutability": "view",
      "type": "function"
    },
    {
      "constant": false,
      "inputs": [
        {
          "internalType": "uint256",
          "name": "dollarAmount",
          "type": "uint256"
        }
      ],
      "name": "purchaseCoupons",
      "outputs": [
        {
          "internalType": "uint256",
          "name": "",
          "type": "uint256"
        }
      ],
      "payable": false,
      "stateMutability": "nonpayable",
      "type": "function"
    },
    {
      "constant": false,
      "inputs": [
        {
          "internalType": "address",
          "name": "account",
          "type": "address"
        },
        {
          "internalType": "address",
          "name": "candidate",
          "type": "address"
        },
        {
          "internalType": "enum Candidate.Vote",
          "name": "vote",
          "type": "uint8"
        }
      ],
      "name": "recordVoteE",
      "outputs": [],
      "payable": false,
      "stateMutability": "nonpayable",
      "type": "function"
    },
    {
      "constant": true,
      "inputs": [
        {
          "internalType": "address",
          "name": "account",
          "type": "address"
        },
        {
          "internalType": "address",
          "name": "candidate",
          "type": "address"
        }
      ],
      "name": "recordedVote",
      "outputs": [
        {
          "internalType": "enum Candidate.Vote",
          "name": "",
          "type": "uint8"
        }
      ],
      "payable": false,
      "stateMutability": "view",
      "type": "function"
    },
    {
      "constant": false,
      "inputs": [
        {
          "internalType": "uint256",
          "name": "couponEpoch",
          "type": "uint256"
        },
        {
          "internalType": "uint256",
          "name": "couponAmount",
          "type": "uint256"
        },
        {
          "internalType": "uint256",
          "name": "minOutput",
          "type": "uint256"
        }
      ],
      "name": "redeemCoupons",
      "outputs": [],
      "payable": false,
      "stateMutability": "nonpayable",
      "type": "function"
    },
    {
      "constant": false,
      "inputs": [
        {
          "internalType": "uint256",
          "name": "couponEpoch",
          "type": "uint256"
        },
        {
          "internalType": "uint256",
          "name": "couponAmount",
          "type": "uint256"
        }
      ],
      "name": "redeemCoupons",
      "outputs": [],
      "payable": false,
      "stateMutability": "nonpayable",
      "type": "function"
    },
    {
      "constant": false,
      "inputs": [
        {
          "internalType": "address",
          "name": "account",
          "type": "address"
        },
        {
          "internalType": "uint256",
          "name": "amount",
          "type": "uint256"
        }
      ],
      "name": "redeemToAccountE",
      "outputs": [],
      "payable": false,
      "stateMutability": "nonpayable",
      "type": "function"
    },
    {
      "constant": true,
      "inputs": [
        {
          "internalType": "address",
          "name": "candidate",
          "type": "address"
        }
      ],
      "name": "rejectFor",
      "outputs": [
        {
          "internalType": "uint256",
          "name": "",
          "type": "uint256"
        }
      ],
      "payable": false,
      "stateMutability": "view",
      "type": "function"
    },
    {
      "constant": false,
      "inputs": [
        {
          "internalType": "uint256",
          "name": "percent",
          "type": "uint256"
        }
      ],
      "name": "resetDebtE",
      "outputs": [],
      "payable": false,
      "stateMutability": "nonpayable",
      "type": "function"
    },
    {
      "constant": false,
      "inputs": [
        {
          "internalType": "uint256",
          "name": "timestamp",
          "type": "uint256"
        }
      ],
      "name": "setBlockTimestamp",
      "outputs": [],
      "payable": false,
      "stateMutability": "nonpayable",
      "type": "function"
    },
    {
      "constant": false,
      "inputs": [
        {
          "internalType": "uint256",
          "name": "start",
          "type": "uint256"
        },
        {
          "internalType": "uint256",
          "name": "period",
          "type": "uint256"
        }
      ],
      "name": "setEpochParamsE",
      "outputs": [],
      "payable": false,
      "stateMutability": "nonpayable",
      "type": "function"
    },
    {
      "constant": false,
      "inputs": [],
      "name": "snapshotTotalBondedE",
      "outputs": [],
      "payable": false,
      "stateMutability": "nonpayable",
      "type": "function"
    },
    {
      "constant": true,
      "inputs": [
        {
          "internalType": "address",
          "name": "candidate",
          "type": "address"
        }
      ],
      "name": "startFor",
      "outputs": [
        {
          "internalType": "uint256",
          "name": "",
          "type": "uint256"
        }
      ],
      "payable": false,
      "stateMutability": "view",
      "type": "function"
    },
    {
      "constant": true,
      "inputs": [
        {
          "internalType": "address",
          "name": "account",
          "type": "address"
        }
      ],
      "name": "statusOf",
      "outputs": [
        {
          "internalType": "enum Account.Status",
          "name": "",
          "type": "uint8"
        }
      ],
      "payable": false,
      "stateMutability": "view",
      "type": "function"
    },
    {
      "constant": true,
      "inputs": [],
      "name": "symbol",
      "outputs": [
        {
          "internalType": "string",
          "name": "",
          "type": "string"
        }
      ],
      "payable": false,
      "stateMutability": "view",
      "type": "function"
    },
    {
      "constant": true,
      "inputs": [],
      "name": "totalBonded",
      "outputs": [
        {
          "internalType": "uint256",
          "name": "",
          "type": "uint256"
        }
      ],
      "payable": false,
      "stateMutability": "view",
      "type": "function"
    },
    {
      "constant": true,
      "inputs": [
        {
          "internalType": "uint256",
          "name": "epoch",
          "type": "uint256"
        }
      ],
      "name": "totalBondedAt",
      "outputs": [
        {
          "internalType": "uint256",
          "name": "",
          "type": "uint256"
        }
      ],
      "payable": false,
      "stateMutability": "view",
      "type": "function"
    },
    {
      "constant": true,
      "inputs": [],
      "name": "totalCoupons",
      "outputs": [
        {
          "internalType": "uint256",
          "name": "",
          "type": "uint256"
        }
      ],
      "payable": false,
      "stateMutability": "view",
      "type": "function"
    },
    {
      "constant": true,
      "inputs": [],
      "name": "totalDebt",
      "outputs": [
        {
          "internalType": "uint256",
          "name": "",
          "type": "uint256"
        }
      ],
      "payable": false,
      "stateMutability": "view",
      "type": "function"
    },
    {
      "constant": true,
      "inputs": [],
      "name": "totalNet",
      "outputs": [
        {
          "internalType": "uint256",
          "name": "",
          "type": "uint256"
        }
      ],
      "payable": false,
      "stateMutability": "view",
      "type": "function"
    },
    {
      "constant": true,
      "inputs": [],
      "name": "totalRedeemable",
      "outputs": [
        {
          "internalType": "uint256",
          "name": "",
          "type": "uint256"
        }
      ],
      "payable": false,
      "stateMutability": "view",
      "type": "function"
    },
    {
      "constant": true,
      "inputs": [],
      "name": "totalStaged",
      "outputs": [
        {
          "internalType": "uint256",
          "name": "",
          "type": "uint256"
        }
      ],
      "payable": false,
      "stateMutability": "view",
      "type": "function"
    },
    {
      "constant": true,
      "inputs": [],
      "name": "totalSupply",
      "outputs": [
        {
          "internalType": "uint256",
          "name": "",
          "type": "uint256"
        }
      ],
      "payable": false,
      "stateMutability": "view",
      "type": "function"
    },
    {
      "constant": false,
      "inputs": [
        {
          "internalType": "address",
          "name": "recipient",
          "type": "address"
        },
        {
          "internalType": "uint256",
          "name": "amount",
          "type": "uint256"
        }
      ],
      "name": "transfer",
      "outputs": [
        {
          "internalType": "bool",
          "name": "",
          "type": "bool"
        }
      ],
      "payable": false,
      "stateMutability": "nonpayable",
      "type": "function"
    },
    {
      "constant": false,
      "inputs": [
        {
          "internalType": "address",
          "name": "sender",
          "type": "address"
        },
        {
          "internalType": "address",
          "name": "recipient",
          "type": "address"
        },
        {
          "internalType": "uint256",
          "name": "epoch",
          "type": "uint256"
        },
        {
          "internalType": "uint256",
          "name": "amount",
          "type": "uint256"
        }
      ],
      "name": "transferCoupons",
      "outputs": [],
      "payable": false,
      "stateMutability": "nonpayable",
      "type": "function"
    },
    {
      "constant": false,
      "inputs": [
        {
          "internalType": "address",
          "name": "sender",
          "type": "address"
        },
        {
          "internalType": "address",
          "name": "recipient",
          "type": "address"
        },
        {
          "internalType": "uint256",
          "name": "amount",
          "type": "uint256"
        }
      ],
      "name": "transferFrom",
      "outputs": [
        {
          "internalType": "bool",
          "name": "",
          "type": "bool"
        }
      ],
      "payable": false,
      "stateMutability": "nonpayable",
      "type": "function"
    },
    {
      "constant": false,
      "inputs": [
        {
          "internalType": "address",
          "name": "account",
          "type": "address"
        }
      ],
      "name": "unfreezeE",
      "outputs": [],
      "payable": false,
      "stateMutability": "nonpayable",
      "type": "function"
    },
    {
      "constant": false,
      "inputs": [
        {
          "internalType": "address",
          "name": "owner",
          "type": "address"
        },
        {
          "internalType": "address",
          "name": "spender",
          "type": "address"
        },
        {
          "internalType": "uint256",
          "name": "amount",
          "type": "uint256"
        }
      ],
      "name": "updateAllowanceCouponsE",
      "outputs": [],
      "payable": false,
      "stateMutability": "nonpayable",
      "type": "function"
    },
    {
      "constant": true,
      "inputs": [
        {
          "internalType": "address",
          "name": "candidate",
          "type": "address"
        }
      ],
      "name": "votesFor",
      "outputs": [
        {
          "internalType": "uint256",
          "name": "",
          "type": "uint256"
        }
      ],
      "payable": false,
      "stateMutability": "view",
      "type": "function"
    },
    {
      "constant": false,
      "inputs": [],
      "name": "stepE",
      "outputs": [],
      "payable": false,
      "stateMutability": "nonpayable",
      "type": "function"
    }
  ],
  "bytecode": "0x60806040523480156200001157600080fd5b506040516200596f3803806200596f8339810160408190526200003491620000bd565b42600f55604051819062000048906200009c565b604051809103906000f08015801562000065573d6000803e3d6000fd5b50600980546001600160a01b039283166001600160a01b031991821617909155600b80549390921692169190911790555062000112565b611c068062003d6983390190565b8051620000b781620000f8565b92915050565b600060208284031215620000d057600080fd5b6000620000de8484620000aa565b949350505050565b60006001600160a01b038216620000b7565b6200010381620000e6565b81146200010f57600080fd5b50565b613c4780620001226000396000f3fe608060405234801561001057600080fd5b50600436106104b65760003560e01c80638413e52a11610278578063b32a2f901161015c578063d6d8816d116100ce578063e5f55c7e11610092578063e5f55c7e14610a2b578063f1b7cf4914610a3e578063f35adf7e14610a51578063f7a3181814610a59578063fc7b9c1814610a6c578063ffbe3b7314610a74576104b6565b8063d6d8816d146109d1578063d83d3ed5146109e4578063d8f54138146109f7578063dd62ed3e14610a0a578063e0abdf6614610a18576104b6565b8063c45a3e0a11610120578063c45a3e0a1461096a578063c9aff70c1461097d578063cc8d823c14610990578063cf023779146109a3578063d60b347f146109ab578063d6a9cf08146109be576104b6565b8063b32a2f901461090b578063bc0b1df61461091e578063bc7513e214610931578063c1410c0214610944578063c2aeb5fe14610957576104b6565b8063a00e14d1116101f5578063a9059cbb116101b9578063a9059cbb146104ee578063a9b3cf15146108ac578063adbff2be146108bf578063ae5c2381146108d2578063b11ee0e3146108e5578063b16144a3146108f8576104b6565b8063a00e14d114610858578063a1eb31e81461086b578063a50cd8e71461087e578063a6c409f114610891578063a6f37b5314610899576104b6565b806397a5d5b51161023c57806397a5d5b5146108045780639a649edc146108175780639b82b49b1461081f5780639be46493146108325780639f6e1b2614610845576104b6565b80638413e52a146107bb57806386cf9f14146107ce5780638de2e573146107e1578063900cf0cf146107f457806395d89b41146107fc576104b6565b80633fbba9a61161039f5780635f14fec81161031c57806371c511eb116102e057806371c511eb1461075f57806372924d2a1461076757806375d5024b1461077a5780637cb95a321461078d5780637dc0d1d0146107a0578063825ad607146107a8576104b6565b80635f14fec81461070057806364668022146107135780636a39e328146107265780636b862d661461073957806370a082311461074c576104b6565b80634c736099116103635780634c736099146106b55780635053e461146106c857806351adeb57146106d05780635c60da1b146106e55780635dbf800a146106ed576104b6565b80633fbba9a61461065f5780633fd4973c1461067f578063416a23cc14610692578063438735261461069a57806344d96e95146106ad576104b6565b80631fac9732116104385780632f7f889e116103fc5780632f7f889e146105eb578063313ce567146105fe5780633234742214610613578063353a420c146106265780633a3e6c81146106395780633f7bcaf31461064c576104b6565b80631fac97321461058c57806320f6bc901461059f57806323b872dd146105b2578063259f7adf146105c5578063277805a9146105d8576104b6565b806315e14bf61161047f57806315e14bf61461054157806316f0115b1461055457806318160ddd146105695780631a08e22a146105715780631edbcf6c14610584576104b6565b80625edd37146104bb57806306fdde03146104d0578063095ea7b3146104ee5780630dc6d3a31461050e57806310e95b6c14610521575b600080fd5b6104ce6104c936600461345b565b610a87565b005b6104d8610baa565b6040516104e591906139c9565b60405180910390f35b6105016104fc3660046134bc565b610be1565b6040516104e5919061399f565b6104ce61051c3660046133dd565b610bea565b61053461052f3660046135d9565b610c33565b6040516104e59190613a3a565b61053461054f3660046132f5565b610c4b565b61055c610c69565b6040516104e5919061394e565b610534610c78565b6104ce61057f36600461366b565b610c7e565b610534610c8c565b6104ce61059a3660046135d9565b610c92565b6104ce6105ad3660046134bc565b610c9e565b6105016105c036600461339a565b610ca8565b6104ce6105d33660046135d9565b610cb2565b6104ce6105e63660046134bc565b610cbb565b6104ce6105f93660046134bc565b610d47565b610606610dc7565b6040516104e59190613a8b565b6104ce610621366004613615565b610dcc565b6105346106343660046132f5565b610e0c565b6105016106473660046132f5565b610e2a565b6104ce61065a36600461339a565b610e47565b61067261066d366004613313565b610e52565b6040516104e591906139bb565b6104ce61068d3660046134ec565b610e85565b6104ce610ecc565b6104ce6106a83660046135d9565b610ed6565b610534610edf565b6105346106c336600461366b565b610ee5565b610534610f15565b6106d8610f38565b6040516104e591906139ad565b61055c610f47565b6104ce6106fb3660046135d9565b610f6c565b6104ce61070e3660046134bc565b610f75565b6105346107213660046132f5565b610f7f565b6105346107343660046135d9565b610f9d565b6104ce610747366004613554565b610fb2565b61053461075a3660046132f5565b610fbd565b6104ce610fdb565b6104ce610775366004613615565b610fe3565b6105016107883660046135d9565b611023565b6104ce61079b3660046134ec565b611036565b6106d8611077565b6105346107b63660046132f5565b611086565b6104ce6107c936600461334d565b6110d2565b6105346107dc3660046132f5565b6110dd565b6104ce6107ef3660046135d9565b6110f8565b610534611101565b6104d8611107565b6106726108123660046132f5565b611125565b61053461118a565b6104ce61082d366004613615565b611190565b6104ce6108403660046132f5565b6111d0565b610534610853366004613313565b6111d9565b6104ce61086636600461366b565b611208565b61053461087936600461366b565b611213565b61053461088c3660046132f5565b611339565b61053461135c565b6104ce6108a73660046132f5565b6113f2565b6104ce6108ba3660046135d9565b6113fb565b6104ce6108cd3660046134ec565b611404565b6104ce6108e03660046134bc565b611445565b6104ce6108f33660046134bc565b61144f565b6104ce6109063660046135d9565b611459565b6104ce6109193660046134ec565b61146c565b6104ce61092c36600461368a565b6114ad565b61053461093f3660046134bc565b6115e1565b6104ce610952366004613313565b611625565b6104ce610965366004613586565b61162f565b6104ce6109783660046134bc565b611671565b61053461098b3660046135d9565b61167b565b6104ce61099e3660046134bc565b611690565b61053461169a565b6105016109b93660046132f5565b6116a0565b6104ce6109cc36600461366b565b6116c1565b6104ce6109df3660046135d9565b6117bd565b6104ce6109f23660046134bc565b6117c6565b610534610a053660046135d9565b6117d0565b6105346104fc366004613313565b6104ce610a263660046135d9565b61185b565b610534610a393660046135d9565b611860565b610534610a4c3660046132f5565b611952565b6104ce61196d565b6104ce610a673660046134bc565b611975565b61053461197f565b610534610a823660046135d9565b611985565b6001600160a01b038416610ab65760405162461bcd60e51b8152600401610aad90613a1a565b60405180910390fd5b6001600160a01b038316610adc5760405162461bcd60e51b8152600401610aad906139ea565b610b00848383604051806060016040528060238152602001613b6c60239139611997565b610b0b838383611a42565b336001600160a01b03851614801590610b2f5750600019610b2c85336111d9565b14155b15610b5857610b58843383604051806060016040528060248152602001613b8f60249139611ae9565b81836001600160a01b0316856001600160a01b03167f0f1dbb1ccbe57a1590c7baad7b01d581b730c9ebc535dcde4345e6db424063d884604051610b9c9190613a3a565b60405180910390a450505050565b60408051808201909152601881527f44796e616d69632053657420446f6c6c6172205374616b650000000000000000602082015290565b60005b92915050565b610c2c85858585858080601f016020809104026020016040519081016040528093929190818152602001838380828437600092019190915250611ae992505050565b5050505050565b6000818152600d60205260409020600201545b919050565b6001600160a01b03166000908152600e602052604090206001015490565b600b546001600160a01b031690565b60035490565b610c888282611b5a565b5050565b60065490565b610c9b81611b8c565b50565b610c888282611bd3565b60005b9392505050565b610c9b81611c7b565b610cc3610f38565b6001600160a01b03166340c10f1983836040518363ffffffff1660e01b8152600401610cf0929190613984565b602060405180830381600087803b158015610d0a57600080fd5b505af1158015610d1e573d6000803e3d6000fd5b505050506040513d601f19601f82011682018060405250610d4291908101906135bb565b505050565b6001600160a01b038216610d6d5760405162461bcd60e51b8152600401610aad90613a0a565b610d78338383611c94565b816001600160a01b0316336001600160a01b03167f8ff27e6b95060c1ca851e7c2c28af8b413eb1a8bcb637b0290da9543a709cce383604051610dbb9190613a3a565b60405180910390a35050565b601290565b610d428383838080601f016020809104026020016040519081016040528093929190818152602001838380828437600092019190915250611cc492505050565b6001600160a01b03166000908152600e602052604090206003015490565b6001600160a01b03166000908152600e6020526040902054151590565b610d42838383611c94565b6001600160a01b038082166000908152600e60209081526040808320938616835260049093019052205460ff1692915050565b610ec6848484848080601f016020809104026020016040519081016040528093929190818152602001838380828437600092019190915250611cdf92505050565b50505050565b610ed4611d30565b565b610c9b81611d8f565b60045490565b6000828152600d60205260408120600301805483908110610f0257fe5b9060005260206000200154905092915050565b6000610f1f613241565b610f27611da3565b9050610f3281611dd2565b91505090565b6009546001600160a01b031690565b7f360894a13ba1a3210667c828492db98dca3e2076cc3735a920a3ca505d382bbc5490565b610c9b81611df4565b610c888282611e7b565b6001600160a01b03166000908152600e602052604090206002015490565b6000908152600d602052604090206003015490565b610d42838383611a42565b6001600160a01b03166000908152600c602052604090206001015490565b610ed4611f8c565b610d428383838080601f016020809104026020016040519081016040528093929190818152602001838380828437600092019190915250611fb392505050565b600061102d611fce565b90911115919050565b610ec6848484848080601f016020809104026020016040519081016040528093929190818152602001838380828437600092019190915250611fd392505050565b600a546001600160a01b031690565b600080611091610c78565b9050806110a2576000915050610c46565b610cab816110c66110b286610fbd565b6110ba610edf565b9063ffffffff61202416565b9063ffffffff61205e16565b610d428383836120a0565b6001600160a01b03166000908152600c602052604090205490565b610c9b816120ea565b60025490565b6040805180820190915260048152635353445360e01b602082015290565b600061112f611101565b6001600160a01b0383166000908152600c6020526040902060050154111561115957506002610c46565b6001600160a01b0382166000908152600c602052604090206004015461117d611101565b1015610be1576001610be4565b60085490565b610d428383838080601f01602080910402602001604051908101604052809392919081815260200183838082843760009201919091525061210392505050565b610c9b8161211e565b6001600160a01b039182166000908152600c602090815260408083209390941682526003909201909152205490565b600091909155600155565b60008061121e611da3565b60400151428161122a57fe5b069050600084611238611101565b0390506000611245612148565b8261124e612148565b0361125761214e565b028161125f57fe5b049050808311156112765760009350505050610be4565b61127e613262565b6112d1604051806020016040528085611295612148565b038152506112c560405180602001604052806112af612148565b90526112b9612154565b9063ffffffff61217616565b9063ffffffff6121ad16565b90506112db613262565b60408051602080820183528786038252825190810190925284825261130b916112c590859063ffffffff61217616565b604080516020810190915288815290915061132c908263ffffffff6121ad16565b5198975050505050505050565b6000610be461134783610e0c565b61135084610f7f565b9063ffffffff6121db16565b60006113ed61136961197f565b611371610f38565b6001600160a01b03166318160ddd6040518163ffffffff1660e01b815260040160206040518083038186803b1580156113a957600080fd5b505afa1580156113bd573d6000803e3d6000fd5b505050506040513d601f19601f820116820180604052506113e191908101906135f7565b9063ffffffff61220016565b905090565b610c9b81612242565b610c9b81612269565b610ec6848484848080601f0160208091040260200160405190810160405280939291908181526020018383808284376000920191909152506122ac92505050565b610c888282612357565b610c8882826123f3565b610c9b61146782606461244f565b612475565b610ec6848484848080601f01602080910402602001604051908101604052809392919081815260200183838082843760009201919091525061253a92505050565b60026114bb846113e1611101565b10156114d95760405162461bcd60e51b8152600401610aad90613a2a565b6114fd338484604051806060016040528060238152602001613b6c60239139611997565b60006115098484611213565b9050808303611545838210156513585c9ad95d60d21b7f496e73756666696369656e74206f757470757420616d6f756e74000000000000612599565b61154f33826125ee565b81156115985784336001600160a01b03167f1cd1213d4276c260e84170b4a39025dc8398fbf744edee0709261769b456b94b8460405161158f9190613a3a565b60405180910390a35b84336001600160a01b03167f46e9903ae8ac9e9f0c9bc321b05965c1c036e7d4783758703f5cdfc4133c51b6836040516115d29190613a3a565b60405180910390a35050505050565b60006115ec8261167b565b6115f857506000610be4565b506001600160a01b03919091166000908152600c6020908152604080832093835260029093019052205490565b610c888282612698565b610c2c85858585858080601f01602080910402602001604051908101604052809392919081815260200183838082843760009201919091525061199792505050565b610c8882826125ee565b6000908152600d602052604090206001015490565b610c8882826126f8565b60055490565b6001600160a01b03166000908152600e602052604090206005015460ff1690565b60026116cf836113e1611101565b10156116ed5760405162461bcd60e51b8152600401610aad90613a2a565b611711338383604051806060016040528060238152602001613b6c60239139611997565b600061171d8383611213565b905080820361172c33826125ee565b81156117755783336001600160a01b03167f1cd1213d4276c260e84170b4a39025dc8398fbf744edee0709261769b456b94b8460405161176c9190613a3a565b60405180910390a35b83336001600160a01b03167f46e9903ae8ac9e9f0c9bc321b05965c1c036e7d4783758703f5cdfc4133c51b6836040516117af9190613a3a565b60405180910390a350505050565b610c9b81612747565b610c888282612760565b6000610be46117dd610f38565b6001600160a01b03166318160ddd6040518163ffffffff1660e01b815260040160206040518083038186803b15801561181557600080fd5b505afa158015611829573d6000803e3d6000fd5b505050506040513d601f19601f8201168201806040525061184d91908101906135f7565b61185561197f565b8461278c565b600f55565b6000611899600083116513585c9ad95d60d21b7f4d757374207075726368617365206e6f6e2d7a65726f20616d6f756e74000000612599565b6118c9826118a561197f565b10156513585c9ad95d60d21b6e139bdd08195b9bdd59da081919589d608a1b612599565b60006118d3611101565b905060006118f06118e3856117d0565b859063ffffffff6121db16565b90506118fc3385611e7b565b611907338383611a42565b81336001600160a01b03167fbce252db29f761f815dc2e9ea60005af065efba6eb619d2a0b2a113fdeb614148684604051611943929190613a48565b60405180910390a39392505050565b6001600160a01b03166000908152600e602052604090205490565b610ed46127b4565b610c8882826127cd565b60075490565b6000908152600d602052604090205490565b6001600160a01b0384166000908152600c602090815260408083208684526002019091529020546119cf90838363ffffffff61281c16565b6001600160a01b0385166000908152600c60209081526040808320878452600201825280832093909355600d90522060010154611a1390838363ffffffff61281c16565b6000848152600d6020526040902060010155600854611a3990838363ffffffff61281c16565b60085550505050565b6001600160a01b0383166000908152600c60209081526040808320858452600201909152902054611a79908263ffffffff6121db16565b6001600160a01b0384166000908152600c60209081526040808320868452600201825280832093909355600d90522060010154611abc908263ffffffff6121db16565b6000838152600d6020526040902060010155600854611ae1908263ffffffff6121db16565b600855505050565b6001600160a01b038085166000908152600c602090815260408083209387168352600390930190522054611b2490838363ffffffff61281c16565b6001600160a01b039485166000908152600c60209081526040808320969097168252600390950190945293909220929092555050565b6000828152600d6020908152604080832060020184905592825291812060030180546001810182559082529190200155565b611bcb816040518060400160405280601c81526020017f436f6d7074726f6c6c65723a206e6f7420656e6f756768206465627400000000815250611fb3565b610c9b612848565b611bdb610f38565b6001600160a01b03166340c10f1983836040518363ffffffff1660e01b8152600401611c08929190613984565b602060405180830381600087803b158015611c2257600080fd5b505af1158015611c36573d6000803e3d6000fd5b505050506040513d601f19601f82011682018060405250611c5a91908101906135bb565b50611c66610788611101565b611c7357611c7381611d8f565b610c88612848565b600454611c8e908263ffffffff6121db16565b60045550565b6001600160a01b039283166000908152600c60209081526040808320949095168252600390930190925291902055565b600654611cd890838363ffffffff61281c16565b6006555050565b6001600160a01b0383166000908152600e6020526040902060030154611d0c90838363ffffffff61281c16565b6001600160a01b039093166000908152600e60205260409020600301929092555050565b60005b611d3e610734611101565b811015611d6657611d5e611d59611d53611101565b83610ee5565b61291b565b600101611d33565b506000611d7c611d74612148565b611350611101565b9050610c9b611d89611101565b82611b5a565b611d98816120ea565b611bcb6114676129c7565b611dab613241565b604051806060016040528060008152602001635ff5cfa88152602001611c20815250905090565b6000610be4826000015161135084604001516110c686602001516113e16129e9565b611dfc610f38565b6001600160a01b03166342966c68826040518263ffffffff1660e01b8152600401611e279190613a3a565b600060405180830381600087803b158015611e4157600080fd5b505af1158015611e55573d6000803e3d6000fd5b50505050611bcb816040518060600160405280602a8152602001613bdb602a9139611cc4565b611e83610f38565b6001600160a01b03166323b872dd8330846040518463ffffffff1660e01b8152600401611eb29392919061395c565b602060405180830381600087803b158015611ecc57600080fd5b505af1158015611ee0573d6000803e3d6000fd5b505050506040513d601f19601f82011682018060405250611f0491908101906135bb565b50611f0d610f38565b6001600160a01b03166342966c68826040518263ffffffff1660e01b8152600401611f389190613a3a565b600060405180830381600087803b158015611f5257600080fd5b505af1158015611f66573d6000803e3d6000fd5b50505050611c7381604051806060016040528060288152602001613bb360289139611fb3565b611f94610c78565b600d6000611fa0611101565b8152602081019190915260400160002055565b600754611fc790838363ffffffff61281c16565b6007555050565b60b490565b6001600160a01b0383166000908152600e602052604090206002015461200090838363ffffffff61281c16565b6001600160a01b039093166000908152600e60205260409020600201929092555050565b60008261203357506000610be4565b8282028284828161204057fe5b0414610cab5760405162461bcd60e51b8152600401610aad906139fa565b6000610cab83836040518060400160405280601a81526020017f536166654d6174683a206469766973696f6e206279207a65726f0000000000008152506129ef565b6001600160a01b038083166000908152600e6020908152604080832093871683526004909301905220805482919060ff191660018360028111156120e057fe5b0217905550505050565b6007546120fd908263ffffffff6121db16565b60075550565b60045461211790838363ffffffff61281c16565b6004555050565b612129611d74612a26565b6001600160a01b039091166000908152600c6020526040902060040155565b61021c90565b610e1090565b61215c613262565b5060408051602081019091526706f05b59d3b20000815290565b61217e613262565b60405180602001604052806121a48560000151670de0b6b3a76400008660000151612a2b565b90529392505050565b6121b5613262565b60405180602001604052806121a485600001518560000151670de0b6b3a7640000612a2b565b600082820183811015610cab5760405162461bcd60e51b8152600401610aad906139da565b6000610cab83836040518060400160405280601e81526020017f536166654d6174683a207375627472616374696f6e206f766572666c6f77000081525061281c565b6001600160a01b03166000908152600e60205260409020600501805460ff19166001179055565b60006122748261167b565b9050806122815750610c9b565b600854612294908263ffffffff61220016565b600855506000908152600d6020526040812060010155565b6001600160a01b0383166000908152600c60205260409020600101546122d990838363ffffffff61281c16565b6001600160a01b0384166000908152600c602052604090206001015560035461230990838363ffffffff61281c16565b6003556040516000906001600160a01b038516907fddf252ad1be2c89b69c2b068fc378daa952ba7f163c4a11628f55a4df523b3ef9061234a908690613a3a565b60405180910390a3505050565b6001600160a01b0382166000908152600c6020526040902060010154612383908263ffffffff6121db16565b6001600160a01b0383166000908152600c60205260409020600101556003546123b2908263ffffffff6121db16565b6003556040516001600160a01b038316906000907fddf252ad1be2c89b69c2b068fc378daa952ba7f163c4a11628f55a4df523b3ef90610dbb908590613a3a565b6001600160a01b0382166000908152600c602052604090205461241c908263ffffffff6121db16565b6001600160a01b0383166000908152600c6020526040902055600554612448908263ffffffff6121db16565b6005555050565b612457613262565b60405180602001604052806121a485670de0b6b3a764000086612a2b565b6000612507612502612485610f38565b6001600160a01b03166318160ddd6040518163ffffffff1660e01b815260040160206040518083038186803b1580156124bd57600080fd5b505afa1580156124d1573d6000803e3d6000fd5b505050506040513d601f19601f820116820180604052506124f591908101906135f7565b849063ffffffff612a4116565b612a68565b9050600061251361197f565b905081811115610d4257600061252f828463ffffffff61220016565b9050610ec681611b8c565b6001600160a01b0383166000908152600c602052604090205461256490838363ffffffff61281c16565b6001600160a01b0384166000908152600c602052604090205560055461259190838363ffffffff61281c16565b600555505050565b82610d42576125a782612a85565b6101d160f51b6125b683612a85565b6040516020016125c89392919061391d565b60408051601f198184030181529082905262461bcd60e51b8252610aad916004016139c9565b6125f6610f38565b6001600160a01b031663a9059cbb83836040518363ffffffff1660e01b8152600401612623929190613984565b602060405180830381600087803b15801561263d57600080fd5b505af1158015612651573d6000803e3d6000fd5b505050506040513d601f19601f8201168201806040525061267591908101906135bb565b50611c73816040518060600160405280602a8152602001613bdb602a9139611cc4565b6001600160a01b0382166000908152600c6020526040812060050154906126ca6126c184610c4b565b61135085611952565b905081811115610ec6576001600160a01b0384166000908152600c6020526040902060050181905550505050565b6001600160a01b0382166000908152600e6020526040902060030154612724908263ffffffff6121db16565b6001600160a01b039092166000908152600e602052604090206003019190915550565b60065461275a908263ffffffff6121db16565b60065550565b612768611101565b6001600160a01b039092166000908152600e60205260409020918255600190910155565b60006127ac612502836127a0878787612b05565b9063ffffffff612a4116565b949350505050565b6002546127c890600163ffffffff6121db16565b600255565b6001600160a01b0382166000908152600e60205260409020600201546127f9908263ffffffff6121db16565b6001600160a01b039092166000908152600e602052604090206002019190915550565b600081848411156128405760405162461bcd60e51b8152600401610aad91906139c9565b505050900390565b610ed4612869612856610c8c565b61135061286161169a565b611350610edf565b612871610f38565b6001600160a01b03166370a08231306040518263ffffffff1660e01b815260040161289c919061394e565b60206040518083038186803b1580156128b457600080fd5b505afa1580156128c8573d6000803e3d6000fd5b505050506040513d601f19601f820116820180604052506128ec91908101906135f7565b10156a21b7b6b83a3937b63632b960a91b74496e636f6e73697374656e742062616c616e63657360581b612599565b60006129268261167b565b90506000808061293585612269565b600061293f610c8c565b9050600061294b61118a565b90508082111561298057612965828263ffffffff61220016565b945061297085611df4565b61297985612c72565b9095509350505b867f753df65b37159bf237ae1fca97ba1bd57cf83bc9498f271a514a4d7bafe87bda878787876040516129b69493929190613a56565b60405180910390a250505050505050565b6129cf613262565b5060408051602081019091526704db732547630000815290565b600f5490565b60008183612a105760405162461bcd60e51b8152600401610aad91906139c9565b506000838581612a1c57fe5b0495945050505050565b601890565b60006127ac826110c6868663ffffffff61202416565b612a49613262565b6040805160208101909152835181906121a4908563ffffffff61202416565b8051600090610be490670de0b6b3a764000063ffffffff61205e16565b60608082604051602001612a999190613908565b60408051601f19818403018152919052905060205b8015612aee57815160001990910190829082908110612ac957fe5b01602001516001600160f81b03191615612ae95760010181529050610c46565b612aae565b505060408051600081526020810190915292915050565b612b0d613262565b612b15613262565b612b1f848661244f565b9050612b29613262565b612b316129c7565b90506000612b45878663ffffffff61220016565b90506000612b59878763ffffffff61220016565b9050612b63613262565b612b6d828461244f565b9050612b7f858563ffffffff612dde16565b15612c5b57612b94818563ffffffff612dde16565b15612bae57612ba284612df4565b95505050505050610cab565b612bb6613262565b612bc08286612e4c565b9050612bca613262565b612bda868463ffffffff612ea916565b9050612be4613262565b612bed87612df4565b9050612bf7613262565b612c07898963ffffffff612ea916565b9050612c4b612c1c848363ffffffff612ed216565b6112b9612c2f858563ffffffff6121ad16565b612c3f888863ffffffff6121ad16565b9063ffffffff612ed216565b9950505050505050505050610cab565b612c658186612e4c565b9998505050505050505050565b6000808080808080612c82610c8c565b90506000612c8e61118a565b905080821015612d4b57612ca8818363ffffffff61220016565b9450612cd0612cbf6064612cba612efb565b612200565b6110c687606463ffffffff61202416565b9450888511612cdf5784612ce1565b885b9450612d0060646110c6612cf3612efb565b889063ffffffff61202416565b9250612d12858463ffffffff61220016565b9450612d1d83612f00565b612d2685612f94565b612d36898463ffffffff61220016565b9850612d48898663ffffffff61220016565b98505b6000612d5561197f565b905060008a118015612d675750600081115b15612d9957898111612d795780612d7b565b895b9450612d8685611b8c565b612d968a8663ffffffff61220016565b99505b612da1610edf565b612daa57600099505b8915612db957612db98a613025565b8585612dcb8c8763ffffffff6121db16565b9850985098505050505050509193909250565b6000612dea83836130c5565b6002149392505050565b612dfc613262565b610be4612e0b6001600361244f565b612e22612e44612e3a6002612e2e88612e226130f7565b9063ffffffff612ea916565b9063ffffffff61311916565b6112c5600361316f565b6112b96130f7565b612e54613262565b612e64838363ffffffff6131a316565b15612e7957612e7283612df4565b9050610be4565b610cab612e886001600361244f565b612e22612e44612e9a87612e226130f7565b6112c5612e3a88612e226130f7565b612eb1613262565b60408051602081019091528251845182916121a4919063ffffffff61220016565b612eda613262565b60408051602081019091528251845182916121a4919063ffffffff6121db16565b602890565b8015610c9b57612f0e610f38565b6001600160a01b03166340c10f19612f24610c69565b836040518363ffffffff1660e01b8152600401612f42929190613984565b602060405180830381600087803b158015612f5c57600080fd5b505af1158015612f70573d6000803e3d6000fd5b505050506040513d601f19601f82011682018060405250610c8891908101906135bb565b612f9c610f38565b6001600160a01b03166340c10f1930836040518363ffffffff1660e01b8152600401612fc9929190613984565b602060405180830381600087803b158015612fe357600080fd5b505af1158015612ff7573d6000803e3d6000fd5b505050506040513d601f19601f8201168201806040525061301b91908101906135bb565b50611bcb81612747565b6130686000613032610edf565b116a21b7b6b83a3937b63632b960a91b7f43616e74206d696e7420746f20656d70747920706f6f6c000000000000000000612599565b600061308760646110c661307a612efb565b859063ffffffff61202416565b905060008183116130995760006130a9565b6130a9838363ffffffff61220016565b90506130b482612f00565b6130bd816131aa565b610d42612848565b8051825160009114156130da57506001610be4565b81518351116130ea5760006130ed565b60025b60ff169392505050565b6130ff613262565b506040805160208101909152670de0b6b3a7640000815290565b613121613262565b8161313057612e72600161316f565b613138613262565b5060408051602081019091528351815260015b838110156131675761315d82866121ad565b915060010161314b565b509392505050565b613177613262565b60408051602081019091528061319b84670de0b6b3a764000063ffffffff61202416565b905292915050565b5190511490565b8015610c9b576131b8610f38565b6001600160a01b03166340c10f1930836040518363ffffffff1660e01b81526004016131e5929190613984565b602060405180830381600087803b1580156131ff57600080fd5b505af1158015613213573d6000803e3d6000fd5b505050506040513d601f19601f8201168201806040525061323791908101906135bb565b50610c9b81611c7b565b60405180606001604052806000815260200160008152602001600081525090565b6040518060200160405280600081525090565b8035610be481613b38565b8051610be481613b4c565b8035610be481613b55565b60008083601f8401126132a857600080fd5b50813567ffffffffffffffff8111156132c057600080fd5b6020830191508360018202830111156132d857600080fd5b9250929050565b8035610be481613b62565b8051610be481613b62565b60006020828403121561330757600080fd5b60006127ac8484613275565b6000806040838503121561332657600080fd5b60006133328585613275565b925050602061334385828601613275565b9150509250929050565b60008060006060848603121561336257600080fd5b600061336e8686613275565b935050602061337f86828701613275565b92505060406133908682870161328b565b9150509250925092565b6000806000606084860312156133af57600080fd5b60006133bb8686613275565b93505060206133cc86828701613275565b9250506040613390868287016132df565b6000806000806000608086880312156133f557600080fd5b60006134018888613275565b955050602061341288828901613275565b9450506040613423888289016132df565b935050606086013567ffffffffffffffff81111561344057600080fd5b61344c88828901613296565b92509250509295509295909350565b6000806000806080858703121561347157600080fd5b600061347d8787613275565b945050602061348e87828801613275565b935050604061349f878288016132df565b92505060606134b0878288016132df565b91505092959194509250565b600080604083850312156134cf57600080fd5b60006134db8585613275565b9250506020613343858286016132df565b6000806000806060858703121561350257600080fd5b600061350e8787613275565b945050602061351f878288016132df565b935050604085013567ffffffffffffffff81111561353c57600080fd5b61354887828801613296565b95989497509550505050565b60008060006060848603121561356957600080fd5b60006135758686613275565b93505060206133cc868287016132df565b60008060008060006080868803121561359e57600080fd5b60006135aa8888613275565b9550506020613412888289016132df565b6000602082840312156135cd57600080fd5b60006127ac8484613280565b6000602082840312156135eb57600080fd5b60006127ac84846132df565b60006020828403121561360957600080fd5b60006127ac84846132ea565b60008060006040848603121561362a57600080fd5b600061363686866132df565b935050602084013567ffffffffffffffff81111561365357600080fd5b61365f86828701613296565b92509250509250925092565b6000806040838503121561367e57600080fd5b60006134db85856132df565b60008060006060848603121561369f57600080fd5b600061357586866132df565b6136b481613aa6565b82525050565b6136b481613ab1565b6136b46136cf82613ab6565b613ac3565b6136b46136cf82613ac3565b60006136eb82613a99565b6136f58185610c46565b9350613705818560208601613af8565b9290920192915050565b6136b481613ae2565b6136b481613aed565b600061372c82613a99565b6137368185613a9d565b9350613746818560208601613af8565b61374f81613b24565b9093019392505050565b6000613766601b83613a9d565b7f536166654d6174683a206164646974696f6e206f766572666c6f770000000000815260200192915050565b600061379f602b83613a9d565b7f4d61726b65743a20436f75706f6e207472616e7366657220746f20746865207a81526a65726f206164647265737360a81b602082015260400192915050565b60006137ec602183613a9d565b7f536166654d6174683a206d756c7469706c69636174696f6e206f766572666c6f8152607760f81b602082015260400192915050565b600061382f602a83613a9d565b7f4d61726b65743a20436f75706f6e20617070726f766520746f20746865207a65815269726f206164647265737360b01b602082015260400192915050565b600061387b602d83613a9d565b7f4d61726b65743a20436f75706f6e207472616e736665722066726f6d2074686581526c207a65726f206164647265737360981b602082015260400192915050565b60006138ca601b83613a9d565b7f4d61726b65743a20546f6f206561726c7920746f2072656465656d0000000000815260200192915050565b6136b481613ac3565b6136b481613adc565b600061391482846136d4565b50602001919050565b600061392982866136e0565b915061393582856136c3565b60028201915061394582846136e0565b95945050505050565b60208101610be482846136ab565b6060810161396a82866136ab565b61397760208301856136ab565b6127ac60408301846138f6565b6040810161399282856136ab565b610cab60208301846138f6565b60208101610be482846136ba565b60208101610be4828461370f565b60208101610be48284613718565b60208082528101610cab8184613721565b60208082528101610be481613759565b60208082528101610be481613792565b60208082528101610be4816137df565b60208082528101610be481613822565b60208082528101610be48161386e565b60208082528101610be4816138bd565b60208101610be482846138f6565b6040810161399282856138f6565b60808101613a6482876138f6565b613a7160208301866138f6565b613a7e60408301856138f6565b61394560608301846138f6565b60208101610be482846138ff565b5190565b90815260200190565b6000610be482613ad0565b151590565b6001600160f01b03191690565b90565b80610c4681613b2e565b6001600160a01b031690565b60ff1690565b6000610be482613aa6565b6000610be482613ac6565b60005b83811015613b13578181015183820152602001613afb565b83811115610ec65750506000910152565b601f01601f191690565b60038110610c9b57fe5b613b4181613aa6565b8114610c9b57600080fd5b613b4181613ab1565b60038110610c9b57600080fd5b613b4181613ac356fe4d61726b65743a20496e73756666696369656e7420636f75706f6e2062616c616e63654d61726b65743a20496e73756666696369656e7420636f75706f6e20617070726f76616c436f6d7074726f6c6c65723a206e6f7420656e6f756768206f75747374616e64696e672064656274436f6d7074726f6c6c65723a206e6f7420656e6f7567682072656465656d61626c652062616c616e6365a365627a7a723158207c9b36e5153353b49195e4405e9d696793b53b83852a8517db9916e41ddb96836c6578706572696d656e74616cf564736f6c6343000511004060806040523480156200001157600080fd5b5060405180604001604052806012815260200171223cb730b6b4b19029b2ba102237b63630b960711b8152506040518060400160405280600381526020016214d4d160ea1b81525060126200007e6200006f6200011960201b60201c565b6001600160e01b036200011e16565b82516200009390600190602086019062000313565b508151620000a990600290602085019062000313565b506003805460ff191660ff9290921691909117905550620001109050620000cf62000170565b604051806040016040528060018152602001603160f81b815250620000fe6200020960201b620016341760201c565b306200020e60201b620016391760201c565b60075562000469565b335b90565b620001398160006200026560201b62000d7e1790919060201c565b6040516001600160a01b038216907f6ae172837ea30b801fbfcdd4108aa1d5bf8ff775444fd70256b44e6bf3dfc3f690600090a250565b60018054604080516020601f60026000196101008789161502019095169490940493840181900481028201810190925282815260609390929091830182828015620001ff5780601f10620001d357610100808354040283529160200191620001ff565b820191906000526020600020905b815481529060010190602001808311620001e157829003601f168201915b5050505050905090565b600190565b8351602094850120835193850193909320604080517f8b73c3c69bb8fe3d512ecc4cf759cc79239f7b179b0ffacaa9a75d522b39400f815295860194909452928401929092526060830152608082015260a0902090565b6200027a82826001600160e01b03620002c816565b15620002a35760405162461bcd60e51b81526004016200029a9062000436565b60405180910390fd5b6001600160a01b0316600090815260209190915260409020805460ff19166001179055565b60006001600160a01b038216620002f35760405162461bcd60e51b81526004016200029a906200044e565b506001600160a01b03166000908152602091909152604090205460ff1690565b828054600181600116156101000203166002900490600052602060002090601f016020900481019282601f106200035657805160ff191683800117855562000386565b8280016001018555821562000386579182015b828111156200038657825182559160200191906001019062000369565b506200039492915062000398565b5090565b6200011b91905b808211156200039457600081556001016200039f565b6000620003c4601f8362000460565b7f526f6c65733a206163636f756e7420616c72656164792068617320726f6c6500815260200192915050565b6000620003ff60228362000460565b7f526f6c65733a206163636f756e7420697320746865207a65726f206164647265815261737360f01b602082015260400192915050565b602080825281016200044881620003b5565b92915050565b602080825281016200044881620003f0565b90815260200190565b61178d80620004796000396000f3fe608060405234801561001057600080fd5b506004361061012c5760003560e01c806395d89b41116100ad578063aa271e1a11610071578063aa271e1a14610256578063d505accf14610269578063dab400f31461027c578063dd62ed3e14610284578063e879c19f146102975761012c565b806395d89b411461020d578063983b2d56146102155780639865027514610228578063a457c2d714610230578063a9059cbb146102435761012c565b806339509351116100f457806339509351146101ac57806340c10f19146101bf57806342966c68146101d257806370a08231146101e757806379cc6790146101fa5761012c565b806306fdde0314610131578063095ea7b31461014f57806318160ddd1461016f57806323b872dd14610184578063313ce56714610197575b600080fd5b61013961029f565b60405161014691906114c6565b60405180910390f35b61016261015d366004610ffc565b610334565b604051610146919061141b565b610177610352565b6040516101469190611429565b610162610192366004610f13565b610358565b61019f6103ca565b6040516101469190611587565b6101626101ba366004610ffc565b6103d3565b6101626101cd366004610ffc565b610427565b6101e56101e036600461102c565b610463565b005b6101776101f5366004610eb3565b610477565b6101e5610208366004610ffc565b610496565b6101396104a4565b6101e5610223366004610eb3565b610502565b6101e5610532565b61016261023e366004610ffc565b610544565b610162610251366004610ffc565b6105b2565b610162610264366004610eb3565b6105c6565b6101e5610277366004610f60565b6105d8565b61017761075f565b610177610292366004610ed9565b610765565b610177610790565b60018054604080516020601f6002600019610100878916150201909516949094049384018190048102820181019092528281526060939092909183018282801561032a5780601f106102ff5761010080835404028352916020019161032a565b820191906000526020600020905b81548152906001019060200180831161030d57829003601f168201915b5050505050905090565b60006103486103416107b4565b84846107b8565b5060015b92915050565b60065490565b600061036584848461086c565b600019610374856102926107b4565b146103c0576103c0846103856107b4565b6103bb856040518060600160405280602981526020016116fd602991396103ae8a6102926107b4565b919063ffffffff61098216565b6107b8565b5060019392505050565b60035460ff1690565b60006103486103e06107b4565b846103bb85600560006103f16107b4565b6001600160a01b03908116825260208083019390935260409182016000908120918c16815292529020549063ffffffff6109ae16565b60006104346102646107b4565b6104595760405162461bcd60e51b815260040161045090611517565b60405180910390fd5b61034883836109da565b61047461046e6107b4565b82610a9a565b50565b6001600160a01b0381166000908152600460205260409020545b919050565b6104a08282610b70565b5050565b60028054604080516020601f600019610100600187161502019094168590049384018190048102820181019092528281526060939092909183018282801561032a5780601f106102ff5761010080835404028352916020019161032a565b61050d6102646107b4565b6105295760405162461bcd60e51b815260040161045090611517565b61047481610beb565b61054261053d6107b4565b610c33565b565b60006103486105516107b4565b846103bb85604051806060016040528060258152602001611726602591396005600061057b6107b4565b6001600160a01b03908116825260208083019390935260409182016000908120918d1681529252902054919063ffffffff61098216565b60006103486105bf6107b4565b848461086c565b600061034c818363ffffffff610c7b16565b6007546001600160a01b03881660009081526008602090815260408083208054600181019091559051929361065a93909261063f927f6e71edae12b1b97f4d1f60370fef10105fa2faae0126114a169c64845d6126c9928e928e928e9290918e9101611437565b60405160208183030381529060405280519060200120610cc3565b90506000600182868686604051600081526020016040526040516106819493929190611491565b6020604051602081039080840390855afa1580156106a3573d6000803e3d6000fd5b5050506020604051035190506106f0896001600160a01b0316826001600160a01b0316146a5065726d69747461626c6560a81b70496e76616c6964207369676e617475726560781b610ce2565b6107236001600160a01b03821615156a5065726d69747461626c6560a81b6b5a65726f206164647265737360a01b610ce2565b610749864211156a5065726d69747461626c6560a81b66115e1c1a5c995960ca1b610ce2565b6107548989896107b8565b505050505050505050565b60075481565b6001600160a01b03918216600090815260056020908152604080832093909416825291909152205490565b7f6e71edae12b1b97f4d1f60370fef10105fa2faae0126114a169c64845d6126c981565b3390565b6001600160a01b0383166107de5760405162461bcd60e51b815260040161045090611567565b6001600160a01b0382166108045760405162461bcd60e51b8152600401610450906114f7565b6001600160a01b0380841660008181526005602090815260408083209487168084529490915290819020849055517f8c5be1e5ebec7d5bd14f71427d1e84f3dd0314c0f7b2291e5b200ac8c7c3b9259061085f908590611429565b60405180910390a3505050565b6001600160a01b0383166108925760405162461bcd60e51b815260040161045090611557565b6001600160a01b0382166108b85760405162461bcd60e51b8152600401610450906114d7565b6108fb816040518060600160405280602681526020016116b3602691396001600160a01b038616600090815260046020526040902054919063ffffffff61098216565b6001600160a01b038085166000908152600460205260408082209390935590841681522054610930908263ffffffff6109ae16565b6001600160a01b0380841660008181526004602052604090819020939093559151908516907fddf252ad1be2c89b69c2b068fc378daa952ba7f163c4a11628f55a4df523b3ef9061085f908590611429565b600081848411156109a65760405162461bcd60e51b815260040161045091906114c6565b505050900390565b6000828201838110156109d35760405162461bcd60e51b815260040161045090611507565b9392505050565b6001600160a01b038216610a005760405162461bcd60e51b815260040161045090611577565b600654610a13908263ffffffff6109ae16565b6006556001600160a01b038216600090815260046020526040902054610a3f908263ffffffff6109ae16565b6001600160a01b0383166000818152600460205260408082209390935591519091907fddf252ad1be2c89b69c2b068fc378daa952ba7f163c4a11628f55a4df523b3ef90610a8e908590611429565b60405180910390a35050565b6001600160a01b038216610ac05760405162461bcd60e51b815260040161045090611547565b610b0381604051806060016040528060228152602001611691602291396001600160a01b038516600090815260046020526040902054919063ffffffff61098216565b6001600160a01b038316600090815260046020526040902055600654610b2f908263ffffffff610d3c16565b6006556040516000906001600160a01b038416907fddf252ad1be2c89b69c2b068fc378daa952ba7f163c4a11628f55a4df523b3ef90610a8e908590611429565b610b7a8282610a9a565b6104a082610b866107b4565b6103bb846040518060600160405280602481526020016116d9602491396001600160a01b038816600090815260056020526040812090610bc46107b4565b6001600160a01b03168152602081019190915260400160002054919063ffffffff61098216565b610bfc60008263ffffffff610d7e16565b6040516001600160a01b038216907f6ae172837ea30b801fbfcdd4108aa1d5bf8ff775444fd70256b44e6bf3dfc3f690600090a250565b610c4460008263ffffffff610dca16565b6040516001600160a01b038216907fe94479a9f7e1952cc78f2d6baab678adc1b772d936c6583def489e524cb6669290600090a250565b60006001600160a01b038216610ca35760405162461bcd60e51b815260040161045090611537565b506001600160a01b03166000908152602091909152604090205460ff1690565b60405161190160f01b8152600281019290925260228201526042902090565b82610d3757610cf082610e12565b6101d160f51b610cff83610e12565b604051602001610d11939291906113ea565b60408051601f198184030181529082905262461bcd60e51b8252610450916004016114c6565b505050565b60006109d383836040518060400160405280601e81526020017f536166654d6174683a207375627472616374696f6e206f766572666c6f770000815250610982565b610d888282610c7b565b15610da55760405162461bcd60e51b8152600401610450906114e7565b6001600160a01b0316600090815260209190915260409020805460ff19166001179055565b610dd48282610c7b565b610df05760405162461bcd60e51b815260040161045090611527565b6001600160a01b0316600090815260209190915260409020805460ff19169055565b60608082604051602001610e2691906113d5565b60408051601f19818403018152919052905060205b8015610e7b57815160001990910190829082908110610e5657fe5b01602001516001600160f81b03191615610e765760010181529050610491565b610e3b565b505060408051600081526020810190915292915050565b803561034c8161160e565b803561034c81611622565b803561034c8161162b565b600060208284031215610ec557600080fd5b6000610ed18484610e92565b949350505050565b60008060408385031215610eec57600080fd5b6000610ef88585610e92565b9250506020610f0985828601610e92565b9150509250929050565b600080600060608486031215610f2857600080fd5b6000610f348686610e92565b9350506020610f4586828701610e92565b9250506040610f5686828701610e9d565b9150509250925092565b600080600080600080600060e0888a031215610f7b57600080fd5b6000610f878a8a610e92565b9750506020610f988a828b01610e92565b9650506040610fa98a828b01610e9d565b9550506060610fba8a828b01610e9d565b9450506080610fcb8a828b01610ea8565b93505060a0610fdc8a828b01610e9d565b92505060c0610fed8a828b01610e9d565b91505092959891949750929550565b6000806040838503121561100f57600080fd5b600061101b8585610e92565b9250506020610f0985828601610e9d565b60006020828403121561103e57600080fd5b6000610ed18484610e9d565b611053816115a2565b82525050565b611053816115ad565b61105361106e826115b2565b6115bf565b611053816115bf565b61105361106e826115bf565b600061109382611595565b61109d8185610491565b93506110ad8185602086016115d4565b9290920192915050565b60006110c282611595565b6110cc8185611599565b93506110dc8185602086016115d4565b6110e581611604565b9093019392505050565b60006110fc602383611599565b7f45524332303a207472616e7366657220746f20746865207a65726f206164647281526265737360e81b602082015260400192915050565b6000611141601f83611599565b7f526f6c65733a206163636f756e7420616c72656164792068617320726f6c6500815260200192915050565b600061117a602283611599565b7f45524332303a20617070726f766520746f20746865207a65726f206164647265815261737360f01b602082015260400192915050565b60006111be601b83611599565b7f536166654d6174683a206164646974696f6e206f766572666c6f770000000000815260200192915050565b60006111f7603083611599565b7f4d696e746572526f6c653a2063616c6c657220646f6573206e6f74206861766581526f20746865204d696e74657220726f6c6560801b602082015260400192915050565b6000611249602183611599565b7f526f6c65733a206163636f756e7420646f6573206e6f74206861766520726f6c8152606560f81b602082015260400192915050565b600061128c602283611599565b7f526f6c65733a206163636f756e7420697320746865207a65726f206164647265815261737360f01b602082015260400192915050565b60006112d0602183611599565b7f45524332303a206275726e2066726f6d20746865207a65726f206164647265738152607360f81b602082015260400192915050565b6000611313602583611599565b7f45524332303a207472616e736665722066726f6d20746865207a65726f206164815264647265737360d81b602082015260400192915050565b600061135a602483611599565b7f45524332303a20617070726f76652066726f6d20746865207a65726f206164648152637265737360e01b602082015260400192915050565b60006113a0601f83611599565b7f45524332303a206d696e7420746f20746865207a65726f206164647265737300815260200192915050565b611053816115ce565b60006113e1828461107c565b50602001919050565b60006113f68286611088565b91506114028285611062565b6002820191506114128284611088565b95945050505050565b6020810161034c8284611059565b6020810161034c8284611073565b60c081016114458289611073565b611452602083018861104a565b61145f604083018761104a565b61146c6060830186611073565b6114796080830185611073565b61148660a0830184611073565b979650505050505050565b6080810161149f8287611073565b6114ac60208301866113cc565b6114b96040830185611073565b6114126060830184611073565b602080825281016109d381846110b7565b6020808252810161034c816110ef565b6020808252810161034c81611134565b6020808252810161034c8161116d565b6020808252810161034c816111b1565b6020808252810161034c816111ea565b6020808252810161034c8161123c565b6020808252810161034c8161127f565b6020808252810161034c816112c3565b6020808252810161034c81611306565b6020808252810161034c8161134d565b6020808252810161034c81611393565b6020810161034c82846113cc565b5190565b90815260200190565b600061034c826115c2565b151590565b6001600160f01b03191690565b90565b6001600160a01b031690565b60ff1690565b60005b838110156115ef5781810151838201526020016115d7565b838111156115fe576000848401525b50505050565b601f01601f191690565b611617816115a2565b811461047457600080fd5b611617816115bf565b611617816115ce565b600190565b8351602094850120835193850193909320604080517f8b73c3c69bb8fe3d512ecc4cf759cc79239f7b179b0ffacaa9a75d522b39400f815295860194909452928401929092526060830152608082015260a090209056fe45524332303a206275726e20616d6f756e7420657863656564732062616c616e636545524332303a207472616e7366657220616d6f756e7420657863656564732062616c616e636545524332303a206275726e20616d6f756e74206578636565647320616c6c6f77616e6365446f6c6c61723a207472616e7366657220616d6f756e74206578636565647320616c6c6f77616e636545524332303a2064656372656173656420616c6c6f77616e63652062656c6f77207a65726fa365627a7a72315820fc6393ce3d5654ea4495be1bba9a75b4291c097ab3bfd4a3b2116c0ea1e874fe6c6578706572696d656e74616cf564736f6c63430005110040",
  "source": "/*\n    Copyright 2020 Stabilized Set Dollar Devs, based on the works of the Empty Set Squad\n\n    Licensed under the Apache License, Version 2.0 (the \"License\");\n    you may not use this file except in compliance with the License.\n    You may obtain a copy of the License at\n\n    http://www.apache.org/licenses/LICENSE-2.0\n\n    Unless required by applicable law or agreed to in writing, software\n    distributed under the License is distributed on an \"AS IS\" BASIS,\n    WITHOUT WARRANTIES OR CONDITIONS OF ANY KIND, either express or implied.\n    See the License for the specific language governing permissions and\n    limitations under the License.\n*/\n\npragma solidity ^0.5.17;\npragma experimental ABIEncoderV2;\n\nimport \"../dao/Market.sol\";\nimport \"./MockState.sol\";\nimport \"./MockComptroller.sol\";\n\ncontract MockMarket is MockState, MockComptroller, Market {\n    constructor(address pool) MockComptroller(pool) public { }\n\n    function stepE() external {\n        Market.step();\n    }\n}\n",
  "sourcePath": "/Users/apple/Desktop/dev/ssd-protocol/protocol/contracts/mock/MockMarket.sol",
  "compiler": {
    "name": "solc",
    "version": "0.5.17+commit.d19bba13.Emscripten.clang"
  },
  "schemaVersion": "3.3.3",
  "updatedAt": "2021-01-06T16:53:33.320Z",
  "devdoc": {
    "methods": {}
  },
  "userdoc": {
    "methods": {
      "balanceOfStaged(address)": {
        "notice": "Account"
      },
      "createCandidateE(address,uint256)": {
        "notice": "Governance"
      },
      "dollar()": {
        "notice": "Global"
      },
      "epoch()": {
        "notice": "Epoch"
      },
      "incrementBalanceOfE(address,uint256)": {
        "notice": "Account"
      },
      "incrementTotalBondedE(uint256)": {
        "notice": "Global"
      },
      "name()": {
        "notice": "ERC20 Interface"
      },
      "recordedVote(address,address)": {
        "notice": "Governance"
      },
      "setBlockTimestamp(uint256)": {
        "notice": "Mock"
      },
      "setEpochParamsE(uint256,uint256)": {
        "notice": "Epoch"
      },
      "transfer(address,uint256)": {
        "notice": "ERC20 Interface"
      }
    }
  }
}